:100000000C94F2000C941A010C941A010C941A012D
:100010000C941A010C941A010C941A010C941A01F4
:100020000C941A010C941A010C941A010C941A01E4
:100030000C941A010C941A010C941A010C941A01D4
:100040000C94E40B0C941A010C94C20A0C94870AC9
:100050000C941A010C941A010C941A010C941A01B4
:100060000C941A010C941A01530A550A550A550AA0
:10007000550A3E0A550A550A550A550A550A410AB3
:10008000550A550A550A550A550A440A550A4D0A91
:10009000500A550A470A4A0A00407A10F35A00A04B
:1000A000724E18090010A5D4E80000E87648170041
:1000B00000E40B54020000CA9A3B000000E1F50581
:1000C000000080969800000040420F000000A086CB
:1000D00001000000102700000000E80300000000FD
:1000E0006400000000000A000000000001000000A1
:1000F00000002C76D888DC674F0823DFC1DFAE59BB
:10010000E1B1B796E5E3E453C63AE651997696E84D
:10011000E6C28426EB898C9B62ED407C6FFCEFBCD1
:100120009C9F40F2BAA56FA5F490055A2AF75C93FC
:100130006B6CF9676DC11BFCE0E40D47FEF520E632
:10014000B500D0ED902E0300943577050080841E15
:10015000080000204E0A000000C80C333333330F70
:10016000986E12831141EF8D2114893BE65516CF0D
:10017000FEE6DB18D1844B381BF77C1D901DA4BB19
:10018000E424203284725E228100C9F124ECA1E5CE
:100190003D2700000000240027002A000000000086
:1001A000250028002B0004040404040404040202B3
:1001B00002020202030303030303010204081020E6
:1001C00040800102040810200102040810200000F1
:1001D0000007000201000003040600000000000008
:1001E0000000270E11241FBECFEFD8E0DEBFCDBF29
:1001F00013E0A0E0B1E0E0E2FDE202C005900D9264
:10020000A23AB107D9F724E0A2EAB3E001C01D92F7
:10021000A73AB207E1F710E0C2EFD0E004C021979F
:10022000FE010E948816C13FD107C9F70E94E50E62
:100230000C945C110C940000FC0117A216A211A6EC
:1002400010A613A612A615A614A617A616A611AADE
:1002500010AA13AA12AA15AA14AA17AA08950F93EE
:100260001F93FC013FB7F8948091A2039091A303E0
:10027000A091A403B091A50326B5A89B05C02F3F6C
:1002800019F00196A11DB11D3FBFBA2FA92F982FBC
:100290008827820F911DA11DB11D42E0880F991F73
:1002A000AA1FBB1F4A95D1F724853585213031051A
:1002B000C9F4008111812281338144815581668195
:1002C000778180179107A207B30720F0401B510BDD
:1002D000620B730B480F591F6A1F7B1F44835583A2
:1002E0006683778380839183A283B383808591859E
:1002F000A285B3850097A105B10589F04481558198
:100300006681778184179507A607B70750F481E0C7
:1003100090E0978786871482158216821782158649
:1003200014861F910F910895EF92FF920F931F93E0
:10033000CF93DF93EC01888199810E942F0108817E
:100340001981F801E684F784F1E0EF16F10409F071
:1003500051C0F80117861686F586E486C8010E940A
:100360002F01F801148215821682178217861686CD
:100370008E8180FD28C061E08C810E94FC0AE881AA
:10038000F9818A819B81092E000CAA0BBB0B808707
:100390009187A287B387F586E4868E818F5F8E83EF
:1003A0008F81882339F1E881F981868597858130AD
:1003B000910529F41786168695878487BCCFCF01CF
:1003C0000E942F01F0CF60E08C810E94FC0AE8813E
:1003D000F9812A813B8180E29EE4821B930B092EE6
:1003E000000CAA0BBB0B80879187A287B387F58689
:1003F000E4861E82DF91CF911F910F91FF90EF90C5
:1004000008950F931F93CF93DF93EC01162F072FBF
:100410008CED95E09B838A8361E0812F0E94490BDC
:100420001C830D831E8280E190E00E94FA13FC0180
:100430001482158216821782108211821282138210
:1004400017861686998388838A819B81092E000CE2
:10045000AA0BBB0B80879187A287B38781E090E0CE
:10046000958784871F82DF91CF911F910F91089507
:10047000CF93DF93FC012081211117C0615058F008
:10048000262F30E0F901EB5FFD4F6081F901EA5F53
:10049000FE4F208102C02AEA6AEAEC0169832A83BE
:1004A0008AEA93E00E948C096A818AEA93E0DF91EC
:1004B000CF910C948C090F931F93CF93DF93EC0192
:1004C000972F888181111DC0062F172FF8012191C8
:1004D0008F012223E9F0215030E0F901EB5FFD4F5D
:1004E0006081F901EA5FFE4F808169838A838AEA2D
:1004F00093E00E948C096A818AEA93E00E948C0949
:10050000E5CF862FDF91CF911F910F910C94750A43
:10051000DF91CF911F910F910895EF92FF920F936A
:100520001F93CF93DF93CDB7DEB72A970FB6F8941A
:10053000DEBF0FBECDBF7C01072E000C880B990BD0
:100540000E948F158E010F5F1F4F20E041E00E9437
:100550001E11B801C7010E945B022A960FB6F894DB
:10056000DEBF0FBECDBFDF91CF911F910F91FF90E6
:10057000EF9008950F931F93CF93DF93EC018A01BF
:100580000E945B02B801CE010E948D0264E873E014
:10059000CE01DF91CF911F910F910C945B020F93CD
:1005A0001F93CF93DF93EC010A811B816CE273E010
:1005B000C8010E945B0264E873E0C8010E945B020C
:1005C0004EA15FA168E373E08A819B810E94BA0219
:1005D00048A559A56BE373E08A819B810E94BA020A
:1005E0004AA55BA56EE373E08A819B810E94BA02F3
:1005F0004CA55DA561E473E08A819B810E94BA02EB
:100600004EA55FA564E473E08A819B810E94BA02D3
:1006100048A959A967E473E08A819B810E94BA02C4
:100620004AA95BA96AE473E08A819B810E94BA02AD
:100630004CA95DA96DE473E08A819B81DF91CF9124
:100640001F910F910C94BA020F931F93FC018FB767
:10065000F8944091A6035091A7036091A80370916C
:10066000A9038FBF848595850197C9F40081118105
:100670002281338184819581A681B781840F951F62
:10068000A61FB71F401751076207730720F0801B92
:10069000910BA20BB30B84839583A683B78340830E
:1006A00051836283738380859185A285B38500978A
:1006B000A105B10589F04481558166817781841750
:1006C0009507A607B70750F481E090E097878687E3
:1006D0001482158216821782158614861F910F9137
:1006E0000895CF92DF92EF92FF920F931F93CF93D3
:1006F0008C016C0184E0C80ED11CD8011296ED91DA
:10070000FC9113978081882331F08AEA93E00E945C
:10071000150A7C0109C08AEA93E00E94150A97FD38
:1007200001967C01F594E794D8011296ED91FC9125
:1007300013978081882329F08AEA93E00E94D909DF
:1007400047C58AEA93E00E94D909C82F8AEA93E054
:100750000E94D909CA3A91F58A3A09F43EC3893A06
:1007600009F43DC3863A09F43CC3853A09F43BC316
:100770008A3909F43AC3893909F439C3863909F445
:1007800038C3853909F437C38A3609F436C3893644
:1007900009F435C3863609F434C3853609F433C306
:1007A0008A3509F432C3893509F431C3863509F431
:1007B00030C3853509F02FC38FE00AC5C93A91F5DA
:1007C0008A3A09F42AC3893A09F429C3863A09F412
:1007D00028C3853A09F427C38A3909F426C389391D
:1007E00009F425C3863909F424C3853909F423C3E0
:1007F0008A3609F422C3893609F421C3863609F4FE
:1008000020C3853609F41FC38A3509F41EC3893510
:1008100009F41DC3863509F41CC3853509F01BC3D3
:100820008FE1D6C4C63A91F58A3A09F416C3893ADB
:1008300009F415C3863A09F414C3853A09F413C3BD
:100840008A3909F412C3893909F411C3863909F4C4
:1008500010C3853909F40FC38A3609F40EC38936EB
:1008600009F40DC3863609F40CC3853609F40BC3AD
:100870008A3509F40AC3893509F409C3863509F4B0
:1008800008C3853509F007C38FE2A2C4C53A91F5C4
:100890008A3A09F402C3893A09F401C3863A09F491
:1008A00000C3853A09F4FFC28A3909F4FEC28939C6
:1008B00009F4FDC2863909F4FCC2853909F4FBC28A
:1008C0008A3609F4FAC2893609F4F9C2863609F47F
:1008D000F8C2853609F4F7C28A3509F4F6C28935BB
:1008E00009F4F5C2863509F4F4C2853509F0F3C27E
:1008F0008FE36EC4CA3991F58A3A09F4EEC2893A97
:1009000009F4EDC2863A09F4ECC2853A09F4EBC267
:100910008A3909F4EAC2893909F4E9C2863909F445
:10092000E8C2853909F4E7C28A3609F4E6C2893695
:1009300009F4E5C2863609F4E4C2853609F4E3C257
:100940008A3509F4E2C2893509F4E1C2863509F431
:10095000E0C2853509F0DFC28FE43AC4C93991F5A8
:100960008A3A09F4DAC2893A09F4D9C2863A09F412
:10097000D8C2853A09F4D7C28A3909F4D6C289396E
:1009800009F4D5C2863909F4D4C2853909F4D3C231
:100990008A3609F4D2C2893609F4D1C2863609F4FE
:1009A000D0C2853609F4CFC28A3509F4CEC2893562
:1009B00009F4CDC2863509F4CCC2853509F0CBC225
:1009C0008FE506C4C63991F58A3A09F4C6C2893A58
:1009D00009F4C5C2863A09F4C4C2853A09F4C3C20F
:1009E0008A3909F4C2C2893909F4C1C2863909F4C5
:1009F000C0C2853909F4BFC28A3609F4BEC289363D
:100A000009F4E6C3863609F4BAC2853609F4B9C2D8
:100A10008A3509F4B8C2893509F4B7C2863509F4B4
:100A2000B6C2853509F0B5C28FE6D2C3C53991F596
:100A30008A3A09F4B0C2893A09F4AFC2863A09F495
:100A4000AEC2853A09F4ADC28A3909F4ACC289391B
:100A500009F4ABC2863909F4AAC2853909F4A9C2DE
:100A60008A3609F4A8C2893609F4A7C2863609F481
:100A7000A6C2853609F4A5C28A3509F4A4C289350F
:100A800009F4A3C2863509F4A2C2853509F0A1C2D2
:100A90008FE79EC3CA3691F58A3A09F49CC2893A17
:100AA00009F49BC2863A09F49AC2853A09F499C2BC
:100AB0008A3909F498C2893909F497C2863909F448
:100AC00096C2853909F495C28A3609F494C28936EA
:100AD00009F493C2863609F492C2853609F491C2AC
:100AE0008A3509F490C2893509F48FC2863509F434
:100AF0008EC2853509F08DC28FE86AC3C93691F57B
:100B00008A3A09F488C2893A09F487C2863A09F414
:100B100086C2853A09F485C28A3909F484C28939C2
:100B200009F483C2863909F453C3853909F47FC2B5
:100B30008A3609F47EC2893609F47DC2863609F404
:100B40007CC2853609F47BC28A3509F47AC28935BC
:100B500009F479C2863509F478C2853509F077C27F
:100B60008FE936C3C63691F58A3A09F472C2893ADA
:100B700009F471C2863A09F470C2853A09F46FC269
:100B80008A3909F46EC2893909F46DC2863909F4CB
:100B90006CC2853909F46BC28A3609F46AC2893697
:100BA00009F469C2863609F468C2853609F467C259
:100BB0008A3509F466C2893509F465C2863509F4B7
:100BC00064C2853509F063C28FEA02C3C53691F568
:100BD0008A3A09F45EC2893A09F45DC2863A09F498
:100BE0005CC2853A09F45BC28A3909F45AC2893970
:100BF00009F459C2863909F458C2853909F457C233
:100C00008A3609F456C2893609F455C2863609F483
:100C100054C2853609F453C28A3509F452C2893563
:100C200009F451C2863509F450C2853509F04FC226
:100C30008FEBCEC2CA3591F58A3A09F44AC2893A95
:100C400009F449C2863A09F448C2853A09F447C210
:100C50008A3909F446C2893909F445C2863909F44A
:100C600044C2853909F443C28A3609F442C289363E
:100C700009F441C2863609F440C2853609F43FC200
:100C80008A3509F43EC2893509F43DC2863509F436
:100C90003CC2853509F03BC28FEC9AC2C93591F54B
:100CA0008A3A09F436C2893A09F435C2863A09F417
:100CB00034C2853A09F433C28A3909F432C2893917
:100CC00009F431C2863909F430C2853909F42FC2DA
:100CD0008A3609F42EC2893609F42DC2863609F403
:100CE0002CC2853609F42BC28A3509F42AC289350B
:100CF00009F429C2863509F428C2853509F027C2CE
:100D00008FED66C2C63591F58A3A09F422C2893A56
:100D100009F421C2863A09F420C2853A09F41FC2B7
:100D20008A3909F41EC2893909F41DC2863909F4C9
:100D30001CC2853909F41BC28A3609F41AC28936E5
:100D400009F419C2863609F418C2853609F417C2A7
:100D50008A3509F416C2893509F415C2863509F4B5
:100D600014C2853509F013C28FEE32C2C53509F0C1
:100D700010C28A3A09F40FC2893A09F40EC2863ABF
:100D800009F40DC2853A09F40CC28A3909F40BC280
:100D9000893909F40AC2863909F409C2853909F486
:100DA00008C28A3609F407C2893609F406C28636B3
:100DB00009F405C2853609F404C28A3509F403C270
:100DC000893509F402C2863509F401C291E08535FE
:100DD00009F090E0892F8195FBC180E0F9C181E0A5
:100DE000F7C182E0F5C183E0F3C184E0F1C185E0A1
:100DF000EFC186E0EDC187E0EBC188E0E9C189E0A1
:100E0000E7C18AE0E5C18BE0E3C18CE0E1C18DE0A0
:100E1000DFC18EE0DDC180E0DBC180E1D9C181E1CD
:100E2000D7C182E1D5C183E1D3C184E1D1C185E1DC
:100E3000CFC186E1CDC187E1CBC188E1C9C189E1DC
:100E4000C7C18AE1C5C18BE1C3C18CE1C1C18DE1DC
:100E5000BFC18EE1BDC180E0BBC180E2B9C181E20A
:100E6000B7C182E2B5C183E2B3C184E2B1C185E218
:100E7000AFC186E2ADC187E2ABC188E2A9C189E218
:100E8000A7C18AE2A5C18BE2A3C18CE2A1C18DE218
:100E90009FC18EE29DC180E09BC180E399C181E347
:100EA00097C182E395C183E393C184E391C185E354
:100EB0008FC186E38DC187E38BC188E389C189E354
:100EC00087C18AE385C18BE383C18CE381C18DE354
:100ED0007FC18EE37DC180E07BC180E479C181E484
:100EE00077C182E475C183E473C184E471C185E490
:100EF0006FC186E46DC187E46BC188E469C189E490
:100F000067C18AE465C18BE463C18CE461C18DE48F
:100F10005FC18EE45DC180E05BC180E559C181E5C0
:100F200057C182E555C183E553C184E551C185E5CB
:100F30004FC186E54DC187E54BC188E549C189E5CB
:100F400047C18AE545C18BE543C18CE541C18DE5CB
:100F50003FC18EE53DC180E03BC180E639C181E6FD
:100F600037C182E635C183E633C184E631C185E607
:100F70002FC186E62DC187E62BC188E629C18AE606
:100F800027C18BE625C18CE623C18DE621C18EE603
:100F90001FC180E01DC180E71BC181E719C182E745
:100FA00017C183E715C184E713C185E711C186E73F
:100FB0000FC187E70DC188E70BC189E709C18AE73F
:100FC00007C18BE705C18CE703C18DE701C18EE73F
:100FD000FFC080E0FDC080E8FBC081E8F9C082E886
:100FE000F7C083E8F5C084E8F3C085E8F1C086E87F
:100FF000EFC087E8EDC088E8EBC089E8E9C08AE87F
:10100000E7C08BE8E5C08CE8E3C08DE8E1C08EE87E
:10101000DFC080E0DDC080E9DBC081E9D9C082E9C2
:10102000D7C083E9D5C084E9D3C085E9D1C087E9B9
:10103000CFC088E9CDC089E9CBC08AE9C9C08BE9B6
:10104000C7C08CE9C5C08DE9C3C08EE9C1C080E0CE
:10105000BFC080EABDC081EABBC082EAB9C083EAF2
:10106000B7C084EAB5C085EAB3C086EAB1C087EAF2
:10107000AFC088EAADC089EAABC08AEAA9C08BEAF2
:10108000A7C08CEAA5C08DEAA3C08EEAA1C080E00B
:101090009FC080EB9DC081EB9BC082EB99C083EB2E
:1010A00097C084EB95C085EB93C086EB91C087EB2E
:1010B0008FC088EB8DC089EB8BC08AEB89C08BEB2E
:1010C00087C08CEB85C08DEB83C08EEB81C080E048
:1010D0007FC080EC7DC081EC7BC082EC79C083EC6A
:1010E00077C084EC75C085EC73C086EC71C087EC6A
:1010F0006FC088EC6DC089EC6BC08AEC69C08BEC6A
:1011000067C08CEC65C08DEC63C08EEC61C080E084
:101110005FC080ED5DC081ED5BC082ED59C083EDA5
:1011200057C084ED55C085ED53C086ED51C087EDA5
:101130004FC088ED4DC089ED4BC08AED49C08BEDA5
:1011400047C08CED45C08DED43C08EED41C080E0C1
:101150003FC080EE3DC081EE3BC082EE39C083EEE1
:1011600037C084EE35C085EE33C086EE31C087EEE1
:101170002FC088EE2DC089EE2BC08AEE29C08BEEE1
:1011800027C08CEE25C08DEE23C08EEE21C080E0FE
:101190001FC080E01DC080EF1BC081EF19C082EF2F
:1011A00017C083EF15C084EF13C085EF11C086EF21
:1011B0000FC087EF0DC088EF0BC089EF09C08AEF21
:1011C00007C08BEF05C08CEF03C08DEF01C08EEF21
:1011D000C82F8F3771F08F3F09F46AC08D30D1F579
:1011E000C8010E94800CF80114A2C6010E941E0EC4
:1011F0005FC060E573E0D80112968D919C911397C2
:101200000E945B02C0E0F80124A182819381C21791
:1012100030F46EE473E00E945B02CF5FF4CF60E5D0
:1012200073E00E945B02D80194968C919497882376
:1012300019F0815094968C93F80184A1E80FF11D68
:101240001482B601D80112968D919C9113970E9439
:101250005B022EC080EE8C0F8F3550F5F80187A908
:10126000882329F06C2F828193810E94380283EDBC
:101270008C0F8D3068F0D80194968C91823040F0BC
:10128000C8010E94800CF80114A2C6010E941E0E23
:10129000D80194968C91F801E80FF11DC4838F5FFB
:1012A000803208F08FE1F80184A3E80FF11D148269
:1012B0001E141F040CF421CACF911F910F91FF90AF
:1012C000EF90DF90CF900895CF92DF92EF92FF9250
:1012D0000F931F93CF93DF936C01EB017B01E40E1F
:1012E000F51E00E010E0CE15DF0561F06991D60132
:1012F000ED91FC910190F081E02DC6010995080F58
:10130000191FF1CFC801DF91CF911F910F91FF906D
:10131000EF90DF90CF9008950F931F93CF93DF93BB
:10132000FC01A685B7858D01005C1F4FE80188810F
:10133000998101968F739927AD014E5B5F4FEA014A
:101340002881398128173907D1F3E80128813981AB
:10135000A20FB31F6C93A685B785A05CBF4F1196F3
:101360009C938E93A689B7892C9181E090E0078C9D
:1013700002C0880F991F0A94E2F7822B8C9381E0B8
:1013800081A30488F589E02D80818064808381E0D9
:1013900090E0DF91CF911F910F910895FC0181A101
:1013A000882329F0A489B5898C9186FFFBCF11A2EF
:1013B0000895FC01A485B585FD01E05CFF4F208107
:1013C00031813296808191812817390779F08081A7
:1013D0009181A80FB91F8C91208131812F5F3F4FE0
:1013E0002F7333273183208390E008958FEF9FEF91
:1013F0000895DC011C96ED91FC911D97DF01A05C26
:10140000BF4F2D913C91119712968D919C91119700
:101410002817390739F08D919C91E80FF91F8081C9
:1014200090E008958FEF9FEF0895FC0124853585A6
:10143000F901E05CFF4F80819181329620813181FA
:10144000821B930B8F739927089508951F93CF9351
:10145000DF93EC01162FCA010E943E111EAB412FF3
:10146000110F550B660B770BFA01E256F109E831C3
:10147000F105D8F4EC5CFF4F0C9488169FA38EA363
:1014800014C099A788A711C09BA78AA70EC09DA7C3
:101490008CA70BC09FA78EA708C099AB88AB05C0CF
:1014A0009BAB8AAB02C09DAB8CABDF91CF911F9100
:1014B0000895CF93DF93EC0180E69AEEA0E0B0E0D0
:1014C000888B998BAA8BBB8B81E090E09D8B8C8B5A
:1014D000CE0108960E9424031C861D861E861F8648
:1014E0001F8A1E8ADF91CF910895009769F0FC0151
:1014F00001900020E9F73197AF01481B590BBC015F
:101500008AEA93E00C94640980E090E008951F92C9
:101510000F920FB60F9211242F933F938F939F93A7
:10152000EF93FF9320914A0430914B0480914C0437
:1015300090914D042817390731F48091C1008F7DB7
:101540008093C10014C0E0914C04F0914D04E65F1B
:10155000FB4F208180914C0490914D0401968F7334
:10156000992790934D0480934C042093C600FF91DB
:10157000EF919F918F913F912F910F900FBE0F9000
:101580001F9018951F920F920FB60F9211242F9350
:101590004F935F938F939F93EF93FF938091C0003E
:1015A00082FD1CC02091C60080918E0490918F0412
:1015B000409190045091910401968F739927481798
:1015C000590771F0E0918E04F0918F04E25BFB4FBC
:1015D000208390938F0480938E0402C08091C60074
:1015E000FF91EF919F918F915F914F912F910F906C
:1015F0000FBE0F901F90189590E0FC01E253FE4F34
:101600002491FC01E654FE4F3491FC01EA55FE4F53
:10161000E491EE2309F43CC0222339F1233091F008
:1016200038F42130A9F0223001F584B58F7D12C045
:10163000263091F02730A1F02430B9F48091800059
:101640008F7D03C0809180008F77809380000DC0D4
:1016500084B58F7784BD09C08091B0008F7703C0B7
:101660008091B0008F7D8093B000F0E0EE0FFF1FFF
:10167000E456FE4FA591B4919FB7F894611104C050
:101680008C913095382302C0EC913E2B3C939FBF48
:101690000895CF93DF9390E0FC01E654FE4F249130
:1016A000FC01EA55FE4F8491882361F190E0880F98
:1016B000991FFC01EE56FE4FC591D491FC01E456F2
:1016C000FE4FA591B491611109C09FB7F89488812C
:1016D000209582238883EC912E230BC0623061F425
:1016E0009FB7F8948881322F309583238883EC91BB
:1016F0002E2B2C939FBF06C08FB7F894E8812E2B1A
:1017000028838FBFDF91CF9108951F93CF93DF93ED
:10171000182FEB0161E00E94490B209711F460E063
:1017200004C0CF3FD10539F461E0812FDF91CF9123
:101730001F910C94FC0AE12FF0E0E253FE4FE4917C
:10174000E330F9F048F4E130B9F0E230A1F584B5C6
:10175000806284BDC8BD34C0E630E9F0E73019F1DD
:10176000E43049F580918000806280938000D093BE
:101770008B00C0938A0024C084B5806884BDC7BD37
:101780001FC080918000806880938000D093890082
:10179000C093880015C08091B00080688093B0002D
:1017A000C093B3000DC08091B00080628093B00000
:1017B000C093B40005C0C038D1050CF0B5CFAFCF91
:1017C000DF91CF911F9108951F920F920FB60F9244
:1017D00011242F933F938F939F93AF93BF93809147
:1017E000A6039091A703A091A803B091A9033091FB
:1017F000090423E0230F2D3720F40196A11DB11D0C
:1018000005C026E8230F0296A11DB11D20930904EF
:101810008093A6039093A703A093A803B093A90372
:101820008091A2039091A303A091A403B091A5037A
:101830000196A11DB11D8093A2039093A303A093D1
:10184000A403B093A503BF91AF919F918F913F9156
:101850002F910F900FBE0F901F901895CF93DF938D
:10186000EC0187E480937C0080917A00806480930F
:101870007A0080917A0086FDFCCF6091780080919B
:10188000790070E0782B072E000C880B990B0E94D2
:101890008F152DEC3CEC4CEE50E40E941B1620E022
:1018A00030EC4FE754E40E941B156C837D838E83DC
:1018B0009F83DF91CF9108950F931F93CF93DF9371
:1018C0008C01085F1F4FFC012689378921303105C3
:1018D00081F4EC01178A168A358B248B0E942E0C1A
:1018E000C8010E9424031C861D861E861F861F8A2F
:1018F0001E8AC801DF91CF911F910F910C94240390
:101900007F928F929F92AF92BF92CF92DF92EF928F
:10191000FF920F931F93CF93DF93CDB7DEB7E69778
:101920000FB6F894DEBF0FBECDBF7C01FC0184A1D1
:10193000882309F44AC1CE0101960E941E0EF701C8
:1019400015A26701F4E0CF0ED11C80E090E060E0CA
:1019500000E0460177247394F60111916F01112381
:1019600009F405C1163509F4A3C00CF51A3374F453
:1019700010330CF0BDC0103209F4F7C00CF4C1C034
:1019800023ED210F223008F4B3C0BBC01D3409F48D
:101990003FC034F4123409F49BC0173449F1B1C08C
:1019A000133509F445C0153509F472C0AAC01D36B7
:1019B00079F174F4193509F45BC024F4183509F48D
:1019C00047C09FC0123609F483C0173689F099C00A
:1019D000163709F46DC034F4133751F1153709F493
:1019E00057C08FC01837A1F1193709F441C089C019
:1019F000662331F0AE014F5F5F4FC7010E94260A98
:101A0000CE0101960E941E0E80E090E067E6ADC018
:101A1000662331F0AE014F5F5F4FC7010E94260A77
:101A2000CE0101960E941E0E80E090E06DE69DC002
:101A3000662331F0AE014F5F5F4FC7010E94260A57
:101A4000CE0101960E941E0E80E090E063E78DC0FB
:101A5000662331F0AE014F5F5F4FC7010E94260A37
:101A6000CE0101960E941E0E80E090E068E77DC0E6
:101A7000662331F0AE014F5F5F4FC7010E94260A17
:101A8000CE0101960E941E0E80E090E069E76DC0D5
:101A9000662331F0AE014F5F5F4FC7010E94260AF7
:101AA000CE0101960E941E0E80E090E065E75DC0C9
:101AB000662331F0AE014F5F5F4FC7010E94260AD7
:101AC000CE0101960E941E0E80E090E066E74DC0B8
:101AD000662331F0AE014F5F5F4FC7010E94260AB7
:101AE000CE0101960E941E0E80E090E062E63DC0AD
:101AF000E1E0F0E0EC0FFD1FE80FF91F1083019605
:101B000034C0F70175A262E573E0828193810E947F
:101B10005B02612FF701828193810E943802F701F5
:101B2000A280B380802F90E09EAB8DAB60E673E027
:101B3000C5010E945B028DA99EA94AE0BE016F5DAE
:101B40007F4F0E946711BE016F5D7F4FC5010E94EC
:101B50005B0264E873E0C5010E945B02CE0101965E
:101B60000E941E0E80E090E060E00F5FF5CE6623DD
:101B700031F0AE014F5F5F4FC7010E94260AF701A7
:101B800085A1882361F1B401828193810E945B0267
:101B900069E673E0F701828193810E945B02F7019D
:101BA00064A170E0828193810E948D026BE673E0F4
:101BB000F701828193810E945B026DE673E0F70179
:101BC000828193810E945B020AC063E873E0F7019F
:101BD000828193810E945B02C7010E94CF02E69638
:101BE0000FB6F894DEBF0FBECDBFDF91CF911F912E
:101BF0000F91FF90EF90DF90CF90BF90AF909F90AC
:101C00008F907F900895089560E070E089E00E94D1
:101C1000850B60E070E08AE00E94850B60E082E066
:101C20000E94FC0A60E084E00E94FC0A60E087E019
:101C30000E94FC0A60E088E00C94FC0A20E2FC01AF
:101C400011922A95E9F7089504960C941E0E0F93AD
:101C50001F93CF93DF93EAEAF3E01382128288EEB8
:101C600093E0A0E0B0E084839583A683B78388E007
:101C700093E0918380838EE494E0958784878AE063
:101C800094E09787868785EC90E0918B808B84EC3D
:101C900090E0938B828B80EC90E0958B848B81EC31
:101CA00090E0978B868B82EC90E0918F808F86EC12
:101CB00090E0938F828F84E0848F83E0858F87E02C
:101CC000868F85E0878F81E080A3E9EFF3E01482BF
:101CD0001582168217821586148610861186128642
:101CE000138610821182128213821786168683E071
:101CF00090E00E94FA138C01FC0110829093F8038B
:101D00008093F703EFEDF3E09383828388E293E01F
:101D10009183808314821582168217821486158619
:101D200016861786158A148A108A118A128A138ACF
:101D30001086118612861386178A168ACF010E9492
:101D4000590A88E390E00E94FA13EC011B830A838E
:101D500088E193E0998388831CA2CE0104960E94B7
:101D60001E0E80E293E0998388831FA21EA219A60B
:101D700018A61BA61AA61DA61CA61FA61EA619AA53
:101D800018AA1BAA1AAA1DAA1CAACE010E941C01ED
:101D9000D093DE03C093DD03EDECF3E011821082FB
:101DA000138212821582148217821682118610867F
:101DB0001386128615861486178616861092CC0313
:101DC000DF91CF911F910F910895CF93DF93CDB7FE
:101DD000DEB72A970FB6F894DEBF0FBECDBF78945A
:101DE00084B5826084BD84B5816084BD85B5826020
:101DF00085BD85B5816085BD80916E0081608093D1
:101E00006E00109281008091810082608093810039
:101E10008091810081608093810080918000816049
:101E2000809380008091B10084608093B1008091A4
:101E3000B00081608093B00080917A0084608093CC
:101E40007A0080917A00826080937A0080917A0093
:101E5000816080937A0080917A00806880937A0014
:101E60001092C10060E085E10E94490B61E089E0C9
:101E70000E94490B61E08AE00E94490B61E082E028
:101E80000E94490B61E084E00E94490B61E087E019
:101E90000E94490B61E088E00E94490B6CE070E011
:101EA0008BE994E00E9401026BE070E083E994E02A
:101EB0000E9401020E94040EE091BE03F091BF0354
:101EC00001E010E0C8010090CA0302C0880F991F0A
:101ED0000A94E2F78083E091BA03F091BB03108289
:101EE000E091BC03F091BD038FEC80831092CB0393
:101EF000E091C003F091C1032081C8010090C603A6
:101F000002C0880F991F0A94E2F7822B8083E09128
:101F1000C003F091C1032081C8010090C70302C033
:101F2000880F991F0A94E2F7822B8083E091C00307
:101F3000F091C1032081C8010090C80302C0880F3E
:101F4000991F0A94E2F7822B8083E091C003F091FD
:101F5000C103908198010090C90302C0220F331F72
:101F60000A94E2F7822F809589238083E091F7031A
:101F7000F091F80381E0808386E893E00E94750A7F
:101F800061E08DE00E94490B84EF91E0A0E0B0E0B9
:101F90008093010490930204A0930304B09304047B
:101FA00010930604009305048FED93E00E942E0C1D
:101FB0008AEA93E00E94CE098091DD039091DE03CE
:101FC0000E94CF02E091DD03F091DE0317AA69E9D8
:101FD00073E08091F7039091F8030E945B0284EF15
:101FE000482E55245394612C712C88248394912C71
:101FF00025E3E22E22E0F22E30E1C32E34E0D32E90
:102000008091CC03882311F061E001C060E08DE095
:102010000E94FC0A80910704909108048130910588
:1020200011F510920804109207049093060480930F
:1020300005048091CC03811104C081E08093CC031E
:1020400002C01092CC0389EF93E00E942403109207
:10205000FD031092FE031092FF03109200041092F1
:1020600008041092070489EF93E00E9424038FED87
:1020700093E00E945C0C80919204813069F48AEFB5
:1020800090E0A0E0B0E08093010490930204A0935C
:102090000304B093040408C0409201045092020467
:1020A00060920304709204049092060480920504E6
:1020B0008091DD039091DE03DC01ED91FC910280C3
:1020C000F381E02D0995E091DD03F091DE0380E1DD
:1020D000B696ADECB3E001900D928A95E1F78BE9ED
:1020E00094E00E94940183E994E00E949401E091BD
:1020F000DD03F091DE0386A9823641F56FE973E0D6
:102100008091F7039091F8030E945B028FED93E0BA
:102110000E942E0CA090E103B090E2036091E303D3
:102120007091E4038091E5039091E6038E010F5FC7
:102130001F4F23E044E00E941E11B801C5010E9418
:102140005B02E091DD03F091DE0316AA8091CF03DC
:102150009091D003089749F4D0929E04C0929D04B8
:10216000F0929604E092950408C0F0929E04E092EA
:102170009D04D0929604C09295048091D7039091CB
:10218000D803892B59F48091D9039091DA03892BD4
:1021900029F4109292040E94040E03C081E08093FF
:1021A00092048091D7039091D803181619066CF405
:1021B00061E082E00E94FC0A60E084E00E94FC0A88
:1021C0006091D7037091D8030FC060E082E00E9455
:1021D000FC0A61E084E00E94FC0A6091D7037091E0
:1021E000D80371956195710989E00E94850B8091F2
:1021F000D9039091DA03181619066CF461E087E0B0
:102200000E94FC0A60E088E00E94FC0A6091D90309
:102210007091DA030FC060E087E00E94FC0A61E081
:1022200088E00E94FC0A6091D9037091DA037195ED
:10223000619571098AE00E94850BE2CEEF920F93BF
:102240001F93CF93DF93E80147FD02C034E001C044
:1022500034E1042E000C550B57FF03C051954195F6
:102260005109E32E022F242FAE010E948111CE01CD
:10227000DF91CF911F910F91EF900895FC01882776
:102280009927E89421912032E9F3293010F02E307B
:10229000C8F32B3241F02D3239F4689404C00E9407
:1022A0005F11820F911D219120532A30C0F31EF43B
:1022B000909581959F4F0895F8940C948E167AE02E
:1022C000979F902D879F802D910D11240895BB27F6
:1022D000FB015527AA27880F991FAA1FA41710F0E2
:1022E000A41B83955051B9F7A05DAA3308F0A95DEE
:1022F000A193009779F7B111B1931192CB010C948E
:10230000B313A9E0B0E0E7E8F1E10C94C9136A0166
:10231000122FB02E2BE3201720F0FF24F394F00EA1
:1023200002C02CE3F22E0F2D27E0AE014F5F5F4F6E
:102330000E94DB12BC014981842F8970813031F009
:10234000E1FC06C0E0FE06C090E205C09DE203C0CD
:102350009BE201C090E05E2D507143FF3CC09111A3
:1023600002C083E001C084E0811718F4212F281BEC
:1023700001C020E051110BC0F601822F30E288230A
:1023800019F031938150FBCFC20ED11C20E099236C
:1023900029F0D6019C93F60131966F01C601039690
:1023A000E2FE0AC03EE4D6013C9341E411964C9310
:1023B000119712963C9306C03EE6F601308341E643
:1023C00041833283FC01322F40E2332309F442C0BF
:1023D00041933150FACF42FF44C0911102C083E0D3
:1023E00001C084E0811718F4212F281B01C020E0D0
:1023F00051110BC0F601822F30E2882319F031937E
:102400008150FBCFC20ED11C20E0992329F0D601C8
:102410009C93F60131966F01C6010396E2FE0BC054
:1024200039E4D6013C933EE411963C93119736E48F
:1024300012963C9307C039E6F60130833EE63183BD
:1024400036E63283FC01322F40E2332319F0419308
:102450003150FBCFFC01E20FF11D10828EEF9FEF98
:10246000A6C021E030E0911102C020E030E0161655
:1024700017061CF4FB01319602C0E1E0F0E02E0FDC
:102480003F1FBB2021F0EB2DF0E0319602C0E0E0D1
:10249000F0E02E0F3F1FE12FF0E02E173F071CF456
:1024A000121B212F01C020E08E2D887159F4F601F6
:1024B000822F30E2882319F031938150FBCFC20E76
:1024C000D11C20E0992329F0D6019C93F601319686
:1024D0006F0151110BC0F601822F90E3882319F090
:1024E00091938150FBCFC20ED11C20E00F2D060F1F
:1024F0009A81342F307144FF03C0913309F40150A5
:10250000101624F4093018F008E001C001E0AB0116
:1025100077FF02C040E050E0FB01E41BF50BA1E0B7
:10252000B0E0AC0FBD1FEA0FFB1F8EE2A82E4B01DF
:10253000801A91080B2D10E01195019511094F3F5C
:10254000BFEF5B0721F4D601AC9211966D016417C1
:1025500075072CF08416950614F4818101C080E380
:10256000415051093196D60111967D01401751070E
:1025700024F0D6018C936701E2CF6417750739F414
:10258000963320F4953319F4311101C081E3F6013B
:102590008083F701822F90E2882319F09193815074
:1025A000FBCFF701E20FF11D108280E090E0299649
:1025B000ECE00C94E513283008F027E03327DA012B
:1025C000990F311D87FD916000966105710539F401
:1025D00032602E5F3D9330E32A95E1F708959F3FE7
:1025E00030F080387105610509F03C5F3C5F3D9338
:1025F000913008F08068911DDF93CF931F930F9364
:10260000FF92EF92192F987F9695E92F96959695C0
:10261000E90FFF27EE50FF4F99273327EE24FF24C1
:10262000A701E70105900894079428F4360FE71EE8
:10263000F81E491F511D660F771F881F991F0694AA
:10264000A1F70590079428F4E70EF81E491F561FBE
:10265000C11D770F881F991F661F0694A1F705906B
:10266000079428F4F80E491F561FC71FD11D880F65
:10267000991F661F771F0694A1F70590079420F411
:10268000490F561FC71FD81F990F661F771F881F36
:102690000694A9F784911095177041F0D695C795C7
:1026A00057954795F794E7941A95C1F7E8E9F0E054
:1026B00068941590159135916591959105907FE2FB
:1026C0007395E118F10A430B560BC90BD009C0F7FB
:1026D000E10CF11E431F561FC91FD01D7EF470333D
:1026E00011F48A95E6CFE894015030F0080F0AF40F
:1026F0000027021708F4202F2395022F7A3328F0A1
:1027000079E37D932A95E9F710C07D932A9589F6A0
:10271000069497956795379517951794E118F10AE0
:10272000430B560BC90BD00998F023957E917395F6
:102730007A3308F070E37C932013B8F77E917061D0
:102740007D9330F0839571E37D9370E32A95E1F7F3
:102750001124EF90FF900F911F91CF91DF91992756
:1027600087FD90950895DC01FC01672F7191772317
:10277000E1F7329704C07C916D9370836291AE173C
:10278000BF07C8F308952F923F924F925F926F92C6
:102790007F928F929F92AF92BF92CF92DF92EF92F1
:1027A000FF920F931F93CF93DF93CDB7DEB7CA1B72
:1027B000DB0B0FB6F894DEBF0FBECDBF09942A889D
:1027C000398848885F846E847D848C849B84AA8445
:1027D000B984C884DF80EE80FD800C811B81AA81D2
:1027E000B981CE0FD11D0FB6F894DEBF0FBECDBF9D
:1027F000ED0108950F931F93CF93DF9382309105DE
:1028000010F482E090E0E091A504F091A60420E0AD
:1028100030E0A0E0B0E0309719F1408151810281B1
:10282000138148175907C8F08417950769F4109762
:1028300031F012960C93129713961C9327C00093B5
:10284000A5041093A60422C02115310519F04217E2
:10285000530718F49A01BD01EF01DF01F801DBCF46
:1028600021153105F9F0281B390B2430310580F48E
:102870008A819B816115710521F0FB01938382831D
:1028800004C09093A6048093A504FE01329644C030
:10289000FE01E20FF31F8193919322503109398396
:1028A00028833AC02091A3043091A404232B41F43F
:1028B00020910201309103013093A4042093A304DA
:1028C00020910001309101012115310541F42DB70E
:1028D0003EB74091040150910501241B350BE09156
:1028E000A304F091A404E217F307A0F42E1B3F0BFE
:1028F0002817390778F0AC014E5F5F4F2417350772
:1029000048F04E0F5F1F5093A4044093A30481939B
:10291000919302C0E0E0F0E0CF01DF91CF911F91F1
:102920000F910895CF93DF93009709F481C0FC01C4
:10293000329713821282A091A504B091A604109739
:1029400081F420813181820F931F2091A304309163
:10295000A4042817390751F5F093A404E093A304C5
:1029600067C0ED0120E030E0CE17DF0740F44A8178
:102970005B819E0141155105F1F0EA01F5CFD3834A
:10298000C28340815181840F951FC817D90759F41C
:1029900088819981840F951F0296918380838A8113
:1029A0009B81938382832115310529F4F093A6043A
:1029B000E093A5043DC0E901FB83EA834991599165
:1029C000C40FD51FEC17FD0761F480819181840F3E
:1029D000951F0296E90199838883828193819B8365
:1029E0008A83E0E0F0E012968D919C911397009716
:1029F00019F0FD01DC01F7CF8D919C9111979D019C
:102A00002E5F3F4F820F931F2091A3043091A404A7
:102A10002817390769F4309729F41092A604109208
:102A2000A50402C013821282B093A404A093A3044D
:102A3000DF91CF9108950E942F150C94E1150E940B
:102A4000DA1558F00E94D31540F029F45F3F29F0C1
:102A50000C94CA1551110C9415160C94D0150E94A3
:102A6000F21568F39923B1F3552391F3951B550B98
:102A7000BB27AA2762177307840738F09F5F5F4F51
:102A8000220F331F441FAA1FA9F335D00E2E3AF090
:102A9000E0E832D091505040E695001CCAF72BD0A8
:102AA000FE2F29D0660F771F881FBB1F26173707F9
:102AB0004807AB07B0E809F0BB0B802DBF01FF272B
:102AC00093585F4F3AF09E3F510578F00C94CA1529
:102AD0000C9415165F3FE4F3983ED4F386957795F2
:102AE0006795B795F7959F5FC9F7880F911D9695E4
:102AF000879597F90895E1E0660F771F881FBB1F40
:102B0000621773078407BA0720F0621B730B840BEC
:102B1000BA0BEE1F88F7E0950895E89409C097FB7B
:102B20003EF490958095709561957F4F8F4F9F4FA4
:102B30009923A9F0F92F96E9BB279395F6958795E8
:102B400077956795B795F111F8CFFAF4BB0F11F4AB
:102B500060FF1BC06F5F7F4F8F4F9F4F16C0882352
:102B600011F096E911C0772321F09EE8872F762F88
:102B700005C0662371F096E8862F70E060E02AF0C9
:102B80009A95660F771F881FDAF7880F96958795B5
:102B900097F9089597F99F6780E870E060E00895DD
:102BA0009FEF80EC089500240A9416161706180665
:102BB0000906089500240A94121613061406050641
:102BC0000895092E0394000C11F4882352F0BB0FD2
:102BD00040F4BF2B11F460FF04C06F5F7F4F8F4F35
:102BE0009F4F089557FD9058440F551F59F05F3F70
:102BF00071F04795880F97FB991F61F09F3F79F01F
:102C000087950895121613061406551FF2CF4695A0
:102C1000F1DF08C0161617061806991FF1CF869522
:102C20007105610508940895E894BB276627772706
:102C3000CB0197F908950E942E160C94E1150E947D
:102C4000D31538F00E94DA1520F0952311F00C947A
:102C5000CA150C94D01511240C9415160E94F21567
:102C600070F3959FC1F3950F50E0551F629FF001DF
:102C7000729FBB27F00DB11D639FAA27F00DB11DF8
:102C8000AA1F649F6627B00DA11D661F829F222781
:102C9000B00DA11D621F739FB00DA11D621F839F08
:102CA000A00D611D221F749F3327A00D611D231FDE
:102CB000849F600D211D822F762F6A2F11249F572C
:102CC00050409AF0F1F088234AF0EE0FFF1FBB1F2F
:102CD000661F771F881F91505040A9F79E3F5105EE
:102CE00080F00C94CA150C9415165F3FE4F3983EDF
:102CF000D4F3869577956795B795F795E7959F5F98
:102D0000C1F7FE2B880F911D9695879597F9089529
:102D1000EE0FFF1F0590F491E02D0994F894FFCF7A
:102D20000000A7042000A9A6A59A9996956A69664D
:102D3000655A595655AAA9A6A59A9996956A69669B
:102D4000655A595655AAA9A6A59A9996956A69668B
:102D5000655A595655AAA9A6A59A9996956A69667B
:102D6000655A595655AAA9A6A59A9996956A69666B
:102D7000655A595655AAA9A6A59A9996956A69665B
:102D8000655A595655AAA9A6A59A9996956A69664B
:102D9000655A595655AAA9A6A59A9996956A69663B
:102DA000655A595655AAA9A6A59A9996956A69662B
:102DB000655A595655AAA9A6A59A9996956A69661B
:102DC000655A595655AAA9A6A59A9996956A69660B
:102DD000655A595655AAA9A6A59A9996956A6966FB
:102DE000655A595655AAA9A6A59A9996956A6966EB
:102DF000655A595655AAA9A6A59A9996956A6966DB
:102E0000655A595655AAA9A6A59A9996956A6966CA
:102E1000655A595655AAA9A6A59A9996956A6966BA
:102E2000655A595655AAAAAAAAAAAAAAAAAAAAAA91
:102E3000AAAAAAAAA9A9A9A9A9A9A9A9A9A9A9A9FE
:102E4000A9A9A9A9A6A6A6A6A6A6A6A6A6A6A6A616
:102E5000A6A6A6A6A5A5A5A5A5A5A5A5A5A5A5A51E
:102E6000A5A5A5A59A9A9A9A9A9A9A9A9A9A9A9A96
:102E70009A9A9A9A999999999999999999999999BE
:102E800099999999969696969696969696969696D6
:102E900096969696959595959595959595959595DE
:102EA000959595956A6A6A6A6A6A6A6A6A6A6A6AD6
:102EB0006A6A6A6A6969696969696969696969697E
:102EC0006969696966666666666666666666666696
:102ED000666666666565656565656565656565659E
:102EE000656565655A5A5A5A5A5A5A5A5A5A5A5A16
:102EF0005A5A5A5A5959595959595959595959593E
:102F00005959595956565656565656565656565655
:102F1000565656565555555555555555555555555D
:102F200055555555000000008C096409150AD9094A
:102F3000F909CE0900000000240E030E0000000075
:102F40001C01710300000000590A5C0C4D4449202B
:102F50007374617475733A004720004D200053204C
:102F60000058200059200055200056200042200023
:102F70000D00556E6B6E6F776E2063686172200076
:102F800020617420636F6C2000280029003A2063C0
:102F90006F6D6D616E64206E6F7420666F756E6408
:102FA000210A000D0A00496E697469616C697A69C9
:102FB0006E67202E2E2E200A00446F6E650A004296
:022FC00000000F
:00000001FF
