:100000000C9409010C9431010C9431010C943101D0
:100010000C9431010C9431010C9431010C94310198
:100020000C9431010C9431010C9431010C94310188
:100030000C9431010C9431010C9431010C94310178
:100040000C940F110C9431010C94C70F0C948C0F6D
:100050000C9431010C9431010C9431010C94310158
:100060000C94650E0C943101C914CB14CB14CB1431
:10007000CB14B414CB14CB14CB14CB14CB14B714B3
:10008000CB14CB14CB14CB14CB14BA14CB14C31491
:10009000C614CB14BD14C014084AD73B3BCE016E26
:1000A00084BCBFFDC12F3D6C74319ABD56833DDACF
:1000B0003D00C77F11BED9E4BB4C3E916BAAAABEDE
:1000C000000000803F0000407A10F35A00A0724EFA
:1000D00018090010A5D4E80000E87648170000E4ED
:1000E0000B54020000CA9A3B000000E1F505000035
:1000F00080969800000040420F000000A08601009A
:100100000000102700000000E80300000000640069
:10011000000000000A0000000000010000000000D4
:100120002C76D888DC674F0823DFC1DFAE59E1B1F8
:10013000B796E5E3E453C63AE651997696E8E6C207
:100140008426EB898C9B62ED407C6FFCEFBC9C9F0E
:1001500040F2BAA56FA5F490055A2AF75C936B6C30
:10016000F9676DC11BFCE0E40D47FEF520E6B50024
:10017000D0ED902E0300943577050080841E080092
:1001800000204E0A000000C80C333333330F986E42
:1001900012831141EF8D2114893BE65516CFFEE6FF
:1001A000DB18D1844B381BF77C1D901DA4BBE424C5
:1001B000203284725E228100C9F124ECA1E53D2742
:1001C00000000000240027002A0000000000250095
:1001D00028002B00040404040404040402020202A4
:1001E00002020303030303030102040810204080FA
:1001F000010204081020010204081020000000077A
:1002000000020100000304060000000000000000DE
:10021000EC1A11241FBECFEFD8E0DEBFCDBF14E033
:10022000A0E0B1E0ECEAF5E402C005900D92A63141
:10023000B107D9F725E0A6E1B4E001C01D92AE3DBB
:10024000B207E1F711E0C9E0D1E004C02197FE0157
:100250000E94CE22C830D107C9F70E94FF160C9425
:10026000191C0C940000FC0117A216A211A610A6DE
:1002700013A612A615A614A617A616A611AA10AAAA
:1002800013AA12AA15AA14AA17AA08951F93CF9306
:10029000DF93EC0188E690E09D838C83FE01E15AB8
:1002A000FF4F118210821E821FA218A619A61AA63D
:1002B0001BA61CA61DA61EA61FA618AA19AA1AAA26
:1002C0001F8E18A219A21AA21BA21CA21DA21EA256
:1002D0001FAA18AE19AE1AAE1BAA1CAA1DAA1EAAE6
:1002E0001BAE1CAE1DAE1EAE10921B0410921A0463
:1002F0001092B2041092D4041092B00411E0109342
:10030000AF0410928A0461E082E10E94011061E072
:1003100083E10E940110E9EBF0E080818E7F808311
:1003200080818D7F808388E48093B80085E480930A
:10033000BC008C811093B1048093D3041092B2045A
:100340001092D4048BE690E00E94E11480E090E0EB
:100350000E94E11481E00E94E6148C811093B104A4
:100360008093D3041092B2041092D4048CE190E0F4
:100370000E94E11480E090E00E94E11481E00E947C
:10038000E6148C811093B1048093D3041092B204CC
:100390001092D4048BE190E00E94E11480E090E0A0
:1003A0000E94E11481E00E94E61464E670E080E0BF
:1003B00090E00E94E910CE010E94281268EC70E0E3
:1003C00080E090E0DF91CF911F910C94E910CF93E2
:1003D000DF93FC012081211117C0615058F0262FB6
:1003E00030E0F901EB5FFD4F6081F901EA5FFE4FFC
:1003F000208102C02AEA6AEAEC0169832A8389E63D
:1004000095E00E94A70A6A8189E695E0DF91CF9185
:100410000C94A70A0F931F93CF93DF93EC01972FB0
:10042000888181111DC0062F172FF80121918F019E
:100430002223E9F0215030E0F901EB5FFD4F6081AC
:10044000F901EA5FFE4F808169838A8389E695E03E
:100450000E94A70A6A8189E695E00E94A70AE5CF73
:10046000862FDF91CF911F910F910C94CF14DF91C4
:10047000CF911F910F910895EF92FF920F931F93C9
:10048000CF93DF93CDB7DEB72A970FB6F894DEBFD0
:100490000FBECDBF7C01072E000C880B990B0E946C
:1004A0001E218E010F5F1F4F20E041E00E94DB1BE9
:1004B000B801C7010E940A022A960FB6F894DEBF5F
:1004C0000FBECDBFDF91CF911F910F91FF90EF90A5
:1004D00008950F931F93CF93DF93EC018A010E943D
:1004E0000A02B801CE010E943C0260EC73E0CE012A
:1004F000DF91CF911F910F910C940A020F931F93DC
:10050000CF93DF93EC010A811B8164E473E0C8019F
:100510000E940A0260EC73E0C8010E940A024EA128
:100520005FA160E573E08A819B810E94690248A512
:1005300059A563E573E08A819B810E9469024AA5FF
:100540005BA566E573E08A819B810E9469024CA5E8
:100550005DA569E573E08A819B810E9469024EA5D1
:100560005FA56CE573E08A819B810E94690248A9BE
:1005700059A96FE573E08A819B810E9469024AA9AB
:100580005BA962E673E08A819B810E9469024CA9A3
:100590005DA965E673E08A819B81DF91CF911F9110
:1005A0000F910C946902EF92FF920F931F93CF93D8
:1005B000DF93CDB7DEB72A970FB6F894DEBF0FBE34
:1005C000CDBF7C01CB01BA018E010F5F1F4F23E02D
:1005D00044E00E94DB1BB801C7010E940A022A9670
:1005E0000FB6F894DEBF0FBECDBFDF91CF911F9144
:1005F0000F91FF90EF900895CF92DF92EF92FF92CC
:10060000CF93DF93EC0169017A010E940A02B701DE
:10061000A601CE010E94D30260EC73E0CE01DF910F
:10062000CF91FF90EF90DF90CF900C940A02CF9380
:10063000DF93EC01FC01FF962081318142815381DF
:1006400068E673E08A819B810E94FC02FE01ED5BFB
:10065000FF4F208131814281538164E773E08A81B9
:100660009B810E94FC02FE01E95BFF4F20813181EA
:100670004281538160E873E08A819B810E94FC0281
:10068000FE01E55BFF4F20813181428153816DE89E
:1006900073E08A819B810E94FC02FE01E15BFF4FB7
:1006A00020813181428153816AE973E08A819B8193
:1006B000DF91CF910C94FC02CF93DF93EC0167EABA
:1006C00073E08A819B810E940A024FA158A569A507
:1006D0007AA58A819B810E94D30269EA73E08A81AC
:1006E0009B810E940A024BA55CA56DA57EA58A810F
:1006F0009B810E94D3022BAD3CAD4DAD5EAD6BEA4C
:1007000073E08A819B81DF91CF910C94FC02CF939F
:10071000DF93EC010E94820BCE010E946B0CCE0194
:10072000DF91CF910C945C030F931F93FC018FB763
:10073000F894409116045091170460911804709138
:1007400019048FBF848595850197C9F400811181B3
:100750002281338184819581A681B781840F951F81
:10076000A61FB71F401751076207730720F0801BB1
:10077000910BA20BB30B84839583A683B78340832D
:1007800051836283738380859185A285B3850097A9
:10079000A105B10589F0448155816681778184176F
:1007A0009507A607B70750F481E090E09787868702
:1007B0001482158216821782158614861F910F9156
:1007C0000895CF92DF92EF92FF920F931F93CF93F2
:1007D0008C016C0184E0C80ED11CD8011296ED91F9
:1007E000FC9113978081882331F089E695E00E947F
:1007F000300B7C0109C089E695E00E94300B97FD23
:1008000001967C01F594E794D8011296ED91FC9144
:1008100013978081882329F089E695E00E94F40AE5
:1008200047C589E695E00E94F40AC82F89E695E05D
:100830000E94F40ACA3A91F58A3A09F43EC3893A09
:1008400009F43DC3863A09F43CC3853A09F43BC335
:100850008A3909F43AC3893909F439C3863909F464
:1008600038C3853909F437C38A3609F436C3893663
:1008700009F435C3863609F434C3853609F433C325
:100880008A3509F432C3893509F431C3863509F450
:1008900030C3853509F02FC38FE00AC5C93A91F5F9
:1008A0008A3A09F42AC3893A09F429C3863A09F431
:1008B00028C3853A09F427C38A3909F426C389393C
:1008C00009F425C3863909F424C3853909F423C3FF
:1008D0008A3609F422C3893609F421C3863609F41D
:1008E00020C3853609F41FC38A3509F41EC3893530
:1008F00009F41DC3863509F41CC3853509F01BC3F3
:100900008FE1D6C4C63A91F58A3A09F416C3893AFA
:1009100009F415C3863A09F414C3853A09F413C3DC
:100920008A3909F412C3893909F411C3863909F4E3
:1009300010C3853909F40FC38A3609F40EC389360A
:1009400009F40DC3863609F40CC3853609F40BC3CC
:100950008A3509F40AC3893509F409C3863509F4CF
:1009600008C3853509F007C38FE2A2C4C53A91F5E3
:100970008A3A09F402C3893A09F401C3863A09F4B0
:1009800000C3853A09F4FFC28A3909F4FEC28939E5
:1009900009F4FDC2863909F4FCC2853909F4FBC2A9
:1009A0008A3609F4FAC2893609F4F9C2863609F49E
:1009B000F8C2853609F4F7C28A3509F4F6C28935DA
:1009C00009F4F5C2863509F4F4C2853509F0F3C29D
:1009D0008FE36EC4CA3991F58A3A09F4EEC2893AB6
:1009E00009F4EDC2863A09F4ECC2853A09F4EBC287
:1009F0008A3909F4EAC2893909F4E9C2863909F465
:100A0000E8C2853909F4E7C28A3609F4E6C28936B4
:100A100009F4E5C2863609F4E4C2853609F4E3C276
:100A20008A3509F4E2C2893509F4E1C2863509F450
:100A3000E0C2853509F0DFC28FE43AC4C93991F5C7
:100A40008A3A09F4DAC2893A09F4D9C2863A09F431
:100A5000D8C2853A09F4D7C28A3909F4D6C289398D
:100A600009F4D5C2863909F4D4C2853909F4D3C250
:100A70008A3609F4D2C2893609F4D1C2863609F41D
:100A8000D0C2853609F4CFC28A3509F4CEC2893581
:100A900009F4CDC2863509F4CCC2853509F0CBC244
:100AA0008FE506C4C63991F58A3A09F4C6C2893A77
:100AB00009F4C5C2863A09F4C4C2853A09F4C3C22E
:100AC0008A3909F4C2C2893909F4C1C2863909F4E4
:100AD000C0C2853909F4BFC28A3609F4BEC289365C
:100AE00009F4E6C3863609F4BAC2853609F4B9C2F8
:100AF0008A3509F4B8C2893509F4B7C2863509F4D4
:100B0000B6C2853509F0B5C28FE6D2C3C53991F5B5
:100B10008A3A09F4B0C2893A09F4AFC2863A09F4B4
:100B2000AEC2853A09F4ADC28A3909F4ACC289393A
:100B300009F4ABC2863909F4AAC2853909F4A9C2FD
:100B40008A3609F4A8C2893609F4A7C2863609F4A0
:100B5000A6C2853609F4A5C28A3509F4A4C289352E
:100B600009F4A3C2863509F4A2C2853509F0A1C2F1
:100B70008FE79EC3CA3691F58A3A09F49CC2893A36
:100B800009F49BC2863A09F49AC2853A09F499C2DB
:100B90008A3909F498C2893909F497C2863909F467
:100BA00096C2853909F495C28A3609F494C2893609
:100BB00009F493C2863609F492C2853609F491C2CB
:100BC0008A3509F490C2893509F48FC2863509F453
:100BD0008EC2853509F08DC28FE86AC3C93691F59A
:100BE0008A3A09F488C2893A09F487C2863A09F434
:100BF00086C2853A09F485C28A3909F484C28939E2
:100C000009F483C2863909F453C3853909F47FC2D4
:100C10008A3609F47EC2893609F47DC2863609F423
:100C20007CC2853609F47BC28A3509F47AC28935DB
:100C300009F479C2863509F478C2853509F077C29E
:100C40008FE936C3C63691F58A3A09F472C2893AF9
:100C500009F471C2863A09F470C2853A09F46FC288
:100C60008A3909F46EC2893909F46DC2863909F4EA
:100C70006CC2853909F46BC28A3609F46AC28936B6
:100C800009F469C2863609F468C2853609F467C278
:100C90008A3509F466C2893509F465C2863509F4D6
:100CA00064C2853509F063C28FEA02C3C53691F587
:100CB0008A3A09F45EC2893A09F45DC2863A09F4B7
:100CC0005CC2853A09F45BC28A3909F45AC289398F
:100CD00009F459C2863909F458C2853909F457C252
:100CE0008A3609F456C2893609F455C2863609F4A3
:100CF00054C2853609F453C28A3509F452C2893583
:100D000009F451C2863509F450C2853509F04FC245
:100D10008FEBCEC2CA3591F58A3A09F44AC2893AB4
:100D200009F449C2863A09F448C2853A09F447C22F
:100D30008A3909F446C2893909F445C2863909F469
:100D400044C2853909F443C28A3609F442C289365D
:100D500009F441C2863609F440C2853609F43FC21F
:100D60008A3509F43EC2893509F43DC2863509F455
:100D70003CC2853509F03BC28FEC9AC2C93591F56A
:100D80008A3A09F436C2893A09F435C2863A09F436
:100D900034C2853A09F433C28A3909F432C2893936
:100DA00009F431C2863909F430C2853909F42FC2F9
:100DB0008A3609F42EC2893609F42DC2863609F422
:100DC0002CC2853609F42BC28A3509F42AC289352A
:100DD00009F429C2863509F428C2853509F027C2ED
:100DE0008FED66C2C63591F58A3A09F422C2893A76
:100DF00009F421C2863A09F420C2853A09F41FC2D7
:100E00008A3909F41EC2893909F41DC2863909F4E8
:100E10001CC2853909F41BC28A3609F41AC2893604
:100E200009F419C2863609F418C2853609F417C2C6
:100E30008A3509F416C2893509F415C2863509F4D4
:100E400014C2853509F013C28FEE32C2C53509F0E0
:100E500010C28A3A09F40FC2893A09F40EC2863ADE
:100E600009F40DC2853A09F40CC28A3909F40BC29F
:100E7000893909F40AC2863909F409C2853909F4A5
:100E800008C28A3609F407C2893609F406C28636D2
:100E900009F405C2853609F404C28A3509F403C28F
:100EA000893509F402C2863509F401C291E085351D
:100EB00009F090E0892F8195FBC180E0F9C181E0C4
:100EC000F7C182E0F5C183E0F3C184E0F1C185E0C0
:100ED000EFC186E0EDC187E0EBC188E0E9C189E0C0
:100EE000E7C18AE0E5C18BE0E3C18CE0E1C18DE0C0
:100EF000DFC18EE0DDC180E0DBC180E1D9C181E1ED
:100F0000D7C182E1D5C183E1D3C184E1D1C185E1FB
:100F1000CFC186E1CDC187E1CBC188E1C9C189E1FB
:100F2000C7C18AE1C5C18BE1C3C18CE1C1C18DE1FB
:100F3000BFC18EE1BDC180E0BBC180E2B9C181E229
:100F4000B7C182E2B5C183E2B3C184E2B1C185E237
:100F5000AFC186E2ADC187E2ABC188E2A9C189E237
:100F6000A7C18AE2A5C18BE2A3C18CE2A1C18DE237
:100F70009FC18EE29DC180E09BC180E399C181E366
:100F800097C182E395C183E393C184E391C185E373
:100F90008FC186E38DC187E38BC188E389C189E373
:100FA00087C18AE385C18BE383C18CE381C18DE373
:100FB0007FC18EE37DC180E07BC180E479C181E4A3
:100FC00077C182E475C183E473C184E471C185E4AF
:100FD0006FC186E46DC187E46BC188E469C189E4AF
:100FE00067C18AE465C18BE463C18CE461C18DE4AF
:100FF0005FC18EE45DC180E05BC180E559C181E5E0
:1010000057C182E555C183E553C184E551C185E5EA
:101010004FC186E54DC187E54BC188E549C189E5EA
:1010200047C18AE545C18BE543C18CE541C18DE5EA
:101030003FC18EE53DC180E03BC180E639C181E61C
:1010400037C182E635C183E633C184E631C185E626
:101050002FC186E62DC187E62BC188E629C18AE625
:1010600027C18BE625C18CE623C18DE621C18EE622
:101070001FC180E01DC180E71BC181E719C182E764
:1010800017C183E715C184E713C185E711C186E75E
:101090000FC187E70DC188E70BC189E709C18AE75E
:1010A00007C18BE705C18CE703C18DE701C18EE75E
:1010B000FFC080E0FDC080E8FBC081E8F9C082E8A5
:1010C000F7C083E8F5C084E8F3C085E8F1C086E89E
:1010D000EFC087E8EDC088E8EBC089E8E9C08AE89E
:1010E000E7C08BE8E5C08CE8E3C08DE8E1C08EE89E
:1010F000DFC080E0DDC080E9DBC081E9D9C082E9E2
:10110000D7C083E9D5C084E9D3C085E9D1C087E9D8
:10111000CFC088E9CDC089E9CBC08AE9C9C08BE9D5
:10112000C7C08CE9C5C08DE9C3C08EE9C1C080E0ED
:10113000BFC080EABDC081EABBC082EAB9C083EA11
:10114000B7C084EAB5C085EAB3C086EAB1C087EA11
:10115000AFC088EAADC089EAABC08AEAA9C08BEA11
:10116000A7C08CEAA5C08DEAA3C08EEAA1C080E02A
:101170009FC080EB9DC081EB9BC082EB99C083EB4D
:1011800097C084EB95C085EB93C086EB91C087EB4D
:101190008FC088EB8DC089EB8BC08AEB89C08BEB4D
:1011A00087C08CEB85C08DEB83C08EEB81C080E067
:1011B0007FC080EC7DC081EC7BC082EC79C083EC89
:1011C00077C084EC75C085EC73C086EC71C087EC89
:1011D0006FC088EC6DC089EC6BC08AEC69C08BEC89
:1011E00067C08CEC65C08DEC63C08EEC61C080E0A4
:1011F0005FC080ED5DC081ED5BC082ED59C083EDC5
:1012000057C084ED55C085ED53C086ED51C087EDC4
:101210004FC088ED4DC089ED4BC08AED49C08BEDC4
:1012200047C08CED45C08DED43C08EED41C080E0E0
:101230003FC080EE3DC081EE3BC082EE39C083EE00
:1012400037C084EE35C085EE33C086EE31C087EE00
:101250002FC088EE2DC089EE2BC08AEE29C08BEE00
:1012600027C08CEE25C08DEE23C08EEE21C080E01D
:101270001FC080E01DC080EF1BC081EF19C082EF4E
:1012800017C083EF15C084EF13C085EF11C086EF40
:101290000FC087EF0DC088EF0BC089EF09C08AEF40
:1012A00007C08BEF05C08CEF03C08DEF01C08EEF40
:1012B000C82F8F3771F08F3F09F46AC08D30D1F598
:1012C000C8010E947C15F80114A2C6010E941F12D9
:1012D0005FC06DEA73E0D80112968D919C911397CF
:1012E0000E940A02C0E0F80124A182819381C21702
:1012F00030F466E673E00E940A02CF5FF4CF6DEA35
:1013000073E00E940A02D80194968C9194978823E6
:1013100019F0815094968C93F80184A1E80FF11D87
:101320001482B601D80112968D919C9113970E9458
:101330000A022EC080EE8C0F8F3550F5F80187A978
:10134000882329F06C2F828193810E94E70183ED2D
:101350008C0F8D3068F0D80194968C91823040F0DB
:10136000C8010E947C15F80114A2C6010E941F1238
:10137000D80194968C91F801E80FF11DC4838F5F1A
:10138000803208F08FE1F80184A3E80FF11D148288
:101390001E141F040CF421CACF911F910F91FF90CE
:1013A000EF90DF90CF90089585ED8093BC00809101
:1013B000BC0084FDFCCF1092B0040895613298F413
:1013C0002091B004243089F460934104282FA1E2D5
:1013D000B4E0FC018E2F821B861718F481918D9347
:1013E000F9CF80E0089581E0089582E00895CF92DA
:1013F000DF92EF92FF920F931F93CF93DF936C01D5
:10140000EB017B01E40EF51E00E010E0CE15DF05D8
:1014100061F06991D601ED91FC910190F081E02D90
:10142000C6010995080F191FF1CFC801DF91CF91AF
:101430001F910F91FF90EF90DF90CF900895089546
:10144000E0911B0480911A04E81730F4F0E0E659AB
:10145000FB4F808190E008958FEF9FEF089590916A
:101460001B0480911A04981750F4E92FF0E0E65914
:10147000FB4F208130E09F5F90931B0402C02FEF51
:101480003FEFC901089580911A0490E020911B0458
:10149000821B91090895CF92DF92EF92FF920F93F2
:1014A0001F93CF93DF937C01CB018A012091B1047C
:1014B000222389F0EB016B01C40ED51ECC15DD058E
:1014C00069F06991D701ED91FC910190F081E02DD7
:1014D000C7010995F3CF642F0E94DE09C801DF918F
:1014E000CF911F910F91FF90EF90DF90CF900895D3
:1014F000CF93DF931F92CDB7DEB769832091B104FC
:101500002223D1F02091D404203240F021E030E0B9
:10151000FC013383228380E090E015C08091B20407
:10152000E82FF0E0ED54FB4F998190838F5F80931B
:10153000B2048093D40405C061E0CE0101960E94FC
:10154000DE0981E090E00F90DF91CF9108950F9335
:101550001F93CF93DF93FC01A685B7858D01005CB7
:101560001F4FE8018881998101968F739927AD01FA
:101570004E5B5F4FEA012881398128173907D1F383
:10158000E80128813981A20FB31F6C93A685B78526
:10159000A05CBF4F11969C938E93A689B7892C911E
:1015A00081E090E0078C02C0880F991F0A94E2F74F
:1015B000822B8C9381E081A30488F589E02D8081C2
:1015C0008064808381E090E0DF91CF911F910F9143
:1015D0000895FC0181A1882329F0A489B5898C9103
:1015E00086FFFBCF11A20895FC01A485B585FD01FE
:1015F000E05CFF4F208131813296808191812817F4
:10160000390779F080819181A80FB91F8C912081D1
:1016100031812F5F3F4F2F7333273183208390E039
:1016200008958FEF9FEF0895DC011C96ED91FC91DA
:101630001D97DF01A05CBF4F2D913C911197129631
:101640008D919C9111972817390739F08D919C91B4
:10165000E80FF91F808190E008958FEF9FEF0895C4
:10166000FC0124853585F901E05CFF4F8081918183
:10167000329620813181821B930B8F7399270895B5
:1016800008953FB7F89480911D0490911E04A09195
:101690001F04B091200426B5A89B05C02F3F19F068
:1016A0000196A11DB11D3FBFBA2FA92F982F8827E2
:1016B000820F911DA11DB11DBC01CD0142E0660F3D
:1016C000771F881F991F4A95D1F70895CF93DF930D
:1016D000EC0180E69AEEA0E0B0E0888B998BAA8BB3
:1016E000BB8B81E090E09D8B8C8BCE0108960E9495
:1016F00094031C861D861E861F861F8A1E8ADF9104
:10170000CF9108954F925F926F927F928F929F92A6
:10171000AF92BF92CF92DF92EF92FF92CF93DF937F
:10172000EC018C8191E09093B1048093D3041092EA
:10173000B2041092D4048BE390E00E94E11480E0A4
:101740000E94E61441E066E08C810E943E151092F2
:101750001B0480931A0485ED94E00E942F0AF82E52
:1017600085ED94E00E942F0A60E070E07F2D862BCB
:10177000972BBC01990F880B990B0E941E2120E02A
:1017800030E040E858E30E94DE216F837887898744
:101790009A8785ED94E00E942F0AF82E85ED94E05B
:1017A0000E942F0A60E070E07F2D862B972BBC01F2
:1017B000990F880B990B0E941E2120E030E040E831
:1017C00058E30E94DE216B877C878D879E8785ED9D
:1017D00094E00E942F0AF82E85ED94E00E942F0AD3
:1017E00060E070E07F2D862B972BBC01990F880B52
:1017F000990B0E941E2120E030E040E858E30E944F
:10180000DE216F87788B898B9A8B8B849C84AD8447
:10181000BE84CF80D884E984FA849B01AC010E9405
:10182000DE212B013C01A7019601C701B6010E94F0
:10183000DE21A30192010E94D91F0E9451229B0127
:10184000AC01C501B4010E9474200E94452020E033
:1018500030E044E353E40E94DE212BED3FE049E415
:1018600050E40E9474206F8F78A389A39AA3A501E6
:101870009401C501B4010E94DE21A30192010E94DE
:10188000D91F0E9451229B01AC01C701B60190589B
:101890000E9474200E94452020E030E044E353E49D
:1018A0000E94DE212BED3FE049E450E40E947420C9
:1018B0006BA37CA38DA39EA3DF91CF91FF90EF90AC
:1018C000DF90CF90BF90AF909F908F907F906F9060
:1018D0005F904F9008954F925F926F927F928F9298
:1018E0009F92AF92BF92CF92DF92EF92FF92CF93EF
:1018F000DF9300D000D000D0CDB7DEB79E838D83BC
:101900007C012BE5E20EF11C6C0187E5C80ED11CB1
:10191000F60180819181A281B381F7018083918357
:10192000A283B3832FB7F8946091160470911704C3
:1019300080911804909119042FBF0E941C21D60198
:101940006D937D938D939C931397CD80DE80B3E54B
:10195000CB0ED11CF70120813181428153810E943D
:10196000D81F20E030E04AE754E40E947420D601FA
:101970006D937D938D939C931397ED81FE8184816C
:1019800091E09093B1048093D3041092B20410922A
:10199000D40483E490E00E94E11480E00E94E61405
:1019A00041E066E0AD81BE8114968C910E943E15A7
:1019B00010921B0480931A0485ED94E00E942F0A74
:1019C000F82E85ED94E00E942F0A60E070E07F2DF4
:1019D000862B972BBC01990F880B990B0E941E2117
:1019E00020E030E043E053E40E947420ED81FE816A
:1019F000638B748B858B968B85ED94E00E942F0A08
:101A0000F82E85ED94E00E942F0A60E070E07F2DB3
:101A1000862B972BBC01990F880B990B0E941E21D6
:101A200020E030E043E053E40E947420AD81BE81A9
:101A300057966D937D938D939C935A9785ED94E083
:101A40000E942F0AB82E85ED94E00E942F0A7C0197
:101A5000ED81FE81E95BFF4F20813181428153811D
:101A6000ED81FE8163897489858996890E94D81FDA
:101A70002B013C01AD81BE8153966D937D938D9377
:101A80009C935697FD01E55BFF4F20813181428198
:101A9000538157966D917D918D919C915A970E949B
:101AA000D81F69837A838B839C83ED81FE81678B4A
:101AB000708F818F928F60E070E07B2D6E297F297F
:101AC000072E000C880B990B0E941E2120E030E0AD
:101AD00043E053E40E947420ED81FE81E15BFF4FFF
:101AE00020813181428153810E94D81F4B015C01CA
:101AF000AD81BE815B966D937D938D939C935E9734
:101B0000F601C080D180E280F380A7019601C30175
:101B1000B2010E94DE21AD81BE8197962D913D914B
:101B20004D915C919A970E94D91F2B013C01A7010E
:101B3000960169817A818B819C810E94DE21ED81F1
:101B4000FE8123A534A545A556A50E94D91F69830A
:101B50007A838B839C83AD81BE8116968C91A7017D
:101B60009601811105C0C501B4010E94DE210CC09F
:101B7000C501B4010E94DE21ED81FE8123AD34ADAB
:101B800045AD56AD0E94D91FAD81BE81DB966D93E8
:101B90007D938D939C93DE975F962D913D914D9112
:101BA0005C919297C301B2010E94D81F4B015C0166
:101BB00020E030E0A9010E94D121181624F0B7FAE4
:101BC000B094B7F8B094ED81FE8123A134A145A172
:101BD00056A169817A818B819C810E94D81F6B01FB
:101BE0007C0120E030E0A9010E94D121181624F0E8
:101BF000F7FAF094F7F8F09420E030E0A901C3017F
:101C0000B2010E94D1212DEC3CEC4CE45DE31816AE
:101C10005CF4C501B4010E94DE219B01AC01C3014B
:101C2000B2010E94D81F08C0C501B4010E94DE2184
:101C3000A30192010E94D91FAD81BE8197966D9339
:101C40007D938D939C939A9720E030E0A901698160
:101C50007A818B819C810E94D1212DEC3CEC4CE45B
:101C60005DE318166CF4C701B6010E94DE219B01EA
:101C7000AC0169817A818B819C810E94D81F0AC046
:101C8000C701B6010E94DE2129813A814B815C8126
:101C90000E94D91FED81FE8163A774A785A796A72F
:101CA00026960FB6F894DEBF0FBECDBFDF91CF9161
:101CB000FF90EF90DF90CF90BF90AF909F908F906C
:101CC0007F906F905F904F9008951F920F920FB684
:101CD0000F9211242F933F934F935F936F937F93B2
:101CE0008F939F93AF93BF93EF93FF938091B9002E
:101CF000887F803609F49CC068F5883209F45BC09F
:101D000090F4803109F454C038F4882309F4EFC00A
:101D1000883009F44DC0EFC0883109F44CC08032DE
:101D200009F45DC0E8C0803409F468C048F4803329
:101D300009F455C0883309F0DEC08093AE04D1C0E9
:101D4000803509F44FC0883509F45DC0883409F046
:101D5000D2C0CFC0883909F4C0C0A8F4883709F4CC
:101D600067C038F4883609F463C0803709F460C06E
:101D7000C2C0883809F4B1C0803909F45FC0803826
:101D800009F0B9C05BC0803B09F481C038F4803AE7
:101D900009F466C0883A09F47AC0ADC0803C09F401
:101DA000A0C0883C09F49DC0883B09F483C0A3C04F
:101DB00080918B0410C09091AD048091AC04981771
:101DC00070F5E091AD0481E08E0F8093AD04F0E0FA
:101DD000E457FB4F80818093BB0085EC7FC08093EC
:101DE000AE0487C0E091AD0481E08E0F8093AD0416
:101DF0008091BB00F0E0E457FB4F80839091AD04ED
:101E00008091AC0467C0E091AD0481E08E0F8093B7
:101E1000AD048091BB00F0E0E457FB4F80838091DC
:101E2000AF04811166C081E080938A0484EA5AC0BD
:101E300083E08093B00410926304CFCF8091630459
:101E4000803208F04AC0E091630481E08E0F8093F5
:101E500063048091BB00F0E0ED5BFB4F8083BDCF5E
:101E600080916304803230F4E0916304F0E0ED5B34
:101E7000FB4F10820E94D4096091630470E083E4F8
:101E800094E0E0E0F0E00995109263042AC084E059
:101E90008093B0041092420410924104E0E0F0E01C
:101EA000099580914104811105C081E0809341042E
:101EB00010922104E091420481E08E0F809342044D
:101EC000F0E0EF5DFB4F80818093BB009091420476
:101ED00080914104981708F480CF85E88093BC0076
:101EE0000AC085EC8093BC001092B00404C010922C
:101EF000AE040E94D409FF91EF91BF91AF919F91E1
:101F00008F917F916F915F914F913F912F910F90A2
:101F10000FBE0F901F9018951F920F920FB60F9241
:101F200011242F933F938F939F93EF93FF932091CF
:101F300021053091220580912305909124052817D1
:101F4000390731F48091C1008F7D8093C10014C0A6
:101F5000E0912305F0912405EF51FB4F2081809102
:101F600023059091240501968F739927909324055A
:101F7000809323052093C600FF91EF919F918F914D
:101F80003F912F910F900FBE0F901F9018951F92A9
:101F90000F920FB60F9211242F934F935F938F934D
:101FA0009F93EF93FF938091C00082FD1CC020910E
:101FB000C600809165059091660540916705509136
:101FC000680501968F7399274817590771F0E091BA
:101FD0006505F0916605EB5DFA4F208390936605E9
:101FE0008093650502C08091C600FF91EF919F919B
:101FF0008F915F914F912F910F900FBE0F901F9077
:10200000189590E0FC01E450FE4F2491FC01E8514A
:10201000FE4F3491FC01EC52FE4FE491EE2309F4A3
:102020003CC0222339F1233091F038F42130A9F05B
:10203000223001F584B58F7D12C0263091F0273013
:10204000A1F02430B9F4809180008F7D03C080918D
:1020500080008F77809380000DC084B58F7784BD1A
:1020600009C08091B0008F7703C08091B0008F7D50
:102070008093B000F0E0EE0FFF1FE653FE4FA591F6
:10208000B4919FB7F894611104C08C9130953823B6
:1020900002C0EC913E2B3C939FBF0895CF93DF93FA
:1020A00090E0FC01E851FE4F2491FC01EC52FE4F00
:1020B0008491882361F190E0880F991FFC01E0541E
:1020C000FE4FC591D491FC01E653FE4FA591B4910A
:1020D000611109C09FB7F894888120958223888375
:1020E000EC912E230BC0623061F49FB7F894888185
:1020F000322F309583238883EC912E2B2C939FBF16
:1021000006C08FB7F894E8812E2B28838FBFDF910C
:10211000CF9108951F93CF93DF93182FEB0161E0C8
:102120000E944E10209711F460E004C0CF3FD1050B
:1021300039F461E0812FDF91CF911F910C94011050
:10214000E12FF0E0E450FE4FE491E330F9F048F481
:10215000E130B9F0E230A1F584B5806284BDC8BD3C
:1021600034C0E630E9F0E73019F1E43049F5809108
:102170008000806280938000D0938B00C0938A009F
:1021800024C084B5806884BDC7BD1FC08091800015
:10219000806880938000D0938900C093880015C028
:1021A0008091B00080688093B000C093B3000DC0F0
:1021B0008091B00080628093B000C093B40005C0ED
:1021C000C038D1050CF0B5CFAFCFDF91CF911F91C3
:1021D0000895CF92DF92EF92FF92CF93DF936B013E
:1021E0007C010E94410BEB01C114D104E104F10414
:1021F00079F00E94410B6C1B7D0B683E7340A0F38D
:1022000081E0C81AD108E108F108C851DC4FECCFD1
:10221000DF91CF91FF90EF90DF90CF9008951F92C4
:102220000F920FB60F9211242F933F938F939F938A
:10223000AF93BF938091160490911704A091180456
:10224000B091190430911C0423E0230F2D3720F4A2
:102250000196A11DB11D05C026E8230F0296A11D00
:10226000B11D20931C048093160490931704A0932F
:102270001804B093190480911D0490911E04A0913C
:102280001F04B09120040196A11DB11D80931D046F
:1022900090931E04A0931F04B0932004BF91AF91AC
:1022A0009F918F913F912F910F900FBE0F901F9094
:1022B0001895CF93DF93EC0187E480937C008091A5
:1022C0007A00806480937A0080917A0086FDFCCF4A
:1022D000609178008091790070E0782B072E000CD7
:1022E000880B990B0E941E212DEC3CEC4CEE50E427
:1022F0000E94DE2120E030EC4FE754E40E9474207D
:102300006C837D838E839F83DF91CF9108950F939C
:102310001F93CF93DF938C01085F1F4FFC01268929
:1023200037892130310581F4EC01178A168A358B03
:10233000248B0E945911C8010E9494031C861D869B
:102340001E861F861F8A1E8AC801DF91CF911F91AA
:102350000F910C949403089560E070E089E00E946E
:102360008A1060E070E08AE00E948A1060E082E0FB
:102370000E94011060E084E00E94011060E087E0AC
:102380000E94011060E088E00C9401108F929F92EF
:10239000AF92BF92CF92DF92EF92FF92CF93DF93F3
:1023A0006091980570919905C0919A05D0919B050F
:1023B0006115710511F42097A1F1072E000C880B0F
:1023C000990B0E941E216B017C01BE01DD0F880B61
:1023D000990B0E941E214B015C0120E030E0A90115
:1023E000C701B6010E94D121A701960187FD50586F
:1023F000C501B4010E9474200E94452020E030E015
:1024000044E353E40E94DE212BED3FE049E450E435
:102410000E94742020E030E044E352E40E94D81F80
:1024200003C060E070E0CB01DF91CF91FF90EF90AF
:10243000DF90CF90BF90AF909F908F90089520E253
:10244000FC0111922A95E9F7089504960C941F1245
:102450002F923F924F925F926F927F928F929F92B4
:10246000AF92BF92CF92DF92EF92FF920F931F93A2
:10247000CF93DF93CDB7DEB760970FB6F894DEBF8A
:102480000FBECDBF988B8F878C01015A1F4FCF96FF
:102490009C878B872F8538892D5B3F4F3E872D8703
:1024A000F80180819181883C91050CF0F7C0EF859F
:1024B000F8898481F1E0F093B1048093D304109201
:1024C000B2041092D4048BE390E00E94E11480E007
:1024D0000E94E61441E066E0EF85F88984810E945D
:1024E0003E1510921B0480931A0485ED94E00E941F
:1024F0002F0AF82E85ED94E00E942F0AFA821982A5
:1025000029813A81822B932BBC01990F880B990B5F
:102510000E941E2120E030E040E858E30E94DE21C6
:10252000EF85F889678370878187928785ED94E0CE
:102530000E942F0AF82E85ED94E00E942F0AFC825B
:102540001B822B813C81822B932BBC01990F880B22
:10255000990B0E941E2120E030E040E858E30E94E1
:10256000DE21EF85F889638774878587968785EDF7
:1025700094E00E942F0AF82E85ED94E00E942F0A25
:10258000FE821D822D813E81822B932BBC01990FEF
:10259000880B990B0E941E2120E030E040E858E3B0
:1025A0000E94DE21EF85F8896787708B818B928B83
:1025B00083849484A584B684C780D084E184F28423
:1025C0009B01AC010E94DE212B013C01A701960179
:1025D000C701B6010E94DE21A30192010E94D91F0A
:1025E0000E9451229B01AC01C501B4010E947420DC
:1025F0000E94452020E030E044E353E40E94DE21C5
:102600002BED3FE049E450E40E9474209B01AC01B3
:10261000EB85FC8560817181828193810E94D91F45
:10262000EB85FC856083718382839383A50194018C
:10263000C501B4010E94DE21A30192010E94D91FAD
:102640000E9451229B01AC01C701B60190580E9423
:1026500074200E94452020E030E044E353E40E94CF
:10266000DE212BED3FE049E450E40E9474209B0101
:10267000AC01ED85FE8560817181828193810E942C
:10268000D91FED85FE856083718382839383F80172
:102690008081918101969183808302CFEF84F888B5
:1026A000FFE3EF0EF11C20E030E048E453E4F701D3
:1026B00060817181828193810E947420F70160831F
:1026C000718382839383EF84F888F3E4EF0EF11C27
:1026D00020E030E048E453E4F701608171818281B9
:1026E00093810E947420F7016083718382839383B6
:1026F000F801118210822F853889295B3F4F6901CB
:102700008F859889855B9F4F7C0199249394AF8432
:10271000B8889FE4A90EB11CF80180819181883CA2
:1027200091050CF0B9C0EF85F88984819092B104CD
:102730008093D3041092B2041092D40483E490E006
:102740000E94E11480E00E94E61441E066E0EF851B
:10275000F88984810E943E1510921B0480931A040C
:1027600085ED94E00E942F0A882E85ED94E00E946A
:102770002F0A88861F822F813885822B932BBC01DC
:10278000990F880B990B0E941E21EF85F889638BA6
:10279000748B858B968B85ED94E00E942F0A882E92
:1027A00085ED94E00E942F0A8A86198629853A854C
:1027B000822B932BBC01990F880B990B0E941E2131
:1027C000EF85F889678B708F818F928F85ED94E00C
:1027D0000E942F0A882E85ED94E00E942F0A382C43
:1027E000212C82299329BC01990F880B990B0E94F7
:1027F0001E212B013C01EF85F889638F748F858F33
:10280000968F20E030E043E053E463897489858942
:1028100096890E947420F601208131814281538182
:102820000E94D91FF601608371838283938320E025
:1028300030E043E053E4EF85F8896789708D818D3E
:10284000928D0E947420F701208131814281538151
:102850000E94D91FF701608371838283938320E0F4
:1028600030E043E053E4C301B2010E9474209B01B5
:10287000AC01F50160817181828193810E94D91F31
:10288000F5016083718382839383F8018081918154
:1028900001969183808340CF20E030E048E453E408
:1028A000F60160817181828193810E947420F6011A
:1028B000608371838283938320E030E048E453E4B3
:1028C000F70160817181828193810E947420F701F8
:1028D00060837183828393830F851889015B1F4F07
:1028E00020E030E048E453E4F801608171818281A6
:1028F00093810E947420F8016083718382839383A3
:102900008F85988960960FB6F894DEBF0FBECDBF55
:10291000DF91CF911F910F91FF90EF90DF90CF90BB
:10292000BF90AF909F908F907F906F905F904F90EF
:102930003F902F900C9417031F93CF93DF93EC01DC
:10294000162FCA010E94FB1B1EAB412F110F550B06
:10295000660B770BFA01E256F109E831F105D8F47C
:10296000EC5CFF4F0C94CE229FA38EA314C099A7BA
:1029700088A711C09BA78AA70EC09DA78CA70BC0D4
:102980009FA78EA708C099AB88AB05C09BAB8AAB4D
:1029900002C09DAB8CABDF91CF911F910895009742
:1029A00069F0FC0101900020E9F73197AF01481B65
:1029B000590BBC0189E695E00C94F70980E090E0A2
:1029C0000895682F85ED94E00C94780A282F3091B3
:1029D000D404313208F046C08091B0048111FCCF9C
:1029E0009091D30442E04093B0042093AF042FEFC2
:1029F0002093AE041092AD043093AC04E3EBF4E00A
:102A0000ACE8B4E020E0321721F041914D932F5F04
:102A1000FACF10928B0420918B04990F922B9093F4
:102A20008B0490918A04913041F410928A04909121
:102A30008B049093BB0095EC01C095EE9093BC0085
:102A40009091B0049230E1F39091AE049F3F79F001
:102A50008091AE04803241F08091AE04803331F039
:102A600084E005C081E003C082E001C083E01092F1
:102A7000B2041092D4041092B10408959091B0045D
:102A80009111FCCF91E09093B0044093AF042FEFED
:102A90002093AE041092AD04260F2093AC049093C3
:102AA0008B0490918B04880F892B80938B048091E9
:102AB0008A04813041F410928A0480918B048093BF
:102AC000BB0085EC01C085EE8093BC008091B00412
:102AD0008130E1F38091AD04861710F46091AD046C
:102AE000ACE8B4E0EAE6F4E080E0861721F09D91DE
:102AF00091938F5FFACF08957F928F929F92AF92BA
:102B0000BF92CF92DF92EF92FF920F931F93CF93DA
:102B1000DF93CDB7DEB7E6970FB6F894DEBF0FBEF2
:102B2000CDBF7C01FC0184A1882309F44AC1CE01F8
:102B300001960E941F12F70115A26701F4E0CF0E63
:102B4000D11C80E090E060E000E0460177247394BF
:102B5000F60111916F01112309F405C1163509F42D
:102B6000A3C00CF51A3374F410330CF0BDC010324E
:102B700009F4F7C00CF4C1C023ED210F223008F492
:102B8000B3C0BBC01D3409F43FC034F4123409F49F
:102B90009BC0173449F1B1C0133509F445C0153550
:102BA00009F472C0AAC01D3679F174F4193509F41C
:102BB0005BC024F4183509F447C09FC0123609F4ED
:102BC00083C0173689F099C0163709F46DC034F404
:102BD000133751F1153709F457C08FC01837A1F1D9
:102BE000193709F441C089C0662331F0AE014F5F47
:102BF0005F4FC7010E949C14CE0101960E941F12D4
:102C000080E090E067E6ADC0662331F0AE014F5F33
:102C10005F4FC7010E949C14CE0101960E941F12B3
:102C200080E090E06DE69DC0662331F0AE014F5F1D
:102C30005F4FC7010E949C14CE0101960E941F1293
:102C400080E090E063E78DC0662331F0AE014F5F16
:102C50005F4FC7010E949C14CE0101960E941F1273
:102C600080E090E068E77DC0662331F0AE014F5F01
:102C70005F4FC7010E949C14CE0101960E941F1253
:102C800080E090E069E76DC0662331F0AE014F5FF0
:102C90005F4FC7010E949C14CE0101960E941F1233
:102CA00080E090E065E75DC0662331F0AE014F5FE4
:102CB0005F4FC7010E949C14CE0101960E941F1213
:102CC00080E090E066E74DC0662331F0AE014F5FD3
:102CD0005F4FC7010E949C14CE0101960E941F12F3
:102CE00080E090E062E63DC0E1E0F0E0EC0FFD1F27
:102CF000E80FF91F1083019634C0F70175A263EE47
:102D000073E0828193810E940A02612FF701828120
:102D100093810E94E701F701A280B380802F90E0A9
:102D20009EAB8DAB61EF73E0C5010E940A028DA9D5
:102D30009EA94AE0BE016F5D7F4F0E94241CBE0128
:102D40006F5D7F4FC5010E940A0260EC73E0C50110
:102D50000E940A02CE0101960E941F1280E090E0BC
:102D600060E00F5FF5CE662331F0AE014F5F5F4F3D
:102D7000C7010E949C14F70185A1882361F1B40169
:102D8000828193810E940A026AEF73E0F7018281D7
:102D900093810E940A02F70164A170E0828193810D
:102DA0000E943C026CEF73E0F701828193810E94E4
:102DB0000A026EEF73E0F701828193810E940A029A
:102DC0000AC060EC73E0F701828193810E940A02DD
:102DD000C7010E947E02E6960FB6F894DEBF0FBED2
:102DE000CDBFDF91CF911F910F91FF90EF90DF90BA
:102DF000CF90BF90AF909F908F907F9008957894E0
:102E000084B5826084BD84B5816084BD85B58260EF
:102E100085BD85B5816085BD80916E0081608093A0
:102E20006E00109281008091810082608093810009
:102E30008091810081608093810080918000816019
:102E4000809380008091B10084608093B100809174
:102E5000B00081608093B00080917A00846080939C
:102E60007A0080917A00826080937A0080917A0063
:102E7000816080937A0080917A00806880937A00E4
:102E80001092C10060E085E10E944E1061E089E08F
:102E90000E944E1061E08AE00E944E1061E082E0E4
:102EA0000E944E1061E084E00E944E1061E087E0D5
:102EB0000E944E1061E088E00E944E100E94AC110A
:102EC000E0917D05F0917E05C1E0D0E0CE0100905B
:102ED000890502C0880F991F0A94E2F78083E09168
:102EE0007905F0917A051082E0917B05F0917C05DF
:102EF0008FEC808310928A05E0917F05F091800528
:102F00002081CE010090850502C0880F991F0A9488
:102F1000E2F7822B8083E0917F05F091800520818C
:102F2000CE010090860502C0880F991F0A94E2F72F
:102F3000822B8083E0917F05F09180052081CE0176
:102F40000090870502C0880F991F0A94E2F7822B30
:102F50008083E0917F05F091800590819E01009033
:102F6000880502C0220F331F0A94E2F7822F809552
:102F700089238083E091B805F091B90581E08083D1
:102F80008FEA93E00E94CF1461E08DE00E944E1022
:102F900084EF91E0A0E0B0E08093C2059093C30578
:102FA000A093C405B093C505D093C705C093C605CB
:102FB00080EA95E00E9459111092690480918B0576
:102FC00090918C05DC01ED91FC910190F081E02D58
:102FD000099582E390E0A0E0B0E08093D205909361
:102FE000D305A093D405B093D505D093D705C0934E
:102FF000D605109264041092650410926604109233
:10300000670489E695E00E94E90A80919E05909107
:103010009F050E947E02E0919E05F0919F0517AAF0
:1030200063EC73E08091B8059091B9050E940A02A3
:103030008AEF482E512C612C712C22242A94312C99
:1030400080918D05882311F061E001C060E08DE082
:103050000E9401108091C8059091C90581309105A9
:1030600011F51092C9051092C8059093C705809379
:10307000C60580918D05811104C081E080938D0586
:1030800002C010928D058AEB95E00E949403109285
:10309000BE051092BF051092C0051092C105109296
:1030A000C9051092C8058AEB95E00E94940380EA56
:1030B00095E00E94871180916804813079F44092F4
:1030C000C2055092C3056092C4057092C50581E0A7
:1030D00090E09093C7058093C60512C084EF91E0FD
:1030E000A0E0B0E08093C2059093C305A093C4050F
:1030F000B093C505A1E0B0E0B093C705A093C605A5
:1031000080919E0590919F05DC01ED91FC910280DC
:10311000F381E02D0995C0919E05D0919F0580E136
:10312000FE01B696AEE8B5E001900D928A95E1F702
:103130008EA98236F9F46AEC73E08091B80590911B
:10314000B9050E940A0280EA95E00E945911409157
:10315000A4055091A5056091A6057091A7058091E1
:10316000A2059091A3050E94D302E0919E05F091E3
:103170009F0516AA80919005909191050A9761F498
:1031800080918B0590918C050E945C03E0919E05D7
:10319000F0919F0511A610A6809190059091910540
:1031A0008336910531F56CEC73E08091B805909110
:1031B000B9050E940A0264ED73E08091B805909110
:1031C000B9050E940A0268ED73E08091B8059091FC
:1031D000B9050E940A026FED73E08091B8059091E5
:1031E000B9050E940A02E0919E05F0919F0511A683
:1031F00010A680919005909191058436910561F417
:1032000080918B0590918C050E941703E0919E059B
:10321000F0919F0511A610A68091900590919105BF
:103220008536910561F480918B0590918C050E9403
:103230002812E0919E05F0919F0511A610A680919D
:103240009005909191058431910521F481E080935E
:10325000690404C0459741F410926904E0919E0509
:10326000F0919F0511A610A68091D8059091D905DF
:103270008130910561F51092D9051092D80590938F
:10328000D7058093D605C0918B05D0918C05CE01D2
:103290000E94820BCE010E946B0C0E94C6116093AB
:1032A00064047093650480936604909367048AECC9
:1032B00095E00E9494031092CE051092CF051092D3
:1032C000D0051092D1051092D9051092D8058AEC3C
:1032D00095E00E9494038091980590919905892B1F
:1032E00059F480919A0590919B05892B29F41092AD
:1032F00068040E94AC1103C081E080936804C0910F
:103300009805D0919905209739F480919A0590916C
:103310009B05892B09F427C18091690481110FC194
:10332000C0906404D0906504E0906604F090670457
:103330000E94C6119B01AC01C701B6010E94D81FB3
:10334000E0918B05F0918C0523AD34AD45AD56ADC4
:103350000E94D81F20E030E040E250E40E94DE21CD
:103360006B017C0120E030E0A9010E94D121009195
:103370009A0510919B0518166CF520E030E040E0AE
:103380005FE3C701B6010E94D91F0E94E62016160E
:1033900017061806190614F49B0104C022273327C8
:1033A000261B370BC21BD30BD0939905C0939805EE
:1033B000161617061806190614F4AB0104C04427A4
:1033C0005527461B570B400F511F50939B054093A9
:1033D0009A0583C020E030E0A901C701B6010E9430
:1033E000D12120E030E040E05FE387FD12C0C7015B
:1033F000B6010E94D91F4B015C010E94E6201616FF
:1034000017061806190694F4C501B4010E94E620B7
:1034100014C0C701B6010E94D81F4B015C010E9475
:10342000E62016161706180619063CF0C501B40169
:103430000E94E6207195619571096C0F7D1F709354
:1034400099056093980520E030E0A901C701B60115
:103450000E94D12120E030E040E05FE387FD16C00C
:10346000C701B6010E94D91F0E94E6201616170652
:1034700018061906FCF420E030E040E05FE3C701E5
:10348000B6010E94D91F0E94E62021C0C701B601E3
:103490000E94D81F0E94E620161617061806190665
:1034A000B4F020E030E040E05FE3C701B6010E94E5
:1034B000D81F08C020E030E040E05FE3C701B6015C
:1034C0000E94D91F0E94E620719561957109061B23
:1034D000170B10939B0500939A0580919805909186
:1034E00099058F3F910529F024F03092990520929B
:1034F000980580919A0590919B058F3F910529F041
:1035000024F030929B0520929A0580919805909125
:10351000990581309F4F34F481E09FEF9093990596
:103520008093980580919A0590919B0581309F4FDB
:1035300034F481E09FEF90939B0580939A058091EE
:10354000980590919905181619066CF461E082E0CF
:103550000E94011060E084E00E94011060919805D3
:10356000709199050FC060E082E00E94011061E057
:1035700084E00E9401106091980570919905719501
:103580006195710989E00E948A1080919A05909155
:103590009B05181619066CF461E087E00E94011083
:1035A00060E088E00E94011060919A0570919B058F
:1035B0000FC060E087E00E94011061E088E00E9497
:1035C000011060919A0570919B0571956195710943
:1035D0008AE00E948A1034CD0F931F93CF93DF931C
:1035E000E5EDF4E01382128288EE93E0A0E0B0E013
:1035F00084839583A683B78328E033E031832083D7
:10360000E9E6F5E01382128284839583A683B7836B
:1036100088E193E09183808385E295E095878487B4
:1036200081EE94E09787868785EC90E0918B808B84
:1036300084EC90E0938B828B80EC90E0958B848B74
:1036400081EC90E0978B868B82EC90E0918F808F5D
:1036500086EC90E0938F828F84E0848F83E0858F67
:1036600087E0868F85E0878F81E080A3EAECF5E034
:10367000148215821682178215861486108611868A
:103680001286138610821182128213821786168682
:10369000EAEBF5E0148215821682178215861486ED
:1036A000108611861286138610821182128213826E
:1036B0001786168683E090E00E94B71E8C01FC01FD
:1036C00010829093B9058093B805E0EAF5E0938302
:1036D000828380E493E09183808314821582168232
:1036E00017821486158616861786158A148A108AFC
:1036F000118A128A138A1086118612861386178AF7
:10370000168ACF010E94660B88E390E00E94B71EE4
:10371000EC011B830A8380E393E0998388831CA2D6
:10372000CE0104960E941F1288E393E09983888358
:103730001FA21EA219A618A61BA61AA61DA61CA685
:103740001FA61EA619AA18AA1BAA1AAA1DAA1CAA55
:10375000CE010E943301D0939F05C0939E05EEE8F1
:10376000F5E0118210821382128215821482178270
:103770001682118610861386128615861486178681
:10378000168610928D0581E690E00E94B71E20916A
:10379000B8053091B905FC013383228328E233E078
:1037A0003183208390938C0580938B05DF91CF919B
:1037B0001F910F910895EF920F931F93CF93DF9373
:1037C000E80147FD02C034E001C034E1042E000CE2
:1037D000550B57FF03C0519541955109E32E022F18
:1037E000242FAE010E943E1CCE01DF91CF911F918C
:1037F0000F91EF900895FC0188279927E894219173
:103800002032E9F3293010F02E30C8F32B3241F08A
:103810002D3239F4689404C00E941C1C820F911D43
:10382000219120532A30C0F31EF4909581959F4F2B
:103830000895F8940C94D4227AE0979F902D879F56
:10384000802D910D11240895BB27FB015527AA2730
:10385000880F991FAA1FA41710F0A41B839550511D
:10386000B9F7A05DAA3308F0A95DA193009779F795
:10387000B111B1931192CB010C94701EA9E0B0E08C
:10388000E4E4FCE10C94861E6A01122FB02E2BE3B7
:10389000201720F0FF24F394F00E02C02CE3F22E48
:1038A0000F2D27E0AE014F5F5F4F0E94981DBC01B6
:1038B0004981842F8970813031F0E1FC06C0E0FE3F
:1038C00006C090E205C09DE203C09BE201C090E00B
:1038D0005E2D507143FF3CC0911102C083E001C0D6
:1038E00084E0811718F4212F281B01C020E051111A
:1038F0000BC0F601822F30E2882319F031938150FA
:10390000FBCFC20ED11C20E0992329F0D6019C9355
:10391000F60131966F01C6010396E2FE0AC03EE44D
:10392000D6013C9341E411964C93119712963C9327
:1039300006C03EE6F601308341E641833283FC0156
:10394000322F40E2332309F442C041933150FACF81
:1039500042FF44C0911102C083E001C084E081179E
:1039600018F4212F281B01C020E051110BC0F601D3
:10397000822F30E2882319F031938150FBCFC20EA1
:10398000D11C20E0992329F0D6019C93F6013196B1
:103990006F01C6010396E2FE0BC039E4D6013C93E9
:1039A0003EE411963C93119736E412963C9307C07F
:1039B00039E6F60130833EE6318336E63283FC0198
:1039C000322F40E2332319F041933150FBCFFC01F9
:1039D000E20FF11D10828EEF9FEFA6C021E030E0D4
:1039E000911102C020E030E0161617061CF4FB010E
:1039F000319602C0E1E0F0E02E0F3F1FBB2021F026
:103A0000EB2DF0E0319602C0E0E0F0E02E0F3F1F1A
:103A1000E12FF0E02E173F071CF4121B212F01C0ED
:103A200020E08E2D887159F4F601822F30E2882330
:103A300019F031938150FBCFC20ED11C20E09923A5
:103A400029F0D6019C93F60131966F0151110BC0FC
:103A5000F601822F90E3882319F091938150FBCFD8
:103A6000C20ED11C20E00F2D060F9A81342F307129
:103A700044FF03C0913309F40150101624F40930B7
:103A800018F008E001C001E0AB0177FF02C040E0A0
:103A900050E0FB01E41BF50BA1E0B0E0AC0FBD1F53
:103AA000EA0FFB1F8EE2A82E4B01801A91080B2D06
:103AB00010E01195019511094F3FBFEF5B0721F40D
:103AC000D601AC9211966D01641775072CF084161F
:103AD000950614F4818101C080E34150510931966B
:103AE000D60111967D014017510724F0D6018C9321
:103AF0006701E2CF6417750739F4963320F49533E4
:103B000019F4311101C081E3F6018083F701822F9E
:103B100090E2882319F091938150FBCFF701E20FD7
:103B2000F11D108280E090E02996ECE00C94A21E3A
:103B3000283008F027E03327DA01990F311D87FD7F
:103B4000916000966105710539F432602E5F3D93F6
:103B500030E32A95E1F708959F3F30F080387105F2
:103B6000610509F03C5F3C5F3D93913008F080684F
:103B7000911DDF93CF931F930F93FF92EF92192F15
:103B8000987F9695E92F96959695E90FFF27E05E29
:103B9000FE4F99273327EE24FF24A701E701059064
:103BA0000894079428F4360FE71EF81E491F511D8C
:103BB000660F771F881F991F0694A1F70590079439
:103BC00028F4E70EF81E491F561FC11D770F881FE6
:103BD000991F661F0694A1F70590079428F4F80E24
:103BE000491F561FC71FD11D880F991F661F771FBA
:103BF0000694A1F70590079420F4490F561FC71F9C
:103C0000D81F990F661F771F881F0694A9F7849104
:103C10001095177041F0D695C79557954795F7942D
:103C2000E7941A95C1F7E6ECF0E0689415901591C9
:103C300035916591959105907FE27395E118F10AB0
:103C4000430B560BC90BD009C0F7E10CF11E431F03
:103C5000561FC91FD01D7EF4703311F48A95E6CF2C
:103C6000E894015030F0080F0AF40027021708F416
:103C7000202F2395022F7A3328F079E37D932A951C
:103C8000E9F710C07D932A9589F606949795679574
:103C9000379517951794E118F10A430B560BC90B8A
:103CA000D00998F023957E9173957A3308F070E3EC
:103CB0007C932013B8F77E9170617D9330F08395EB
:103CC00071E37D9370E32A95E1F71124EF90FF9063
:103CD0000F911F91CF91DF91992787FD90950895BE
:103CE000DC01FC01672F71917723E1F7329704C063
:103CF0007C916D9370836291AE17BF07C8F30895EE
:103D00002F923F924F925F926F927F928F929F92EB
:103D1000AF92BF92CF92DF92EF92FF920F931F93D9
:103D2000CF93DF93CDB7DEB7CA1BDB0B0FB6F8948A
:103D3000DEBF0FBECDBF09942A88398848885F84CA
:103D40006E847D848C849B84AA84B984C884DF803B
:103D5000EE80FD800C811B81AA81B981CE0FD11D1F
:103D60000FB6F894DEBF0FBECDBFED0108950F93DF
:103D70001F93CF93DF938230910510F482E090E09F
:103D8000E091DC05F091DD0520E030E0A0E0B0E05E
:103D9000309719F1408151810281138148175907E9
:103DA000C8F08417950769F4109731F012960C93B8
:103DB000129713961C9327C00093DC051093DD0522
:103DC00022C02115310519F04217530718F49A0142
:103DD000BD01EF01DF01F801DBCF21153105F9F05D
:103DE000281B390B2430310580F48A819B816115B1
:103DF000710521F0FB019383828304C09093DD055C
:103E00008093DC05FE01329644C0FE01E20FF31FF1
:103E10008193919322503109398328833AC02091AC
:103E2000DA053091DB05232B41F42091020130911A
:103E300003013093DB052093DA05209100013091D6
:103E400001012115310541F42DB73EB74091040120
:103E500050910501241B350BE091DA05F091DB054B
:103E6000E217F307A0F42E1B3F0B2817390778F051
:103E7000AC014E5F5F4F2417350748F04E0F5F1FB0
:103E80005093DB054093DA058193919302C0E0E003
:103E9000F0E0CF01DF91CF911F910F910895CF9363
:103EA000DF93009709F481C0FC01329713821282DC
:103EB000A091DC05B091DD05109781F4208131815E
:103EC000820F931F2091DA053091DB0528173907FF
:103ED00051F5F093DB05E093DA0567C0ED0120E0D2
:103EE00030E0CE17DF0740F44A815B819E01411527
:103EF0005105F1F0EA01F5CFD383C28340815181AE
:103F0000840F951FC817D90759F488819981840FA8
:103F1000951F0296918380838A819B8193838283FC
:103F20002115310529F4F093DD05E093DC053DC052
:103F3000E901FB83EA8349915991C40FD51FEC171E
:103F4000FD0761F480819181840F951F0296E9013C
:103F500099838883828193819B838A83E0E0F0E068
:103F600012968D919C911397009719F0FD01DC0139
:103F7000F7CF8D919C9111979D012E5F3F4F820F3E
:103F8000931F2091DA053091DB052817390769F472
:103F9000309729F41092DD051092DC0502C01382DF
:103FA0001282B093DB05A093DA05DF91CF910895DB
:103FB0005058BB27AA270E94F01F0C9497210E94FB
:103FC000892138F00E94902120F039F49F3F19F4A4
:103FD00026F40C945F210EF4E095E7FB0C94592134
:103FE000E92F0E94A82158F3BA17620773078407C4
:103FF000950720F079F4A6F50C94CA210EF4E0950B
:104000000B2EBA2FA02D0B01B90190010C01CA0192
:10401000A0011124FF27591B99F0593F50F4503E3D
:1040200068F11A16F040A22F232F342F4427585F2F
:10403000F3CF469537952795A795F0405395C9F747
:104040007EF41F16BA0B620B730B840BBAF09150FF
:10405000A1F0FF0FBB1F661F771F881FC2F70EC09E
:10406000BA0F621F731F841F48F487957795679571
:10407000B795F7959E3F08F0B0CF9395880F08F05D
:104080009927EE0F979587950895DF93DD27B92F30
:10409000BF7740E85FE31616170648075B0718F47A
:1040A000D92F0E94D6219F938F937F936F930E9465
:1040B0009122E8E9F0E00E9462210E9497212F916D
:1040C0003F914F915F910E94F121DD2351F0905873
:1040D000A2EA2AED3FE049EC5FE3D0785D270E9439
:1040E000F01FDF910C9497210E9488200C94972157
:1040F0000E94902158F00E94892140F029F45F3FEE
:1041000029F00C94592151110C94CB210C945F216E
:104110000E94A82168F39923B1F3552391F3951BCD
:10412000550BBB27AA2762177307840738F09F5FD8
:104130005F4F220F331F441FAA1FA9F335D00E2E45
:104140003AF0E0E832D091505040E695001CCAF7B2
:104150002BD0FE2F29D0660F771F881FBB1F261775
:1041600037074807AB07B0E809F0BB0B802DBF014C
:10417000FF2793585F4F3AF09E3F510578F00C941B
:1041800059210C94CB215F3FE4F3983ED4F38695FC
:1041900077956795B795F7959F5FC9F7880F911D3C
:1041A0009695879597F90895E1E0660F771F881F28
:1041B000BB1F621773078407BA0720F0621B730BDB
:1041C000840BBA0BEE1F88F7E09508950E94ED204E
:1041D0006894B1110C94CB2108950E94B02188F00D
:1041E0009F5798F0B92F9927B751B0F0E1F0660FBB
:1041F000771F881F991F1AF0BA95C9F714C0B130FC
:1042000091F00E94CA21B1E008950C94CA21672F51
:10421000782F8827B85F39F0B93FCCF3869577952A
:104220006795B395D9F73EF4909580957095619513
:104230007F4F8F4F9F4F0895E89409C097FB3EF43E
:1042400090958095709561957F4F8F4F9F4F9923E3
:10425000A9F0F92F96E9BB279395F6958795779561
:104260006795B795F111F8CFFAF4BB0F11F460FF21
:104270001BC06F5F7F4F8F4F9F4F16C0882311F079
:1042800096E911C0772321F09EE8872F762F05C08D
:10429000662371F096E8862F70E060E02AF09A9528
:1042A000660F771F881FDAF7880F9695879597F91D
:1042B000089597F99F6780E870E060E008959FEFA8
:1042C00080EC0895DF93CF931F930F93FF92EF92AB
:1042D000DF927B018C01689406C0DA2EEF010E9408
:1042E000F121FE01E894A5912591359145915591D3
:1042F000A6F3EF010E94F01FFE019701A801DA94D6
:1043000069F7DF90EF90FF900F911F91CF91DF91B0
:10431000089500240A94161617061806090608952B
:1043200000240A9412161306140605060895092E91
:104330000394000C11F4882352F0BB0F40F4BF2B00
:1043400011F460FF04C06F5F7F4F8F4F9F4F089540
:1043500057FD9058440F551F59F05F3F71F0479536
:10436000880F97FB991F61F09F3F79F0879508951B
:10437000121613061406551FF2CF4695F1DF08C03A
:10438000161617061806991FF1CF86957105610557
:1043900008940895E894BB2766277727CB0197F9FF
:1043A00008950E94952208F48FEF08959B01AC01B7
:1043B00060E070E080E89FE30C9474200E94F1219B
:1043C0000C9497210E94892138F00E94902120F0BE
:1043D000952311F00C9459210C945F2111240C9415
:1043E000CB210E94A82170F3959FC1F3950F50E057
:1043F000551F629FF001729FBB27F00DB11D639F97
:10440000AA27F00DB11DAA1F649F6627B00DA11D3C
:10441000661F829F2227B00DA11D621F739FB00DE2
:10442000A11D621F839FA00D611D221F749F332752
:10443000A00D611D231F849F600D211D822F762FEB
:104440006A2F11249F5750409AF0F1F088234AF0C8
:10445000EE0FFF1FBB1F661F771F881F9150504034
:10446000A9F79E3F510580F00C9459210C94CB2163
:104470005F3FE4F3983ED4F3869577956795B795BB
:10448000F795E7959F5FC1F7FE2B880F911D9695D5
:10449000879597F9089519F416F40C945F210C94FC
:1044A000B9220E94B021B8F39923C9F3B6F39F57FC
:1044B000550B87FF0E94C7220024A0E640EA900126
:1044C00080585695979528F4805C660F771F881F53
:1044D00020F026173707480730F4621B730B840B54
:1044E000202931294A2BA695179407942025312598
:1044F0004A2758F7660F771F881F20F026173707BF
:10450000480730F4620B730B840B200D311D411DE5
:10451000A09581F7B901842F9158880F96958795BA
:1045200008959B01AC010C94DE21990F0008550FF2
:10453000AA0BE0E8FEEF16161706E807F907C0F029
:1045400012161306E407F50798F0621B730B840B31
:10455000950B39F40A2661F0232B242B252B21F40B
:1045600008950A2609F4A140A6958FEF811D811DAB
:1045700008959F3F31F0915020F487957795679586
:10458000B795880F911D9695879597F90895915045
:104590005040660F771F881FD2F70895EE0FFF1F58
:0C45A0000590F491E02D0994F894FFCFF1
:1045AC000000DE052000A9A6A59A9996956A696671
:1045BC00655A595655AAA9A6A59A9996956A6966F7
:1045CC00655A595655AAA9A6A59A9996956A6966E7
:1045DC00655A595655AAA9A6A59A9996956A6966D7
:1045EC00655A595655AAA9A6A59A9996956A6966C7
:1045FC00655A595655AAA9A6A59A9996956A6966B7
:10460C00655A595655AAA9A6A59A9996956A6966A6
:10461C00655A595655AAA9A6A59A9996956A696696
:10462C00655A595655AAA9A6A59A9996956A696686
:10463C00655A595655AAA9A6A59A9996956A696676
:10464C00655A595655AAA9A6A59A9996956A696666
:10465C00655A595655AAA9A6A59A9996956A696656
:10466C00655A595655AAA9A6A59A9996956A696646
:10467C00655A595655AAA9A6A59A9996956A696636
:10468C00655A595655AAA9A6A59A9996956A696626
:10469C00655A595655AAA9A6A59A9996956A696616
:1046AC00655A595655AAAAAAAAAAAAAAAAAAAAAAED
:1046BC00AAAAAAAAA9A9A9A9A9A9A9A9A9A9A9A95A
:1046CC00A9A9A9A9A6A6A6A6A6A6A6A6A6A6A6A672
:1046DC00A6A6A6A6A5A5A5A5A5A5A5A5A5A5A5A57A
:1046EC00A5A5A5A59A9A9A9A9A9A9A9A9A9A9A9AF2
:1046FC009A9A9A9A9999999999999999999999991A
:10470C009999999996969696969696969696969631
:10471C009696969695959595959595959595959539
:10472C00959595956A6A6A6A6A6A6A6A6A6A6A6A31
:10473C006A6A6A6A696969696969696969696969D9
:10474C0069696969666666666666666666666666F1
:10475C0066666666656565656565656565656565F9
:10476C00656565655A5A5A5A5A5A5A5A5A5A5A5A71
:10477C005A5A5A5A59595959595959595959595999
:10478C0059595959565656565656565656565656B1
:10479C0056565656555555555555555555555555B9
:1047AC005555555500000000780A4B0A430A2F0A4C
:1047BC00200A1F0A00000000A70AF709300BF40AB0
:1047CC00140BE90A000000004601870300000000FA
:1047DC002512AB11000000003301E10300000000C2
:1047EC00660B87114D4449207374617475733A00DC
:1047FC004720004D20005320005820005920005520
:10480C0020005620004220007C4163634572726F89
:10481C0072583A007C4163634572726F72593A0068
:10482C007C4779726F4572726F72583A007C477987
:10483C00726F4572726F72593A007C4779726F458C
:10484C0072726F725A3A004E004F0050000D0049C0
:10485C006E697469616C697A696E67202E2E2E20E0
:10486C000D0A00446F6E650D0A0042007C534552E0
:10487C00564F3A00300D0A007C4759524F3A0031DE
:10488C000D0A00556E6B6E6F776E20636861722037
:10489C000020617420636F6C2000280029003A20EE
:1048AC00636F6D6D616E64206E6F7420666F756ED4
:0648BC0064210D0A00005A
:00000001FF
