:100000000C9409010C9431010C9431010C943101D0
:100010000C9431010C9431010C9431010C94310198
:100020000C9431010C9431010C9431010C94310188
:100030000C9431010C9431010C9431010C94310178
:100040000C9433130C9431010C94590D0C941E0D27
:100050000C9431010C9431010C9431010C94310158
:100060000C94F70B0C9431013E0B400B400B400BF2
:10007000400B290B400B400B400B400B400B2C0B53
:10008000400B400B400B400B400B2F0B400B380B31
:100090003B0B400B320B350B084AD73B3BCE016E76
:1000A00084BCBFFDC12F3D6C74319ABD56833DDACF
:1000B0003D00C77F11BED9E4BB4C3E916BAAAABEDE
:1000C000000000803F0000407A10F35A00A0724EFA
:1000D00018090010A5D4E80000E87648170000E4ED
:1000E0000B54020000CA9A3B000000E1F505000035
:1000F00080969800000040420F000000A08601009A
:100100000000102700000000E80300000000640069
:10011000000000000A0000000000010000000000D4
:100120002C76D888DC674F0823DFC1DFAE59E1B1F8
:10013000B796E5E3E453C63AE651997696E8E6C207
:100140008426EB898C9B62ED407C6FFCEFBC9C9F0E
:1001500040F2BAA56FA5F490055A2AF75C936B6C30
:10016000F9676DC11BFCE0E40D47FEF520E6B50024
:10017000D0ED902E0300943577050080841E080092
:1001800000204E0A000000C80C333333330F986E42
:1001900012831141EF8D2114893BE65516CFFEE6FF
:1001A000DB18D1844B381BF77C1D901DA4BBE424C5
:1001B000203284725E228100C9F124ECA1E53D2742
:1001C00000000000240027002A0000000000250095
:1001D00028002B00040404040404040402020202A4
:1001E00002020303030303030102040810204080FA
:1001F000010204081020010204081020000000077A
:1002000000020100000304060000000000000000DE
:10021000D41611241FBECFEFD8E0DEBFCDBF13E050
:10022000A0E0B1E0E4E2F1E402C005900D92AC3F41
:10023000B107D9F725E0ACEFB3E001C01D92AF3BA9
:10024000B207E1F711E0C9E0D1E004C02197FE0157
:100250000E948A20C830D107C9F70E94B1170C94B8
:10026000341A0C940000FC0117A216A211A610A6C5
:1002700013A612A615A614A617A616A611AA10AAAA
:1002800013AA12AA15AA14AA17AA08950F931F93C6
:10029000CF93DF93EC010E940E13AB01BC018C8560
:1002A0009D850197C9F4088119812A813B818C8140
:1002B0009D81AE81BF81401751076207730720F00F
:1002C000801B910BA20BB30B840F951FA61FB71FAA
:1002D0008C839D83AE83BF83488359836A837B83EA
:1002E00088859985AA85BB850097A105B10589F008
:1002F0004C815D816E817F8184179507A607B707C2
:1003000050F481E090E09F878E871C821D821E82C0
:100310001F821D861C86DF91CF911F910F9108953A
:10032000EF92FF920F931F93CF93DF93EC0188819D
:1003300099810E94460108811981F801E684F784B9
:10034000F1E0EF16F10409F051C0F80117861686A6
:10035000F586E486C8010E944601F80114821582E0
:1003600016821782178616868E8180FD28C061E06E
:100370008C810E94930DE881F9818A819B81092EED
:10038000000CAA0BBB0B80879187A287B387F586E9
:10039000E4868E818F5F8E838F81882339F1E88197
:1003A000F981868597858130910529F4178616860F
:1003B00095878487BCCFCF010E944601F0CF60E0D3
:1003C0008C810E94930DE881F9812A813B8180E232
:1003D0009EE4821B930B092E000CAA0BBB0B80879B
:1003E0009187A287B387F586E4861E82DF91CF913D
:1003F0001F910F91FF90EF9008950F931F93CF934C
:10040000DF93EC01162F072F8CED95E09B838A83F9
:1004100061E0812F0E94E00D1C830D831E8280E12C
:1004200090E00E94D21CFC01148215821682178271
:10043000108211821282138217861686998388830E
:100440008A819B81092E000CAA0BBB0B80879187A8
:10045000A287B38781E090E0958784871F82DF9130
:10046000CF911F910F910895CF93DF93FC012081CD
:10047000211117C0615058F0262F30E0F901EB5FD1
:10048000FD4F6081F901EA5FFE4F208102C02AEA38
:100490006AEAEC0169832A8381E194E00E94770A89
:1004A0006A8181E194E0DF91CF910C94770A0F93F8
:1004B0001F93CF93DF93EC01972F888181111DC08B
:1004C000062F172FF80121918F012223E9F02150E7
:1004D00030E0F901EB5FFD4F6081F901EA5FFE4F0B
:1004E000808169838A8381E194E00E94770A6A812E
:1004F00081E194E00E94770AE5CF862FDF91CF91CA
:100500001F910F910C94440BDF91CF911F910F918C
:100510000895EF92FF920F931F93CF93DF93CDB780
:10052000DEB72A970FB6F894DEBF0FBECDBF7C01B1
:10053000072E000C880B990B0E94031F8E010F5F82
:100540001F4F20E041E00E94F619B801C7010E9448
:1005500057022A960FB6F894DEBF0FBECDBFDF91CB
:10056000CF911F910F91FF90EF9008950F931F93DC
:10057000CF93DF93EC018A010E945702B801CE01AC
:100580000E9489026CE973E0CE01DF91CF911F9147
:100590000F910C9457020F931F93CF93DF93EC01AD
:1005A0000A811B8164E473E0C8010E9457026CE970
:1005B00073E0C8010E9457024EA15FA160E573E09D
:1005C0008A819B810E94B60248A559A563E573E024
:1005D0008A819B810E94B6024AA55BA566E573E00D
:1005E0008A819B810E94B6024CA55DA569E573E0F6
:1005F0008A819B810E94B6024EA55FA56CE573E0DF
:100600008A819B810E94B60248A959A96FE573E0CF
:100610008A819B810E94B6024AA95BA962E673E0C7
:100620008A819B810E94B6024CA95DA965E673E0B0
:100630008A819B81DF91CF911F910F910C94B6021B
:10064000EF92FF920F931F93CF93DF93CDB7DEB757
:100650002A970FB6F894DEBF0FBECDBF7C01CB0149
:10066000BA018E010F5F1F4F23E044E00E94F6198C
:10067000B801C7010E9457022A960FB6F894DEBF50
:100680000FBECDBFDF91CF911F910F91FF90EF90E3
:100690000895CF92DF92EF92FF92CF93DF93EC0118
:1006A00069017A010E945702B701A601CE010E949A
:1006B00020036CE973E0CE01DF91CF91FF90EF90C2
:1006C000DF90CF900C9457020F931F93FC018FB7CC
:1006D000F8944091A1055091A2056091A3057091F5
:1006E000A4058FBF848595850197C9F40081118188
:1006F0002281338184819581A681B781840F951FE2
:10070000A61FB71F401751076207730720F0801B11
:10071000910BA20BB30B84839583A683B78340838D
:1007200051836283738380859185A285B385009709
:10073000A105B10589F044815581668177818417CF
:100740009507A607B70750F481E090E09787868762
:100750001482158216821782158614861F910F91B6
:100760000895CF92DF92EF92FF920F931F93CF9352
:100770008C016C0184E0C80ED11CD8011296ED9159
:10078000FC9113978081882331F081E194E00E94ED
:10079000000B7C0109C081E194E00E94000B97FDF1
:1007A00001967C01F594E794D8011296ED91FC91A5
:1007B00013978081882329F081E194E00E94C40A84
:1007C00047C581E194E00E94C40AC82F81E194E00A
:1007D0000E94C40ACA3A91F58A3A09F43EC3893A9A
:1007E00009F43DC3863A09F43CC3853A09F43BC396
:1007F0008A3909F43AC3893909F439C3863909F4C5
:1008000038C3853909F437C38A3609F436C38936C3
:1008100009F435C3863609F434C3853609F433C385
:100820008A3509F432C3893509F431C3863509F4B0
:1008300030C3853509F02FC38FE00AC5C93A91F559
:100840008A3A09F42AC3893A09F429C3863A09F491
:1008500028C3853A09F427C38A3909F426C389399C
:1008600009F425C3863909F424C3853909F423C35F
:100870008A3609F422C3893609F421C3863609F47D
:1008800020C3853609F41FC38A3509F41EC3893590
:1008900009F41DC3863509F41CC3853509F01BC353
:1008A0008FE1D6C4C63A91F58A3A09F416C3893A5B
:1008B00009F415C3863A09F414C3853A09F413C33D
:1008C0008A3909F412C3893909F411C3863909F444
:1008D00010C3853909F40FC38A3609F40EC389366B
:1008E00009F40DC3863609F40CC3853609F40BC32D
:1008F0008A3509F40AC3893509F409C3863509F430
:1009000008C3853509F007C38FE2A2C4C53A91F543
:100910008A3A09F402C3893A09F401C3863A09F410
:1009200000C3853A09F4FFC28A3909F4FEC2893945
:1009300009F4FDC2863909F4FCC2853909F4FBC209
:100940008A3609F4FAC2893609F4F9C2863609F4FE
:10095000F8C2853609F4F7C28A3509F4F6C289353A
:1009600009F4F5C2863509F4F4C2853509F0F3C2FD
:100970008FE36EC4CA3991F58A3A09F4EEC2893A16
:1009800009F4EDC2863A09F4ECC2853A09F4EBC2E7
:100990008A3909F4EAC2893909F4E9C2863909F4C5
:1009A000E8C2853909F4E7C28A3609F4E6C2893615
:1009B00009F4E5C2863609F4E4C2853609F4E3C2D7
:1009C0008A3509F4E2C2893509F4E1C2863509F4B1
:1009D000E0C2853509F0DFC28FE43AC4C93991F528
:1009E0008A3A09F4DAC2893A09F4D9C2863A09F492
:1009F000D8C2853A09F4D7C28A3909F4D6C28939EE
:100A000009F4D5C2863909F4D4C2853909F4D3C2B0
:100A10008A3609F4D2C2893609F4D1C2863609F47D
:100A2000D0C2853609F4CFC28A3509F4CEC28935E1
:100A300009F4CDC2863509F4CCC2853509F0CBC2A4
:100A40008FE506C4C63991F58A3A09F4C6C2893AD7
:100A500009F4C5C2863A09F4C4C2853A09F4C3C28E
:100A60008A3909F4C2C2893909F4C1C2863909F444
:100A7000C0C2853909F4BFC28A3609F4BEC28936BC
:100A800009F4E6C3863609F4BAC2853609F4B9C258
:100A90008A3509F4B8C2893509F4B7C2863509F434
:100AA000B6C2853509F0B5C28FE6D2C3C53991F516
:100AB0008A3A09F4B0C2893A09F4AFC2863A09F415
:100AC000AEC2853A09F4ADC28A3909F4ACC289399B
:100AD00009F4ABC2863909F4AAC2853909F4A9C25E
:100AE0008A3609F4A8C2893609F4A7C2863609F401
:100AF000A6C2853609F4A5C28A3509F4A4C289358F
:100B000009F4A3C2863509F4A2C2853509F0A1C251
:100B10008FE79EC3CA3691F58A3A09F49CC2893A96
:100B200009F49BC2863A09F49AC2853A09F499C23B
:100B30008A3909F498C2893909F497C2863909F4C7
:100B400096C2853909F495C28A3609F494C2893669
:100B500009F493C2863609F492C2853609F491C22B
:100B60008A3509F490C2893509F48FC2863509F4B3
:100B70008EC2853509F08DC28FE86AC3C93691F5FA
:100B80008A3A09F488C2893A09F487C2863A09F494
:100B900086C2853A09F485C28A3909F484C2893942
:100BA00009F483C2863909F453C3853909F47FC235
:100BB0008A3609F47EC2893609F47DC2863609F484
:100BC0007CC2853609F47BC28A3509F47AC289353C
:100BD00009F479C2863509F478C2853509F077C2FF
:100BE0008FE936C3C63691F58A3A09F472C2893A5A
:100BF00009F471C2863A09F470C2853A09F46FC2E9
:100C00008A3909F46EC2893909F46DC2863909F44A
:100C10006CC2853909F46BC28A3609F46AC2893616
:100C200009F469C2863609F468C2853609F467C2D8
:100C30008A3509F466C2893509F465C2863509F436
:100C400064C2853509F063C28FEA02C3C53691F5E7
:100C50008A3A09F45EC2893A09F45DC2863A09F417
:100C60005CC2853A09F45BC28A3909F45AC28939EF
:100C700009F459C2863909F458C2853909F457C2B2
:100C80008A3609F456C2893609F455C2863609F403
:100C900054C2853609F453C28A3509F452C28935E3
:100CA00009F451C2863509F450C2853509F04FC2A6
:100CB0008FEBCEC2CA3591F58A3A09F44AC2893A15
:100CC00009F449C2863A09F448C2853A09F447C290
:100CD0008A3909F446C2893909F445C2863909F4CA
:100CE00044C2853909F443C28A3609F442C28936BE
:100CF00009F441C2863609F440C2853609F43FC280
:100D00008A3509F43EC2893509F43DC2863509F4B5
:100D10003CC2853509F03BC28FEC9AC2C93591F5CA
:100D20008A3A09F436C2893A09F435C2863A09F496
:100D300034C2853A09F433C28A3909F432C2893996
:100D400009F431C2863909F430C2853909F42FC259
:100D50008A3609F42EC2893609F42DC2863609F482
:100D60002CC2853609F42BC28A3509F42AC289358A
:100D700009F429C2863509F428C2853509F027C24D
:100D80008FED66C2C63591F58A3A09F422C2893AD6
:100D900009F421C2863A09F420C2853A09F41FC237
:100DA0008A3909F41EC2893909F41DC2863909F449
:100DB0001CC2853909F41BC28A3609F41AC2893665
:100DC00009F419C2863609F418C2853609F417C227
:100DD0008A3509F416C2893509F415C2863509F435
:100DE00014C2853509F013C28FEE32C2C53509F041
:100DF00010C28A3A09F40FC2893A09F40EC2863A3F
:100E000009F40DC2853A09F40CC28A3909F40BC2FF
:100E1000893909F40AC2863909F409C2853909F405
:100E200008C28A3609F407C2893609F406C2863632
:100E300009F405C2853609F404C28A3509F403C2EF
:100E4000893509F402C2863509F401C291E085357D
:100E500009F090E0892F8195FBC180E0F9C181E024
:100E6000F7C182E0F5C183E0F3C184E0F1C185E020
:100E7000EFC186E0EDC187E0EBC188E0E9C189E020
:100E8000E7C18AE0E5C18BE0E3C18CE0E1C18DE020
:100E9000DFC18EE0DDC180E0DBC180E1D9C181E14D
:100EA000D7C182E1D5C183E1D3C184E1D1C185E15C
:100EB000CFC186E1CDC187E1CBC188E1C9C189E15C
:100EC000C7C18AE1C5C18BE1C3C18CE1C1C18DE15C
:100ED000BFC18EE1BDC180E0BBC180E2B9C181E28A
:100EE000B7C182E2B5C183E2B3C184E2B1C185E298
:100EF000AFC186E2ADC187E2ABC188E2A9C189E298
:100F0000A7C18AE2A5C18BE2A3C18CE2A1C18DE297
:100F10009FC18EE29DC180E09BC180E399C181E3C6
:100F200097C182E395C183E393C184E391C185E3D3
:100F30008FC186E38DC187E38BC188E389C189E3D3
:100F400087C18AE385C18BE383C18CE381C18DE3D3
:100F50007FC18EE37DC180E07BC180E479C181E403
:100F600077C182E475C183E473C184E471C185E40F
:100F70006FC186E46DC187E46BC188E469C189E40F
:100F800067C18AE465C18BE463C18CE461C18DE40F
:100F90005FC18EE45DC180E05BC180E559C181E540
:100FA00057C182E555C183E553C184E551C185E54B
:100FB0004FC186E54DC187E54BC188E549C189E54B
:100FC00047C18AE545C18BE543C18CE541C18DE54B
:100FD0003FC18EE53DC180E03BC180E639C181E67D
:100FE00037C182E635C183E633C184E631C185E687
:100FF0002FC186E62DC187E62BC188E629C18AE686
:1010000027C18BE625C18CE623C18DE621C18EE682
:101010001FC180E01DC180E71BC181E719C182E7C4
:1010200017C183E715C184E713C185E711C186E7BE
:101030000FC187E70DC188E70BC189E709C18AE7BE
:1010400007C18BE705C18CE703C18DE701C18EE7BE
:10105000FFC080E0FDC080E8FBC081E8F9C082E805
:10106000F7C083E8F5C084E8F3C085E8F1C086E8FE
:10107000EFC087E8EDC088E8EBC089E8E9C08AE8FE
:10108000E7C08BE8E5C08CE8E3C08DE8E1C08EE8FE
:10109000DFC080E0DDC080E9DBC081E9D9C082E942
:1010A000D7C083E9D5C084E9D3C085E9D1C087E939
:1010B000CFC088E9CDC089E9CBC08AE9C9C08BE936
:1010C000C7C08CE9C5C08DE9C3C08EE9C1C080E04E
:1010D000BFC080EABDC081EABBC082EAB9C083EA72
:1010E000B7C084EAB5C085EAB3C086EAB1C087EA72
:1010F000AFC088EAADC089EAABC08AEAA9C08BEA72
:10110000A7C08CEAA5C08DEAA3C08EEAA1C080E08A
:101110009FC080EB9DC081EB9BC082EB99C083EBAD
:1011200097C084EB95C085EB93C086EB91C087EBAD
:101130008FC088EB8DC089EB8BC08AEB89C08BEBAD
:1011400087C08CEB85C08DEB83C08EEB81C080E0C7
:101150007FC080EC7DC081EC7BC082EC79C083ECE9
:1011600077C084EC75C085EC73C086EC71C087ECE9
:101170006FC088EC6DC089EC6BC08AEC69C08BECE9
:1011800067C08CEC65C08DEC63C08EEC61C080E004
:101190005FC080ED5DC081ED5BC082ED59C083ED25
:1011A00057C084ED55C085ED53C086ED51C087ED25
:1011B0004FC088ED4DC089ED4BC08AED49C08BED25
:1011C00047C08CED45C08DED43C08EED41C080E041
:1011D0003FC080EE3DC081EE3BC082EE39C083EE61
:1011E00037C084EE35C085EE33C086EE31C087EE61
:1011F0002FC088EE2DC089EE2BC08AEE29C08BEE61
:1012000027C08CEE25C08DEE23C08EEE21C080E07D
:101210001FC080E01DC080EF1BC081EF19C082EFAE
:1012200017C083EF15C084EF13C085EF11C086EFA0
:101230000FC087EF0DC088EF0BC089EF09C08AEFA0
:1012400007C08BEF05C08CEF03C08DEF01C08EEFA0
:10125000C82F8F3771F08F3F09F46AC08D30D1F5F8
:10126000C8010E94A10EF80114A2C6010E947D13BC
:101270005FC068E673E0D80112968D919C91139738
:101280000E945702C0E0F80124A182819381C21715
:1012900030F467EC73E00E945702CF5FF4CF68E64A
:1012A00073E00E945702D80194968C9194978823FA
:1012B00019F0815094968C93F80184A1E80FF11DE8
:1012C0001482B601D80112968D919C9113970E94B9
:1012D00057022EC080EE8C0F8F3550F5F80187A98C
:1012E000882329F06C2F828193810E94340283ED40
:1012F0008C0F8D3068F0D80194968C91823040F03C
:10130000C8010E94A10EF80114A2C6010E947D131B
:10131000D80194968C91F801E80FF11DC4838F5F7A
:10132000803208F08FE1F80184A3E80FF11D1482E8
:101330001E141F040CF421CACF911F910F91FF902E
:10134000EF90DF90CF90089585ED8093BC00809161
:10135000BC0084FDFCCF109200040895613298F423
:1013600020910004243089F460939204282FA2E78E
:10137000B4E0FC018E2F821B861718F481918D93A7
:10138000F9CF80E0089581E0089582E00895CF923A
:10139000DF92EF92FF920F931F93CF93DF936C0135
:1013A000EB017B01E40EF51E00E010E0CE15DF0539
:1013B00061F06991D601ED91FC910190F081E02DF1
:1013C000C6010995080F191FF1CFC801DF91CF9110
:1013D0001F910F91FF90EF90DF90CF9008950895A7
:1013E000E091FD038091FC03E81730F4F0E0EB544A
:1013F000FB4F808190E008958FEF9FEF08959091CB
:10140000FD038091FC03981750F4E92FF0E0EB54B2
:10141000FB4F208130E09F5F9093FD0302C02FEFD0
:101420003FEFC90108958091FC0390E02091FD03F6
:10143000821B91090895CF92DF92EF92FF920F9352
:101440001F93CF93DF937C01CB018A01209101048C
:10145000222389F0EB016B01C40ED51ECC15DD05EE
:1014600069F06991D701ED91FC910190F081E02D37
:10147000C7010995F3CF642F0E94AE09C801DF911F
:10148000CF911F910F91FF90EF90DF90CF90089533
:10149000CF93DF931F92CDB7DEB76983209101040C
:1014A0002223D1F020910404203240F021E030E0EA
:1014B000FC013383228380E090E015C08091020418
:1014C000E82FF0E0E750FB4F998190838F5F809386
:1014D00002048093040405C061E0CE0101960E94DD
:1014E000AE0981E090E00F90DF91CF9108950F93C6
:1014F0001F93CF93DF93FC01A685B7858D01005C18
:101500001F4FE8018881998101968F739927AD015A
:101510004E5B5F4FEA012881398128173907D1F3E3
:10152000E80128813981A20FB31F6C93A685B78586
:10153000A05CBF4F11969C938E93A689B7892C917E
:1015400081E090E0078C02C0880F991F0A94E2F7AF
:10155000822B8C9381E081A30488F589E02D808122
:101560008064808381E090E0DF91CF911F910F91A3
:101570000895FC0181A1882329F0A489B5898C9163
:1015800086FFFBCF11A20895FC01A485B585FD015E
:10159000E05CFF4F20813181329680819181281754
:1015A000390779F080819181A80FB91F8C91208132
:1015B00031812F5F3F4F2F7333273183208390E09A
:1015C00008958FEF9FEF0895DC011C96ED91FC913B
:1015D0001D97DF01A05CBF4F2D913C911197129692
:1015E0008D919C9111972817390739F08D919C9115
:1015F000E80FF91F808190E008958FEF9FEF089525
:10160000FC0124853585F901E05CFF4F80819181E3
:10161000329620813181821B930B8F739927089515
:1016200008951F93CF93DF93EC01162FCA010E94F8
:10163000161A1EAB412F110F550B660B770BFA01D3
:10164000E256F109E831F105D8F4EC5CFF4F0C9457
:101650008A209FA38EA314C099A788A711C09BA717
:101660008AA70EC09DA78CA70BC09FA78EA708C0F6
:1016700099AB88AB05C09BAB8AAB02C09DAB8CAB72
:10168000DF91CF911F910895009769F0FC010190BF
:101690000020E9F73197AF01481B590BBC0181E1EC
:1016A00094E00C94C70980E090E00895682F85E0ED
:1016B00094E00C94480A282F30910404313208F049
:1016C00046C0809100048111FCCF9091030442E058
:1016D000409300042093FF032FEF2093F80410920F
:1016E000F7043093F604E9EFF4E0A6EDB4E020E06F
:1016F000321721F041914D932F5FFACF1092D5040C
:101700002091D504990F922B9093D5049091FE03CC
:10171000913041F41092FE039091D5049093BB0058
:1017200095EC01C095EE9093BC009091000492302E
:10173000E1F39091F8049F3F79F08091F8048032B2
:1017400041F08091F804803331F084E005C081E0FD
:1017500003C082E001C083E01092020410920404EE
:10176000109201040895909100049111FCCF91E032
:10177000909300049093FF032FEF2093F8041092AE
:10178000F70425E02093F6049093D5049091D504B6
:10179000880F892B8093D5048091FE03813041F41A
:1017A0001092FE038091D5048093BB0085EC01C0AC
:1017B00085EE8093BC00809100048130E1F380913C
:1017C000F704863018F49091F70401C096E0A6ED76
:1017D000B4E0E5EBF4E080E0891721F02D9121934E
:1017E0008F5FFACF1092FD038093FC0308951F9240
:1017F0000F920FB60F9211242F933F934F935F9345
:101800006F937F938F939F93AF93BF93EF93FF93C8
:101810008091B900887F803609F49CC068F58832D1
:1018200009F45BC090F4803109F454C038F4882383
:1018300009F4EFC0883009F44DC0EFC0883109F4D5
:101840004CC0803209F45DC0E8C0803409F468C03F
:1018500048F4803309F455C0883309F0DEC0809322
:10186000F804D1C0803509F44FC0883509F45DC053
:10187000883409F0D2C0CFC0883909F4C0C0A8F4B8
:10188000883709F467C038F4883609F463C08037B4
:1018900009F460C0C2C0883809F4B1C0803909F4C5
:1018A0005FC0803809F0B9C05BC0803B09F481C0DB
:1018B00038F4803A09F466C0883A09F47AC0ADC0B9
:1018C000803C09F4A0C0883C09F49DC0883B09F421
:1018D00083C0A3C08091D50410C09091F70480917B
:1018E000F604981770F5E091F70481E08E0F80936D
:1018F000F704F0E0EA52FB4F80818093BB0085EC57
:101900007FC08093F80487C0E091F70481E08E0FD8
:101910008093F7048091BB00F0E0EA52FB4F808394
:101920009091F7048091F60467C0E091F70481E09C
:101930008E0F8093F7048091BB00F0E0EA52FB4FDA
:1019400080838091FF03811166C081E08093FE0354
:1019500084EA5AC083E0809300041092B404CFCF8D
:101960008091B404803208F04AC0E091B40481E070
:101970008E0F8093B4048091BB00F0E0EC56FB4FD7
:101980008083BDCF8091B404803230F4E091B40400
:10199000F0E0EC56FB4F10820E94A4096091B40461
:1019A00070E084E994E0E0E0F0E009951092B4047E
:1019B0002AC084E080930004109293041092920451
:1019C000E0E0F0E0099580919204811105C081E08A
:1019D0008093920410927204E091930481E08E0F40
:1019E00080939304F0E0EE58FB4F80818093BB001E
:1019F0009091930480919204981708F480CF85E821
:101A00008093BC000AC085EC8093BC001092000457
:101A100004C01092F8040E94A409FF91EF91BF91B5
:101A2000AF919F918F917F916F915F914F913F9176
:101A30002F910F900FBE0F901F9018951F920F922D
:101A40000FB60F9211242F933F938F939F93EF9391
:101A5000FF932091590530915A0580915B05909133
:101A60005C052817390731F48091C1008F7D809380
:101A7000C10014C0E0915B05F0915C05E75EFA4F90
:101A8000208180915B0590915C0501968F73992769
:101A900090935C0580935B052093C600FF91EF91C6
:101AA0009F918F913F912F910F900FBE0F901F909C
:101AB00018951F920F920FB60F9211242F934F93E8
:101AC0005F938F939F93EF93FF938091C00082FD6C
:101AD0001CC02091C60080919D0590919E0540916B
:101AE0009F055091A00501968F73992748175907B4
:101AF00071F0E0919D05F0919E05E35AFA4F208325
:101B000090939E0580939D0502C08091C600FF9131
:101B1000EF919F918F915F914F912F910F900FBEF9
:101B20000F901F90189590E0FC01E450FE4F249117
:101B3000FC01E851FE4F3491FC01EC52FE4FE49160
:101B4000EE2309F43CC0222339F1233091F038F41C
:101B50002130A9F0223001F584B58F7D12C02630E6
:101B600091F02730A1F02430B9F4809180008F7D6E
:101B700003C0809180008F77809380000DC084B572
:101B80008F7784BD09C08091B0008F7703C08091AA
:101B9000B0008F7D8093B000F0E0EE0FFF1FE653A2
:101BA000FE4FA591B4919FB7F894611104C08C9138
:101BB0003095382302C0EC913E2B3C939FBF089593
:101BC000CF93DF9390E0FC01E851FE4F2491FC019C
:101BD000EC52FE4F8491882361F190E0880F991FA9
:101BE000FC01E054FE4FC591D491FC01E653FE4F39
:101BF000A591B491611109C09FB7F894888120958F
:101C000082238883EC912E230BC0623061F49FB74E
:101C1000F8948881322F309583238883EC912E2B82
:101C20002C939FBF06C08FB7F894E8812E2B288392
:101C30008FBFDF91CF9108951F93CF93DF93182F1C
:101C4000EB0161E00E94E00D209711F460E004C018
:101C5000CF3FD10539F461E0812FDF91CF911F9102
:101C60000C94930DE12FF0E0E450FE4FE491E3304B
:101C7000F9F048F4E130B9F0E230A1F584B58062C2
:101C800084BDC8BD34C0E630E9F0E73019F1E43076
:101C900049F580918000806280938000D0938B0012
:101CA000C0938A0024C084B5806884BDC7BD1FC0AE
:101CB00080918000806880938000D0938900C093D9
:101CC000880015C08091B00080688093B000C093F8
:101CD000B3000DC08091B00080628093B000C093CB
:101CE000B40005C0C038D1050CF0B5CFAFCFDF913F
:101CF000CF911F910895CF92DF92EF92FF92CF93F1
:101D0000DF936B017C010E940E13EB01C114D1041F
:101D1000E104F10479F00E940E136C1B7D0B683E08
:101D20007340A0F381E0C81AD108E108F108C85156
:101D3000DC4FECCFDF91CF91FF90EF90DF90CF9011
:101D400008957F928F929F92AF92BF92CF92DF922F
:101D5000EF92FF920F931F93CF93DF93CDB7DEB730
:101D6000E6970FB6F894DEBF0FBECDBF7C01FC0135
:101D700084A1882309F44AC1CE0101960E947D13F3
:101D8000F70115A26701F4E0CF0ED11C80E090E0CE
:101D900060E000E0460177247394F60111916F0131
:101DA000112309F405C1163509F4A3C00CF51A3343
:101DB00074F410330CF0BDC0103209F4F7C00CF409
:101DC000C1C023ED210F223008F4B3C0BBC01D34C5
:101DD00009F43FC034F4123409F49BC0173449F1BC
:101DE000B1C0133509F445C0153509F472C0AAC055
:101DF0001D3679F174F4193509F45BC024F41835F3
:101E000009F447C09FC0123609F483C0173689F021
:101E100099C0163709F46DC034F4133751F11537F2
:101E200009F457C08FC01837A1F1193709F441C020
:101E300089C0662331F0AE014F5F5F4FC7010E943A
:101E4000110BCE0101960E947D1380E090E067E6C1
:101E5000ADC0662331F0AE014F5F5F4FC7010E94F6
:101E6000110BCE0101960E947D1380E090E06DE69B
:101E70009DC0662331F0AE014F5F5F4FC7010E94E6
:101E8000110BCE0101960E947D1380E090E063E784
:101E90008DC0662331F0AE014F5F5F4FC7010E94D6
:101EA000110BCE0101960E947D1380E090E068E75F
:101EB0007DC0662331F0AE014F5F5F4FC7010E94C6
:101EC000110BCE0101960E947D1380E090E069E73E
:101ED0006DC0662331F0AE014F5F5F4FC7010E94B6
:101EE000110BCE0101960E947D1380E090E065E722
:101EF0005DC0662331F0AE014F5F5F4FC7010E94A6
:101F0000110BCE0101960E947D1380E090E066E700
:101F10004DC0662331F0AE014F5F5F4FC7010E9495
:101F2000110BCE0101960E947D1380E090E062E6E5
:101F30003DC0E1E0F0E0EC0FFD1FE80FF91F10835A
:101F4000019634C0F70175A26AE673E0828193813D
:101F50000E945702612FF701828193810E9434020F
:101F6000F701A280B380802F90E09EAB8DAB68E735
:101F700073E0C5010E9457028DA99EA94AE0BE01E7
:101F80006F5D7F4F0E943F1ABE016F5D7F4FC5019D
:101F90000E9457026CE973E0C5010E945702CE010E
:101FA00001960E947D1380E090E060E00F5FF5CE27
:101FB000662331F0AE014F5F5F4FC7010E94110BE6
:101FC000F70185A1882361F1B401828193810E9488
:101FD000570261E873E0F701828193810E94570202
:101FE000F70164A170E0828193810E94890263E815
:101FF00073E0F701828193810E94570265E873E0E4
:10200000F701828193810E9457020AC06BE973E055
:10201000F701828193810E945702C7010E94CB027F
:10202000E6960FB6F894DEBF0FBECDBFDF91CF911D
:102030001F910F91FF90EF90DF90CF90BF90AF90E6
:102040009F908F907F900895CF93DF93EC0187E46A
:1020500080937C0080917A00806480937A008091E4
:102060007A0086FDFCCF609178008091790070E065
:10207000782B072E000C880B990B0E94031F2DEC68
:102080003CEC4CEE50E40E94BE1F20E030EC4FE7E9
:1020900054E40E948F1E6C837D838E839F83DF9127
:1020A000CF91089508950F931F93CF93DF938C01E1
:1020B000085F1F4FFC01268937892130310581F4E3
:1020C000EC01178A168A358B248B0E942410C801D4
:1020D0000E9464031C861D861E861F861F8A1E8A18
:1020E000C801DF91CF911F910F910C946403CF939E
:1020F000DF93EC0180E69AEEA0E0B0E0888B998B4C
:10210000AA8BBB8B81E090E09D8B8C8BCE010896D7
:102110000E9464031C861D861E861F861F8A1E8AD7
:10212000DF91CF91089560E070E089E00E941C0E7D
:1021300060E070E08AE00E941C0E60E082E00E9495
:10214000930D60E084E00E94930D60E087E00E94C0
:10215000930D60E088E00C94930D4F925F926F9224
:102160007F928F929F92AF92BF92CF92DF92EF9227
:10217000FF921F93CF93DF9300D000D000D0CDB754
:10218000DEB79E838D83FC01848111E010930104EE
:102190008093030410920204109204048BE390E0F5
:1021A0000E94560B80E00E945B0BED81FE818481D2
:1021B00095810E94B30B85E094E00E94FF09F82E00
:1021C00085E094E00E94FF0960E070E07F2D862B9F
:1021D000972BBC01990F880B990B0E94031F20E0DD
:1021E00030E040E858E30E94BE1FED81FE81668327
:1021F00077838087918785E094E00E94FF09F82E1D
:1022000085E094E00E94FF0960E070E07F2D862B5E
:10221000972BBC01990F880B990B0E94031F20E09C
:1022200030E040E858E30E94BE1FED81FE816287E6
:1022300073878487958785E094E00E94FF09F82ED4
:1022400085E094E00E94FF0960E070E07F2D862B1E
:10225000972BBC01990F880B990B0E94031F20E05C
:1022600030E040E858E30E94BE1FED81FE816687A2
:102270007787808B918B82849384A484B584C68075
:10228000D780E084F1849B01AC010E94BE1F2B012A
:102290003C01A7019601C701B6010E94BE1FA30120
:1022A00092010E94F41D0E9431209B01AC01C501E6
:1022B000B4010E948F1E0E94601E20E030E044E3C3
:1022C00053E40E94BE1F2BED3FE049E450E40E941E
:1022D0008F1EED81FE81668F778F80A391A3A5016C
:1022E0009401C501B4010E94BE1FA30192010E9486
:1022F000F41D0E9431209B01AC01C701B60190582A
:102300000E948F1E0E94601E20E030E044E353E4F0
:102310000E94BE1F2BED3FE049E450E40E948F1E57
:10232000ED81FE8162A373A384A395A36F01FAE5F7
:10233000CF0ED11CED80FE8026E5E20EF11CF701E8
:1023400080819181A281B381F60180839183A283F0
:10235000B3832FB7F8946091A1057091A205809185
:10236000A3059091A4052FBF0E94011FF701608370
:10237000718382839383ED80FE80F2E5EF0EF11C82
:10238000F60120813181428153810E94F31D20E0BA
:1023900030E04AE754E40E948F1EF70160837183A6
:1023A00082839383ED81FE81848110930104809365
:1023B0000304109202041092040483E490E00E944B
:1023C000560B80E00E945B0BED81FE81848195813C
:1023D0000E94B30B85E094E00E94FF09182F85E06E
:1023E00094E00E94FF0960E070E0712F862B972B2C
:1023F000BC01990F880B990B0E94031F20E030E06D
:1024000043E053E40E948F1EED81FE81628B738B4B
:10241000848B958B85E094E00E94FF09182F85E05E
:1024200094E00E94FF0960E070E0712F862B972BEB
:10243000BC01990F880B990B0E94031F20E030E02C
:1024400043E053E40E948F1EED81FE81668B778B03
:10245000808F918F85E094E00E94FF09182F85E01E
:1024600094E00E94FF0960E070E0712F862B972BAB
:10247000BC01990F880B990B0E94031F20E030E0EC
:1024800043E053E40E948F1E2B013C01ED81FE814D
:10249000628F738F848F958FF701C080D180E28027
:1024A000F380ED81FE812289338944895589C701F2
:1024B000B6010E94BE1FED81FE8126A137A140A575
:1024C00051A50E94F41D4B015C01ED81FE8126891E
:1024D0003789408D518DC701B6010E94BE1FED8125
:1024E000FE8122A533A544A555A50E94F41D69834C
:1024F0007A838B839C83A7019601C301B2010E945A
:10250000BE1F9B01AC01ED81FE8162AD73AD84AD58
:1025100095AD0E94F41DED81FE8162AF73AF84AF73
:1025200095AF22A133A144A155A169817A818B8104
:102530009C810E94F31D2B013C01ED81FE81268DC3
:10254000378D40A151A1C501B4010E94F31D2DECAE
:102550003CEC4CEC5DE30E94BE1F9B01AC01C5014D
:10256000B4010E94F31DED81FE8166A377A380A7CD
:1025700091A72DEC3CEC4CEC5DE3C301B2010E9451
:10258000BE1F9B01AC0169817A818B819C810E9475
:10259000F31DED81FE8162A773A784A795A76EE95D
:1025A00073E0828193810E945702ED81FE8146A1F2
:1025B00057A160A571A5828193810E94200360EAE2
:1025C00073E0ED81FE81828193810E945702ED814B
:1025D000FE8142A553A564A575A5828193810E94C1
:1025E00020036BE973E0ED81FE8182819381269661
:1025F0000FB6F894DEBF0FBECDBFDF91CF911F9114
:10260000FF90EF90DF90CF90BF90AF909F908F9012
:102610007F906F905F904F900C9457023FB7F89463
:102620008091B7059091B805A091B905B091BA0510
:1026300026B5A89B05C02F3F19F00196A11DB11D1D
:102640003FBFBA2FA92F982F8827820F911DA11D58
:10265000B11DBC01CD0142E0660F771F881F991F95
:102660004A95D1F708951F920F920FB60F92112439
:102670002F933F938F939F93AF93BF938091A10527
:102680009091A205A091A305B091A4053091B60543
:1026900023E0230F2D3720F40196A11DB11D05C0A5
:1026A00026E8230F0296A11DB11D2093B605809345
:1026B000A1059093A205A093A305B093A4058091D2
:1026C000B7059091B805A091B905B091BA050196EA
:1026D000A11DB11D8093B7059093B805A093B905CE
:1026E000B093BA05BF91AF919F918F913F912F9178
:1026F0000F900FBE0F901F90189520E2FC011192D1
:102700002A95E9F7089504960C947D132F923F9231
:102710004F925F926F927F928F929F92AF92BF92F1
:10272000CF92DF92EF92FF920F931F93CF93DF939D
:10273000CDB7DEB764970FB6F894DEBF0FBECDBF3E
:102740009C8B8B8B88E690E0EB89FC899583848356
:102750001F01FEE52F0E311CF10111821082EB8961
:10276000FC8916A217A210A611A612A613A614A6DB
:1027700015A616A617A610AA11AA168E178E10A2B5
:1027800011A212A213A214A215A21092FD0310927C
:10279000FC0310920204109204041092000411E051
:1027A0001093FF031092FE0361E082E10E94930DFB
:1027B00061E083E10E94930D8091B9008E7F809348
:1027C000B9008091B9008D7F8093B90088E480932F
:1027D000B80085E48093BC00EB89FC898481109368
:1027E00001048093030410920204109204048BE607
:1027F00090E00E94560B80E090E00E94560B81E032
:102800000E945B0BEB89FC89848110930104809307
:10281000030410920204109204048CE190E00E94E0
:10282000560B80E090E00E94560B81E00E945B0B0B
:10283000EB89FC8984811093010480930304109236
:102840000204109204048BE190E00E94560B80E099
:1028500090E00E94560B81E00E945B0B64E670E002
:1028600080E090E00E947B0E3A8229822B893C898D
:10287000225C3F4F388B2F878B899C898E5B9F4FC3
:102880009A8B898BE981FA8180819181803D974083
:102890000CF0F2C0EB89FC898481109301048093D1
:1028A000030410920204109204048BE390E00E944F
:1028B000560B80E00E945B0BEB89FC89848195813B
:1028C0000E94B30B85E094E00E94FF09082F85E089
:1028D00094E00E94FF090C831B822B813C81822B98
:1028E000932BBC01990F880B990B0E94031F20E0CA
:1028F00030E040E858E30E94BE1FEB89FC89668304
:1029000077838087918785E094E00E94FF09082FF4
:1029100085E094E00E94FF090E831D822D813E8197
:10292000822B932BBC01990F880B990B0E94031FDC
:1029300020E030E040E858E30E94BE1FEB89FC89AC
:10294000628773878487958785E094E00E94FF09FA
:10295000082F85E094E00E94FF0908871F822F81DD
:102960003885822B932BBC01990F880B990B0E9401
:10297000031F20E030E040E858E30E94BE1FEB89CF
:10298000FC8966877787808B918B82849384A4846B
:10299000B584C680D780E084F1849B01AC010E949D
:1029A000BE1F2B013C01A7019601C701B6010E9481
:1029B000BE1FA30192010E94F41D0E9431209B01C1
:1029C000AC01C501B4010E948F1E0E94601E20E070
:1029D00030E044E353E40E94BE1F2BED3FE049E4A6
:1029E00050E40E948F1E9B01AC01EF85F889608145
:1029F0007181828193810E94F41DEF85F889608343
:102A0000718382839383A5019401C501B4010E945F
:102A1000BE1FA30192010E94F41D0E9431209B0160
:102A2000AC01C701B60190580E948F1E0E94601E23
:102A300020E030E044E353E40E94BE1F2BED3FE072
:102A400049E450E40E948F1E9B01AC01E989FA8998
:102A500060817181828193810E94F41DE989FA89E4
:102A60006083718382839383E981FA81808191817C
:102A700001969183808306CFEB88FC88FEE3EF0EFE
:102A8000F11C20E030E04AEF54E4F70160817181ED
:102A9000828193810E948F1EF701608371838283FC
:102AA00093830B891C890E5B1F4F20E030E04AEFB7
:102AB00054E4F80160817181828193810E948F1EAC
:102AC000F8016083718382839383E981FA811182A3
:102AD0001082AB88BC88F6E4AF0EB11CCB88DC88D2
:102AE0002AE4C20ED11C8B889C883EE4830E911C84
:102AF000F10180819181803D97400CF0B7C0EB8956
:102B0000FC898481F1E0F093010480930304109226
:102B100002041092040483E490E00E94560B80E0CB
:102B20000E945B0BEB89FC89848195810E94B30B29
:102B300085E094E00E94FF09782E85E094E00E94F1
:102B4000FF097A86198629853A85822B932BBC0149
:102B5000990F880B990B0E94031FEB89FC89628BEC
:102B6000738B848B958B85E094E00E94FF09782E0F
:102B700085E094E00E94FF097C861B862B853C85BE
:102B8000822B932BBC01990F880B990B0E94031F7A
:102B9000EB89FC89668B778B808F918F85E094E041
:102BA0000E94FF09782E85E094E00E94FF097E864E
:102BB0001D862D853E85822B932BBC01990F880B9A
:102BC000990B0E94031F2B013C01EB89FC89628F4A
:102BD000738F848F958F20E030E043E053E4628967
:102BE0007389848995890E948F1EF5012081318126
:102BF000428153810E94F41DF501608371838283B9
:102C0000938320E030E043E053E4EB89FC8966895C
:102C10007789808D918D0E948F1EF60120813181F0
:102C2000428153810E94F41DF60160837183828387
:102C3000938320E030E043E053E4C301B2010E94FB
:102C40008F1E9B01AC01F4016081718182819381AF
:102C50000E94F41DF4016083718382839383F101E8
:102C60008081918101969183808342CF8B889C885B
:102C7000F6E48F0E911C20E030E04AEF54E4F401BA
:102C800060817181828193810E948F1EF401608333
:102C9000718382839383AB88BC88FAE4AF0EB11C46
:102CA00020E030E04AEF54E4F501608171818281D7
:102CB00093810E948F1EF5016083718382839383C9
:102CC000CB88DC88FEE4CF0ED11C20E030E04AEF58
:102CD00054E4F60160817181828193810E948F1E8C
:102CE000F6016083718382839383F70120813181B0
:102CF000428153816DEB73E0EB89FC898281938182
:102D00000E944903F801208131814281538169EC9D
:102D100073E0EB89FC89828193810E944903F4016D
:102D2000208131814281538165ED73E0EB89FC891B
:102D3000828193810E944903F50120813181428182
:102D4000538162EE73E0EB89FC89828193810E945A
:102D50004903F60120813181428153816FEE73E096
:102D6000EB89FC89828193810E94490368EC70E0C1
:102D700080E090E064960FB6F894DEBF0FBECDBF42
:102D8000DF91CF911F910F91FF90EF90DF90CF9047
:102D9000BF90AF909F908F907F906F905F904F907B
:102DA0003F902F900C947B0E0F931F93CF93DF9344
:102DB000E5E0F4E01382128288EE93E0A0E0B0E058
:102DC00084839583A683B78328E033E0318320830F
:102DD000E1E1F4E01382128284839583A683B783B2
:102DE00088E193E0918380838DE595E095878487E2
:102DF00089E195E09787868785EC90E0918B808BC1
:102E000084EC90E0938B828B80EC90E0958B848BAC
:102E100081EC90E0978B868B82EC90E0918F808F95
:102E200086EC90E0938F828F84E0848F83E0858F9F
:102E300087E0868F85E0878F81E080A3E2E6F4E07B
:102E400014821582168217821586148610861186C2
:102E500012861386108211821282138217861686BA
:102E600083E090E00E94D21C8C01FC0110829093C0
:102E7000610480936004E8E4F4E09383828380E457
:102E800093E09183808314821582168217821486C0
:102E9000158616861786158A148A108A118A128A50
:102EA000138A1086118612861386178A168ACF0116
:102EB0000E94771088E390E00E94D21CEC011B83F3
:102EC0000A8380E393E0998388831CA2CE01049651
:102ED0000E947D1388E393E0998388831FA21EA23A
:102EE00019A618A61BA61AA61DA61CA61FA61EA6D6
:102EF00019AA18AA1BAA1AAA1DAA1CAACE010E94C6
:102F00003301D0934704C0934604E6E3F4E0118212
:102F10001082138212821582148217821682118601
:102F200010861386128615861486178616861092CA
:102F3000350480E690E00E94D21C2091600430911C
:102F40006104FC013383228328E233E03183208350
:102F50009093340480933304DF91CF911F910F91AC
:102F60000895789484B5826084BD84B5816084BD01
:102F700085B5826085BD85B5816085BD80916E0017
:102F8000816080936E001092810080918100826048
:102F90008093810080918100816080938100809185
:102FA00080008160809380008091B1008460809374
:102FB000B1008091B00081608093B00080917A0070
:102FC000846080937A0080917A00826080937A0096
:102FD00080917A00816080937A0080917A00806885
:102FE00080937A001092C10060E085E10E94E00DBC
:102FF00061E089E00E94E00D61E08AE00E94E00D5E
:1030000061E082E00E94E00D61E084E00E94E00D5A
:1030100061E087E00E94E00D61E088E00E94E00D41
:103020006CE070E08EEA95E00E94FD016BE070E0DC
:1030300086EA95E00E94FD010E949310E09125042C
:10304000F0912604C1E0D0E0CE010090310402C02E
:10305000880F991F0A94E2F78083E0912104F09190
:1030600022041082E0912304F09124048FEC8083E9
:1030700010923204E0912704F09128042081CE01BF
:1030800000902D0402C0880F991F0A94E2F7822B4A
:103090008083E0912704F09128042081CE010090E4
:1030A0002E0402C0880F991F0A94E2F7822B8083B6
:1030B000E0912704F09128042081CE0100902F0494
:1030C00002C0880F991F0A94E2F7822B8083E09157
:1030D0002704F091280490819E010090300402C0E2
:1030E000220F331F0A94E2F7822F80958923808371
:1030F000E0916004F091610481E0808382EA93E0D2
:103100000E94440B61E08DE00E94E00D84EF91E0AD
:10311000A0E0B0E080936A0490936B04A0936C04E9
:10312000B0936D04D0936F04C0936E0488E494E070
:103130000E9424108091330490913404DC01ED91BD
:10314000FC910190F081E02D099581E194E00E94CD
:10315000B90A80914604909147040E94CB02E09105
:103160004604F091470417AA65EB73E08091600470
:10317000909161040E94570284EF882E99249394C1
:10318000A12CB12C9AEF492E512C612C712C05E306
:1031900012E020E1E22E24E0F22E80913504882313
:1031A00011F061E001C060E08DE00E94930D80911C
:1031B0007004909171048130910511F510927104A1
:1031C0001092700490936F0480936E048091350484
:1031D000811104C081E08093350402C0109235044F
:1031E00082E694E00E9464031092660410926704E1
:1031F0001092680410926904109271041092700485
:1032000082E694E00E94640388E494E00E945310F4
:103210008091A505813049F440926A0450926B0474
:1032200060926C0470926D0408C080926A0490925F
:103230006B04A0926C04B0926D04D0936F04C093A1
:103240006E048091460490914704DC01ED91FC915D
:103250000280F381E02D0995E0914604F091470446
:1032600080E1B696A6E3B4E001900D928A95E1F76D
:103270008EEA95E00E94900186EA95E00E94900116
:10328000E0914604F091470486A98236F9F46BEB8D
:1032900073E080916004909161040E94570288E479
:1032A00094E00E94241040914C0450914D04609190
:1032B0004E0470914F0480914A0490914B040E94F7
:1032C0002003E0914604F091470416AA8091380447
:1032D000909139048830910549F4F092B105E0925B
:1032E000B0051093A9050093A8051FC0893091056A
:1032F00049F41093B1050093B005F092A905E0924E
:10330000A80513C00A9789F480913304909134047E
:10331000DC01ED91FC910280F381E02D0995E091B3
:103320004604F091470411A610A6809140049091A4
:103330004104892B59F48091420490914304892BD4
:1033400029F41092A5050E94931003C081E0809398
:10335000A5058091400490914104181619066CF45B
:1033600061E082E00E94930D60E084E00E94930D92
:1033700060914004709141040FC060E082E00E94BF
:10338000930D61E084E00E94930D60914004709180
:10339000410471956195710989E00E941C0E80912C
:1033A000420490914304181619066CF461E087E01A
:1033B0000E94930D60E088E00E94930D60914204AA
:1033C000709143040FC060E087E00E94930D61E0BC
:1033D00088E00E94930D60914204709143047195BE
:1033E000619571098AE00E941C0ED7CEEF920F936F
:1033F0001F93CF93DF93E80147FD02C034E001C083
:1034000034E1042E000C550B57FF03C05195419534
:103410005109E32E022F242FAE010E94591ACE012A
:10342000DF91CF911F910F91EF900895FC018827B4
:103430009927E89421912032E9F3293010F02E30B9
:10344000C8F32B3241F02D3239F4689404C00E9445
:10345000371A820F911D219120532A30C0F31EF498
:10346000909581959F4F0895F8940C9490207AE060
:10347000979F902D879F802D910D11240895BB2734
:10348000FB015527AA27880F991FAA1FA41710F020
:10349000A41B83955051B9F7A05DAA3308F0A95D2C
:1034A000A193009779F7B111B1931192CB010C94CC
:1034B0008B1CA9E0B0E0EFE5FAE10C94A11C6A01D5
:1034C000122FB02E2BE3201720F0FF24F394F00EE0
:1034D00002C02CE3F22E0F2D27E0AE014F5F5F4FAD
:1034E0000E94B31BBC014981842F8970813031F067
:1034F000E1FC06C0E0FE06C090E205C09DE203C00C
:103500009BE201C090E05E2D507143FF3CC09111E1
:1035100002C083E001C084E0811718F4212F281B2A
:1035200001C020E051110BC0F601822F30E2882348
:1035300019F031938150FBCFC20ED11C20E09923AA
:1035400029F0D6019C93F60131966F01C6010396CE
:10355000E2FE0AC03EE4D6013C9341E411964C934E
:10356000119712963C9306C03EE6F601308341E681
:1035700041833283FC01322F40E2332309F442C0FD
:1035800041933150FACF42FF44C0911102C083E011
:1035900001C084E0811718F4212F281B01C020E00E
:1035A00051110BC0F601822F30E2882319F03193BC
:1035B0008150FBCFC20ED11C20E0992329F0D60107
:1035C0009C93F60131966F01C6010396E2FE0BC093
:1035D00039E4D6013C933EE411963C93119736E4CE
:1035E00012963C9307C039E6F60130833EE63183FC
:1035F00036E63283FC01322F40E2332319F0419347
:103600003150FBCFFC01E20FF11D10828EEF9FEFD6
:10361000A6C021E030E0911102C020E030E0161693
:1036200017061CF4FB01319602C0E1E0F0E02E0F1A
:103630003F1FBB2021F0EB2DF0E0319602C0E0E00F
:10364000F0E02E0F3F1FE12FF0E02E173F071CF494
:10365000121B212F01C020E08E2D887159F4F60134
:10366000822F30E2882319F031938150FBCFC20EB4
:10367000D11C20E0992329F0D6019C93F6013196C4
:103680006F0151110BC0F601822F90E3882319F0CE
:1036900091938150FBCFC20ED11C20E00F2D060F5D
:1036A0009A81342F307144FF03C0913309F40150E3
:1036B000101624F4093018F008E001C001E0AB0155
:1036C00077FF02C040E050E0FB01E41BF50BA1E0F6
:1036D000B0E0AC0FBD1FEA0FFB1F8EE2A82E4B011E
:1036E000801A91080B2D10E01195019511094F3F9B
:1036F000BFEF5B0721F4D601AC9211966D01641700
:1037000075072CF08416950614F4818101C080E3BE
:10371000415051093196D60111967D01401751074C
:1037200024F0D6018C936701E2CF6417750739F452
:10373000963320F4953319F4311101C081E3F60179
:103740008083F701822F90E2882319F091938150B2
:10375000FBCFF701E20FF11D108280E090E0299687
:10376000ECE00C94BD1C283008F027E03327DA0188
:10377000990F311D87FD916000966105710539F43F
:1037800032602E5F3D9330E32A95E1F708959F3F25
:1037900030F080387105610509F03C5F3C5F3D9376
:1037A000913008F08068911DDF93CF931F930F93A2
:1037B000FF92EF92192F987F9695E92F96959695FF
:1037C000E90FFF27E05EFE4F99273327EE24FF2401
:1037D000A701E70105900894079428F4360FE71E27
:1037E000F81E491F511D660F771F881F991F0694E9
:1037F000A1F70590079428F4E70EF81E491F561FFD
:10380000C11D770F881F991F661F0694A1F70590A9
:10381000079428F4F80E491F561FC71FD11D880FA3
:10382000991F661F771F0694A1F70590079420F44F
:10383000490F561FC71FD81F990F661F771F881F74
:103840000694A9F784911095177041F0D695C79505
:1038500057954795F794E7941A95C1F7E6ECF0E091
:1038600068941590159135916591959105907FE239
:103870007395E118F10A430B560BC90BD009C0F739
:10388000E10CF11E431F561FC91FD01D7EF470337B
:1038900011F48A95E6CFE894015030F0080F0AF44D
:1038A0000027021708F4202F2395022F7A3328F0DF
:1038B00079E37D932A95E9F710C07D932A9589F6DF
:1038C000069497956795379517951794E118F10A1F
:1038D000430B560BC90BD00998F023957E91739535
:1038E0007A3308F070E37C932013B8F77E9170610F
:1038F0007D9330F0839571E37D9370E32A95E1F732
:103900001124EF90FF900F911F91CF91DF91992794
:1039100087FD90950895DC01FC01672F7191772355
:10392000E1F7329704C07C916D9370836291AE177A
:10393000BF07C8F308952F923F924F925F926F9204
:103940007F928F929F92AF92BF92CF92DF92EF922F
:10395000FF920F931F93CF93DF93CDB7DEB7CA1BB0
:10396000DB0B0FB6F894DEBF0FBECDBF09942A88DB
:10397000398848885F846E847D848C849B84AA8483
:10398000B984C884DF80EE80FD800C811B81AA8110
:10399000B981CE0FD11D0FB6F894DEBF0FBECDBFDB
:1039A000ED0108950F931F93CF93DF93823091051C
:1039B00010F482E090E0E091BD05F091BE0520E0BA
:1039C00030E0A0E0B0E0309719F1408151810281F0
:1039D000138148175907C8F08417950769F41097A1
:1039E00031F012960C93129713961C9327C00093F4
:1039F000BD051093BE0522C02115310519F04217EF
:103A0000530718F49A01BD01EF01DF01F801DBCF84
:103A100021153105F9F0281B390B2430310580F4CC
:103A20008A819B816115710521F0FB01938382835B
:103A300004C09093BE058093BD05FE01329644C03C
:103A4000FE01E20FF31F81939193225031093983D4
:103A500028833AC02091BB053091BC05232B41F44B
:103A600020910201309103013093BC052093BB05E6
:103A700020910001309101012115310541F42DB74C
:103A80003EB74091040150910501241B350BE09194
:103A9000BB05F091BC05E217F307A0F42E1B3F0B0A
:103AA0002817390778F0AC014E5F5F4F24173507B0
:103AB00048F04E0F5F1F5093BC054093BB058193A8
:103AC000919302C0E0E0F0E0CF01DF91CF911F9130
:103AD0000F910895CF93DF93009709F481C0FC0103
:103AE000329713821282A091BD05B091BE05109746
:103AF00081F420813181820F931F2091BB05309189
:103B0000BC052817390751F5F093BC05E093BB05B8
:103B100067C0ED0120E030E0CE17DF0740F44A81B6
:103B20005B819E0141155105F1F0EA01F5CFD38388
:103B3000C28340815181840F951FC817D90759F45A
:103B400088819981840F951F0296918380838A8151
:103B50009B81938382832115310529F4F093BE055F
:103B6000E093BD053DC0E901FB83EA83499159918A
:103B7000C40FD51FEC17FD0761F480819181840F7C
:103B8000951F0296E90199838883828193819B83A3
:103B90008A83E0E0F0E012968D919C911397009754
:103BA00019F0FD01DC01F7CF8D919C9111979D01DA
:103BB0002E5F3F4F820F931F2091BB053091BC05B4
:103BC0002817390769F4309729F41092BE0510922E
:103BD000BD0502C013821282B093BC05A093BB0541
:103BE000DF91CF9108955058BB27AA270E940B1E42
:103BF0000C947C1F0E946E1F38F00E94751F20F0ED
:103C000039F49F3F19F426F40C94441F0EF4E09508
:103C1000E7FB0C943E1FE92F0E948D1F58F3BA1743
:103C2000620773078407950720F079F4A6F50C94D2
:103C3000AF1F0EF4E0950B2EBA2FA02D0B01B9018A
:103C400090010C01CA01A0011124FF27591B99F012
:103C5000593F50F4503E68F11A16F040A22F232F1E
:103C6000342F4427585FF3CF469537952795A7956E
:103C7000F0405395C9F77EF41F16BA0B620B730B15
:103C8000840BBAF09150A1F0FF0FBB1F661F771F86
:103C9000881FC2F70EC0BA0F621F731F841F48F43B
:103CA000879577956795B795F7959E3F08F0B0CFC4
:103CB0009395880F08F09927EE0F979587950895AB
:103CC000DF93DD27B92FBF7740E85FE316161706AD
:103CD00048075B0718F4D92F0E94B61F9F938F9354
:103CE0007F936F930E947120E8E9F0E00E94471FE4
:103CF0000E947C1F2F913F914F915F910E94D11F95
:103D0000DD2351F09058A2EA2AED3FE049EC5FE351
:103D1000D0785D270E940B1EDF910C947C1F0E94BF
:103D2000A31E0C947C1F0E94751F58F00E946E1FEA
:103D300040F029F45F3F29F00C943E1F51110C9480
:103D4000B01F0C94441F0E948D1F68F39923B1F398
:103D5000552391F3951B550BBB27AA2762177307B1
:103D6000840738F09F5F5F4F220F331F441FAA1F45
:103D7000A9F335D00E2E3AF0E0E832D09150504001
:103D8000E695001CCAF72BD0FE2F29D0660F771FAF
:103D9000881FBB1F261737074807AB07B0E809F095
:103DA000BB0B802DBF01FF2793585F4F3AF09E3F1A
:103DB000510578F00C943E1F0C94B01F5F3FE4F364
:103DC000983ED4F3869577956795B795F7959F5F5D
:103DD000C9F7880F911D9695879597F90895E1E0A9
:103DE000660F771F881FBB1F621773078407BA0708
:103DF00020F0621B730B840BBA0BEE1F88F7E09563
:103E00000895E89409C097FB3EF4909580957095CD
:103E100061957F4F8F4F9F4F9923A9F0F92F96E916
:103E2000BB279395F695879577956795B795F1118B
:103E3000F8CFFAF4BB0F11F460FF1BC06F5F7F4F28
:103E40008F4F9F4F16C0882311F096E911C077233A
:103E500021F09EE8872F762F05C0662371F096E843
:103E6000862F70E060E02AF09A95660F771F881F12
:103E7000DAF7880F9695879597F9089597F99F67D0
:103E800080E870E060E008959FEF80EC0895DF9394
:103E9000CF931F930F93FF92EF92DF927B018C01E0
:103EA000689406C0DA2EEF010E94D11FFE01E8944B
:103EB000A5912591359145915591A6F3EF010E9469
:103EC0000B1EFE019701A801DA9469F7DF90EF90CD
:103ED000FF900F911F91CF91DF91089500240A94D4
:103EE0001616170618060906089500240A941216D5
:103EF0001306140605060895092E0394000C11F408
:103F0000882352F0BB0F40F4BF2B11F460FF04C0B4
:103F10006F5F7F4F8F4F9F4F089557FD9058440F0D
:103F2000551F59F05F3F71F04795880F97FB991F18
:103F300061F09F3F79F087950895121613061406D5
:103F4000551FF2CF4695F1DF08C016161706180662
:103F5000991FF1CF86957105610508940895E8943D
:103F6000BB2766277727CB0197F908959B01AC0102
:103F700060E070E080E89FE30C948F1E0E94D11FE8
:103F80000C947C1F0E946E1F38F00E94751F20F059
:103F9000952311F00C943E1F0C94441F11240C9493
:103FA000B01F0E948D1F70F3959FC1F3950F50E0D5
:103FB000551F629FF001729FBB27F00DB11D639FDB
:103FC000AA27F00DB11DAA1F649F6627B00DA11D81
:103FD000661F829F2227B00DA11D621F739FB00D27
:103FE000A11D621F839FA00D611D221F749F332797
:103FF000A00D611D231F849F600D211D822F762F30
:104000006A2F11249F5750409AF0F1F088234AF00C
:10401000EE0FFF1FBB1F661F771F881F9150504078
:10402000A9F79E3F510580F00C943E1F0C94B01FE1
:104030005F3FE4F3983ED4F3869577956795B795FF
:10404000F795E7959F5FC1F7FE2B880F911D969519
:10405000879597F9089519F416F40C94441F0C945D
:1040600075200E94951FB8F39923C9F3B6F39F57A3
:10407000550B87FF0E9483200024A0E640EA9001B0
:1040800080585695979528F4805C660F771F881F97
:1040900020F026173707480730F4621B730B840B98
:1040A000202931294A2BA6951794079420253125DC
:1040B0004A2758F7660F771F881F20F02617370703
:1040C000480730F4620B730B840B200D311D411D2A
:1040D000A09581F7B901842F9158880F96958795FF
:1040E00008959B01AC010C94BE1F9F3F31F091508D
:1040F00020F4879577956795B795880F911D9695CC
:10410000879597F9089591505040660F771F881F43
:10411000D2F70895EE0FFF1F0590F491E02D09945A
:04412000F894FFCF41
:104124000000BF052000A9A6A59A9996956A69661C
:10413400655A595655AAA9A6A59A9996956A696683
:10414400655A595655AAA9A6A59A9996956A696673
:10415400655A595655AAA9A6A59A9996956A696663
:10416400655A595655AAA9A6A59A9996956A696653
:10417400655A595655AAA9A6A59A9996956A696643
:10418400655A595655AAA9A6A59A9996956A696633
:10419400655A595655AAA9A6A59A9996956A696623
:1041A400655A595655AAA9A6A59A9996956A696613
:1041B400655A595655AAA9A6A59A9996956A696603
:1041C400655A595655AAA9A6A59A9996956A6966F3
:1041D400655A595655AAA9A6A59A9996956A6966E3
:1041E400655A595655AAA9A6A59A9996956A6966D3
:1041F400655A595655AAA9A6A59A9996956A6966C3
:10420400655A595655AAA9A6A59A9996956A6966B2
:10421400655A595655AAA9A6A59A9996956A6966A2
:10422400655A595655AAAAAAAAAAAAAAAAAAAAAA79
:10423400AAAAAAAAA9A9A9A9A9A9A9A9A9A9A9A9E6
:10424400A9A9A9A9A6A6A6A6A6A6A6A6A6A6A6A6FE
:10425400A6A6A6A6A5A5A5A5A5A5A5A5A5A5A5A506
:10426400A5A5A5A59A9A9A9A9A9A9A9A9A9A9A9A7E
:104274009A9A9A9A999999999999999999999999A6
:1042840099999999969696969696969696969696BE
:1042940096969696959595959595959595959595C6
:1042A400959595956A6A6A6A6A6A6A6A6A6A6A6ABE
:1042B4006A6A6A6A69696969696969696969696966
:1042C400696969696666666666666666666666667E
:1042D4006666666665656565656565656565656586
:1042E400656565655A5A5A5A5A5A5A5A5A5A5A5AFE
:1042F4005A5A5A5A59595959595959595959595926
:10430400595959595656565656565656565656563D
:104314005656565655555555555555555555555545
:104324005555555500000000480A1B0A130AFF0999
:10433400F009EF0900000000770AC709000BC40A5E
:10434400E40AB90A000000008613AD100000000062
:1043540083135210000000003301B1030000000079
:10436400771053104D4449207374617475733A0087
:104374004720004D200053200058200059200055AC
:1043840020005620004220000D00556E6B6E6F77A2
:104394006E2063686172200020617420636F6C205A
:1043A40000280029003A20636F6D6D616E64206EF1
:1043B4006F7420666F756E64210A000D0A004E004A
:1043C4004F00496E697469616C697A696E67202E61
:1043D4002E2E200A00446F6E650A0042004163637A
:1043E4004572726F72583A20004163634572726F6E
:1043F40072593A20004779726F4572726F72583A57
:1044040020004779726F4572726F72593A200047E3
:0C44140079726F4572726F725A3A200084
:00000001FF
