:100000000C94F2000C941A010C941A010C941A012D
:100010000C941A010C941A010C941A010C941A01F4
:100020000C941A010C941A010C941A010C941A01E4
:100030000C941A010C941A010C941A010C941A01D4
:100040000C94A30C0C941A010C94690C0C942E0CB7
:100050000C941A010C941A010C941A010C941A01B4
:100060000C941A010C941A01D10BD30BD30BD30BA4
:10007000D30BBC0BD30BD30BD30BD30BD30BBF0BBB
:10008000D30BD30BD30BD30BD30BC20BD30BCB0B99
:10009000CE0BD30BC50BC80B00407A10F35A00A04F
:1000A000724E18090010A5D4E80000E87648170041
:1000B00000E40B54020000CA9A3B000000E1F50581
:1000C000000080969800000040420F000000A086CB
:1000D00001000000102700000000E80300000000FD
:1000E0006400000000000A000000000001000000A1
:1000F00000002C76D888DC674F0823DFC1DFAE59BB
:10010000E1B1B796E5E3E453C63AE651997696E84D
:10011000E6C28426EB898C9B62ED407C6FFCEFBCD1
:100120009C9F40F2BAA56FA5F490055A2AF75C93FC
:100130006B6CF9676DC11BFCE0E40D47FEF520E632
:10014000B500D0ED902E0300943577050080841E15
:10015000080000204E0A000000C80C333333330F70
:10016000986E12831141EF8D2114893BE65516CF0D
:10017000FEE6DB18D1844B381BF77C1D901DA4BB19
:10018000E424203284725E228100C9F124ECA1E5CE
:100190003D2700000000250028002B000404040473
:1001A0000404040402020202020203030303030321
:1001B00001020408102040800102040810200102FE
:1001C00004081020000000070002010000030406DC
:1001D00000000000000000000000000024002700D4
:1001E0002A00760D11241FBECFEFD8E0DEBFCDBFB1
:1001F00013E0A0E0B1E0EEE2FCE202C005900D9257
:10020000AC3AB107D9F724E0ACEAB3E001C01D92E3
:10021000A039B207E1F710E0C2EFD0E004C02197A7
:10022000FE010E940F16C13FD107C9F70E94220E9E
:100230000C94C20F0C940000FC01168215821086EB
:100240001782128611861486138616861586108AE2
:100250001786128A118A148A138A0895CF93DF931E
:10026000FC012081211117C0615058F0262F30E089
:10027000F901EB5FFD4F6081F901EA5FFE4F2081DC
:1002800002C02AEA6AEAEC0169832A8380EB93E0E0
:100290000E947D0A6A8180EB93E0DF91CF910C94FC
:1002A0007D0A0F931F93CF93DF93EC01972F8881E3
:1002B00081111DC0062F172FF80121918F012223D4
:1002C000E9F0215030E0F901EB5FFD4F6081F90169
:1002D000EA5FFE4F808169838A8380EB93E00E940E
:1002E0007D0A6A8180EB93E00E947D0AE5CF862F2C
:1002F000DF91CF911F910F910C945B0BDF91CF9108
:100300001F910F910895EF92FF920F931F93CF9338
:10031000DF93CDB7DEB72A970FB6F894DEBF0FBED6
:10032000CDBF7C01072E000C880B990B0E94D014C6
:100330008E010F5F1F4F20E041E00E94840FB80143
:10034000C7010E9451012A960FB6F894DEBF0FBE76
:10035000CDBFDF91CF911F910F91FF90EF90089546
:100360000F931F93CF93DF93EC018A010E945101F9
:10037000B801CE010E94830169E473E0CE01DF91F0
:10038000CF911F910F910C9451010F931F93CF9315
:10039000DF93EC010A811B8164E273E0C8010E94D3
:1003A000510169E473E0C8010E9451014D815E81F1
:1003B00060E373E08A819B810E94B0014F81588580
:1003C00063E373E08A819B810E94B00149855A856D
:1003D00066E373E08A819B810E94B0014B855C8556
:1003E00069E373E08A819B810E94B0014D855E853F
:1003F0006CE373E08A819B810E94B0014F8558892C
:100400006FE373E08A819B810E94B00149895A8918
:1004100062E473E08A819B810E94B0014B895C8910
:1004200065E473E08A819B81DF91CF911F910F91E9
:100430000C94B0012F923F924F925F926F927F92F5
:100440008F929F92AF92BF92CF92DF92EF92FF92E4
:100450000F931F93CF93DF93CDB7DEB7CB57D1095F
:100460000FB6F894DEBF0FBECDBF8C019E012E5B90
:100470003F4FEA963FAF2EAFEA9780E2D9011D9237
:100480008A95E9F77E01B2E2EB0EF11CD8011296D3
:10049000ED91FC9113978081882349F080EB93E0E4
:1004A0000E94060BEC969FAF8EAFEC970DC080EBD1
:1004B00093E00E94060B97FD0196FC01F595E795E8
:1004C000EC96FFAFEEAFEC97D8011296ED91FC9150
:1004D00013978081882329F080EB93E00E94CA0A59
:1004E00056C580EB93E00E94CA0AD82E80EB93E0B9
:1004F0000E94CA0ABAEADB1232C08A3A09F44CC333
:10050000893A09F44BC3863A09F44AC3853A09F497
:1005100049C38A3909F448C3893909F447C386397C
:1005200009F446C3853909F445C38A3609F444C33E
:10053000893609F443C3863609F442C3853609F483
:1005400041C38A3509F440C3893509F43FC3863570
:1005500009F43EC3853509F03DC38FE018C5E9EACB
:10056000DE1232C08A3A09F437C3893A09F436C335
:10057000863A09F435C3853A09F434C38A3909F453
:1005800033C3893909F432C3863909F431C3853953
:1005900009F430C38A3609F42FC3893609F42EC30F
:1005A000863609F42DC3853609F42CC38A3509F43F
:1005B0002BC3893509F42AC3863509F429C3853547
:1005C00009F028C38FE1E3C4F6EADF1232C08A3AA9
:1005D00009F422C3893A09F421C3863A09F420C3F5
:1005E000853A09F41FC38A3909F41EC3893909F40D
:1005F0001DC3863909F41CC3853909F41BC38A3627
:1006000009F41AC3893609F419C3863609F418C3E4
:10061000853609F417C38A3509F416C3893509F4F8
:1006200015C3863509F414C3853509F013C38FE269
:10063000AEC425EAD21232C08A3A09F40DC3893A0F
:1006400009F40CC3863A09F40BC3853A09F40AC3CA
:100650008A3909F409C3893909F408C3863909F4C8
:1006600007C3853909F406C38A3609F405C38936F8
:1006700009F404C3863609F403C3853609F402C3BA
:100680008A3509F401C3893509F400C3863509F4B4
:10069000FFC2853509F0FEC28FE379C43AE9D3126F
:1006A00032C08A3A09F4F8C2893A09F4F7C2863AA4
:1006B00009F4F6C2853A09F4F5C28A3909F4F4C29C
:1006C000893909F4F3C2863909F4F2C2853909F48B
:1006D000F1C28A3609F4F0C2893609F4EFC28636CF
:1006E00009F4EEC2853609F4EDC28A3509F4ECC28C
:1006F000893509F4EBC2863509F4EAC2853509F07B
:10070000E9C28FE444C499E9D91232C08A3A09F4A3
:10071000E3C2893A09F4E2C2863A09F4E1C2853AB1
:1007200009F4E0C28A3909F4DFC2893909F4DEC26A
:10073000863909F4DDC2853909F4DCC28A3609F448
:10074000DBC2893609F4DAC2863609F4D9C28536A5
:1007500009F4D8C28A3509F4D7C2893509F4D6C25A
:10076000863509F4D5C2853509F0D4C28FE50FC4AA
:10077000A6E9DA1232C08A3A09F4CEC2893A09F4FB
:10078000CDC2863A09F4CCC2853A09F4CBC28A3983
:1007900009F4CAC2893909F4C9C2863909F4C8C240
:1007A000853909F4C7C28A3609F4C6C2893609F404
:1007B000EEC3863609F4C2C2853609F4C1C28A3551
:1007C00009F4C0C2893509F4BFC2863509F4BEC236
:1007D000853509F0BDC28FE6DAC3B5E9DB1232C058
:1007E0008A3A09F4B7C2893A09F4B6C2863A09F4DA
:1007F000B5C2853A09F4B4C28A3909F4B3C2893959
:1008000009F4B2C2863909F4B1C2853909F4B0C21B
:100810008A3609F4AFC2893609F4AEC2863609F4C5
:10082000ADC2853609F4ACC28A3509F4ABC289354C
:1008300009F4AAC2863509F4A9C2853509F0A8C20F
:100840008FE7A5C3EAE6DE1232C08A3A09F4A2C2F3
:10085000893A09F4A1C2863A09F4A0C2853A09F49A
:100860009FC28A3909F49EC2893909F49DC286392A
:1008700009F49CC2853909F49BC28A3609F49AC2EC
:10088000893609F499C2863609F498C2853609F486
:1008900097C28A3509F496C2893509F495C286351E
:1008A00009F494C2853509F093C28FE870C3F9E664
:1008B000DF1232C08A3A09F48DC2893A09F48CC237
:1008C000863A09F48BC2853A09F48AC28A3909F456
:1008D00089C2893909F488C2863909F458C385392F
:1008E00009F484C28A3609F483C2893609F482C2C3
:1008F000863609F481C2853609F480C28A3509F446
:100900007FC2893509F47EC2863509F47DC28535FA
:1009100009F07CC28FE93BC326E6D21232C08A3A84
:1009200009F476C2893A09F475C2863A09F474C2A8
:10093000853A09F473C28A3909F472C2893909F413
:1009400071C2863909F470C2853909F46FC28A36DA
:1009500009F46EC2893609F46DC2863609F46CC298
:10096000853609F46BC28A3509F46AC2893509F4FF
:1009700069C2863509F468C2853509F067C28FEA15
:1009800006C335E6D31232C08A3A09F461C2893A05
:1009900009F460C2863A09F45FC2853A09F45EC27E
:1009A0008A3909F45DC2893909F45CC2863909F4CF
:1009B0005BC2853909F45AC28A3609F459C28936AC
:1009C00009F458C2863609F457C2853609F456C26E
:1009D0008A3509F455C2893509F454C2863509F4BB
:1009E00053C2853509F052C28FEBD1C29AE5D912B4
:1009F00032C08A3A09F44CC2893A09F44BC2863AA9
:100A000009F44AC2853A09F449C28A3909F448C24C
:100A1000893909F447C2863909F446C2853909F48F
:100A200045C28A3609F444C2893609F443C286367F
:100A300009F442C2853609F441C28A3509F440C23C
:100A4000893509F43FC2863509F43EC2853509F07F
:100A50003DC28FEC9CC2A9E5DA1232C08A3A09F491
:100A600037C2893A09F436C2863A09F435C2853A62
:100A700009F434C28A3909F433C2893909F432C21B
:100A8000863909F431C2853909F430C28A3609F44D
:100A90002FC2893609F42EC2863609F42DC2853656
:100AA00009F42CC28A3509F42BC2893509F42AC20B
:100AB000863509F429C2853509F028C28FED67C251
:100AC000B6E5DB1232C08A3A09F422C2893A09F447
:100AD00021C2863A09F420C2853A09F41FC28A3934
:100AE00009F41EC2893909F41DC2863909F41CC2F1
:100AF000853909F41BC28A3609F41AC2893609F409
:100B000019C2863609F418C2853609F417C28A3527
:100B100009F416C2893509F415C2863509F414C2E0
:100B2000853509F013C28FEE32C2E5E5DE1210C240
:100B30008A3A09F40FC2893A09F40EC2863A09F4D6
:100B40000DC2853A09F40CC28A3909F40BC28939FD
:100B500009F40AC2863909F409C2853909F408C2C0
:100B60008A3609F407C2893609F406C2863609F4C2
:100B700005C2853609F404C28A3509F403C28935F1
:100B800009F402C2863509F401C291E0853509F005
:100B900090E0892F8195FBC180E0F9C181E0F7C128
:100BA00082E0F5C183E0F3C184E0F1C185E0EFC1EB
:100BB00086E0EDC187E0EBC188E0E9C189E0E7C1EB
:100BC0008AE0E5C18BE0E3C18CE0E1C18DE0DFC1EB
:100BD0008EE0DDC180E0DBC180E1D9C181E1D7C118
:100BE00082E1D5C183E1D3C184E1D1C185E1CFC127
:100BF00086E1CDC187E1CBC188E1C9C189E1C7C127
:100C00008AE1C5C18BE1C3C18CE1C1C18DE1BFC126
:100C10008EE1BDC180E0BBC180E2B9C181E2B7C154
:100C200082E2B5C183E2B3C184E2B1C185E2AFC162
:100C300086E2ADC187E2ABC188E2A9C189E2A7C162
:100C40008AE2A5C18BE2A3C18CE2A1C18DE29FC162
:100C50008EE29DC180E09BC180E399C181E397C191
:100C600082E395C183E393C184E391C185E38FC19E
:100C700086E38DC187E38BC188E389C189E387C19E
:100C80008AE385C18BE383C18CE381C18DE37FC19E
:100C90008EE37DC180E07BC180E479C181E477C1CE
:100CA00082E475C183E473C184E471C185E46FC1DA
:100CB00086E46DC187E46BC188E469C189E467C1DA
:100CC0008AE465C18BE463C18CE461C18DE45FC1DA
:100CD0008EE45DC180E05BC180E559C181E557C10B
:100CE00082E555C183E553C184E551C185E54FC116
:100CF00086E54DC187E54BC188E549C189E547C116
:100D00008AE545C18BE543C18CE541C18DE53FC115
:100D10008EE53DC180E03BC180E639C181E637C147
:100D200082E635C183E633C184E631C185E62FC151
:100D300086E62DC187E62BC188E629C18AE627C150
:100D40008BE625C18CE623C18DE621C18EE61FC14D
:100D500080E01DC180E71BC181E719C182E717C18F
:100D600083E715C184E713C185E711C186E70FC189
:100D700087E70DC188E70BC189E709C18AE707C189
:100D80008BE705C18CE703C18DE701C18EE7FFC08A
:100D900080E0FDC080E8FBC081E8F9C082E8F7C0D0
:100DA00083E8F5C084E8F3C085E8F1C086E8EFC0C9
:100DB00087E8EDC088E8EBC089E8E9C08AE8E7C0C9
:100DC0008BE8E5C08CE8E3C08DE8E1C08EE8DFC0C9
:100DD00080E0DDC080E9DBC081E9D9C082E9D7C00D
:100DE00083E9D5C084E9D3C085E9D1C087E9CFC004
:100DF00088E9CDC089E9CBC08AE9C9C08BE9C7C001
:100E00008CE9C5C08DE9C3C08EE9C1C080E0BFC018
:100E100080EABDC081EABBC082EAB9C083EAB7C03C
:100E200084EAB5C085EAB3C086EAB1C087EAAFC03C
:100E300088EAADC089EAABC08AEAA9C08BEAA7C03C
:100E40008CEAA5C08DEAA3C08EEAA1C080E09FC055
:100E500080EB9DC081EB9BC082EB99C083EB97C078
:100E600084EB95C085EB93C086EB91C087EB8FC078
:100E700088EB8DC089EB8BC08AEB89C08BEB87C078
:100E80008CEB85C08DEB83C08EEB81C080E07FC092
:100E900080EC7DC081EC7BC082EC79C083EC77C0B4
:100EA00084EC75C085EC73C086EC71C087EC6FC0B4
:100EB00088EC6DC089EC6BC08AEC69C08BEC67C0B4
:100EC0008CEC65C08DEC63C08EEC61C080E05FC0CF
:100ED00080ED5DC081ED5BC082ED59C083ED57C0F0
:100EE00084ED55C085ED53C086ED51C087ED4FC0F0
:100EF00088ED4DC089ED4BC08AED49C08BED47C0F0
:100F00008CED45C08DED43C08EED41C080E03FC00B
:100F100080EE3DC081EE3BC082EE39C083EE37C02B
:100F200084EE35C085EE33C086EE31C087EE2FC02B
:100F300088EE2DC089EE2BC08AEE29C08BEE27C02B
:100F40008CEE25C08DEE23C08EEE21C080E01FC048
:100F500080E01DC080EF1BC081EF19C082EF17C079
:100F600083EF15C084EF13C085EF11C086EF0FC06B
:100F700087EF0DC088EF0BC089EF09C08AEF07C06B
:100F80008BEF05C08CEF03C08DEF01C08EEF8F3764
:100F900009F4E6C18F3F09F441C28D3009F022C245
:100FA00080E2D7011D928A95E9F7F801C588D688B5
:100FB0004601F0E28F0E911C85E893E00E945B0BE6
:100FC000D6018D916D01482E512C612C712C19A2E6
:100FD0005E01B1E2AB0EB11CC301B2012AE030E008
:100FE00040E050E00E94ED15842DEAE02E9F80192C
:100FF0001124F1E0AF1AB1088A3014F4805D01C009
:10100000895CD5018C9329013A01232B242B252BB4
:1010100019F7C5010E945B0BC814D90469F668E48E
:1010200073E0F801828193810E945101D8015596A5
:101030006D917C915697C7010E945014CE01019684
:101040000E94DF0BF80114824701C12CD12C80E0F3
:10105000312C22242394D401BD904D01BB2009F4EE
:1010600035C1B6E5BB1609F4BEC0BB1544F1E9E3D2
:10107000EB158CF0F0E3BF160CF0D7C020E2B216EF
:1010800009F420C1B2160CF4D9C093ED9B0D923037
:1010900008F4CBC0D3C03DE4B31609F44FC03B15F0
:1010A00044F082E4B81609F4AFC097E4B916A9F188
:1010B000C5C0A3E5BA1609F452C0B5E522C0EDE6F5
:1010C000BE16E1F1EB159CF0F9E5BF1609F469C015
:1010D000FB152CF028E5B21609F452C0AFC032E679
:1010E000B31609F491C087E6B816B9F0A7C096E721
:1010F000B91609F478C09B1544F0A3E7BA1679F144
:10110000B5E7BB1609F45EC099C0E8E7BE16C1F1A9
:10111000F9E7BF1609F445C091C0332039F0AE019C
:101120004F5F5F4F632DC8010E946D0BCE0101968A
:101130000E94DF0B80E0E7E63E2EC4C0332039F08A
:10114000AE014F5F5F4F632DC8010E946D0BCE0152
:1011500001960E94DF0B80E07DE6372EB3C033207E
:1011600039F0AE014F5F5F4F632DC8010E946D0BD8
:10117000CE0101960E94DF0B80E063E7362EA2C00D
:10118000332039F0AE014F5F5F4F632DC8010E94DD
:101190006D0BCE0101960E94DF0B80E058E7352EE3
:1011A00091C0332039F0AE014F5F5F4F632DC8010E
:1011B0000E946D0BCE0101960E94DF0B80E049E793
:1011C000342E80C0332039F0AE014F5F5F4F632D66
:1011D000C8010E946D0BCE0101960E94DF0B80E0DA
:1011E00035E7332E6FC0332039F0AE014F5F5F4FCC
:1011F000632DC8010E946D0BCE0101960E94DF0B8A
:1012000080E026E7322E5EC0332039F0AE014F5F1A
:101210005F4F632DC8010E946D0BCE0101960E94A5
:10122000DF0B80E092E6392E4DC0E1E0F0E0EC0FFC
:10123000FD1FE80FF11DB0828F5F44C0D8011496E6
:101240002C9214976BE473E012968D919C911397F6
:101250000E9451016B2DF801828193810E942E0121
:10126000D8011296AD90BC901397E896DFAECEAE43
:10127000E89769E573E0C5010E945101E8968EADDB
:101280009FADE8974AE0BE016E597F4F0E94CD0F97
:10129000BE016E597F4FC5010E94510169E473E0A0
:1012A000C5010E945101332039F0AE014F5F5F4FFD
:1012B000632DC8010E946D0BCE0101960E94DF0BC9
:1012C00080E0312CBFEFCB1ADB0AC5CE332039F0DA
:1012D000AE014F5F5F4F632DC8010E946D0BF80197
:1012E0008481811104C0C8010E94C5012DC0B701CD
:1012F000828193810E94510162E673E0F80182814C
:1013000093810E945101D8015596ED91FC91569719
:101310008081882311F060A101C060E070E0F801D5
:10132000828193810E94830164E673E0D801129662
:101330008D919C9113970E94510166E673E0F8012C
:10134000828193810E945101D8015596ED91FC91C3
:10135000569710A280E2DF011D928A95E9F75EC0E0
:101360006CE773E0F801828193810E945101D12CD6
:10137000D8015596ED91FC915697208112968D914A
:101380009C911397222349F020A1D21630F465E8EE
:1013900073E00E945101D394EBCF6CE773E00E949D
:1013A0005101D8015596ED91FC91569780A1882363
:1013B00011F0815080A380A1E80FF11D1082F80187
:1013C00065897689CE018E5B9F4F0E945014BE01C5
:1013D0006E5B7F4FD80112968D919C9113970E945E
:1013E00051011CC090EE980F9F35C0F4D80155965E
:1013F000ED91FC91569790A1DF01A90FB11D8C933F
:101400009F5F903208F09FE190A3E90FF11D1082D9
:10141000682FF801828193810E942E01EC962EADF7
:101420003FADEC97121613060CF430C8C558DF4FC9
:101430000FB6F894DEBF0FBECDBFDF91CF911F91E5
:101440000F91FF90EF90DF90CF90BF90AF909F9063
:101450008F907F906F905F904F903F902F90089566
:101460000F931F93FC018FB7F8944091AC035091F8
:10147000AD036091AE037091AF038FBF84859585F6
:101480000197C9F400811181228133818481958182
:10149000A681B781840F951FA61FB71F401751075C
:1014A0006207730720F0801B910BA20BB30B8483A0
:1014B0009583A683B783408351836283738380853A
:1014C0009185A285B3850097A105B10589F0448176
:1014D00055816681778184179507A607B70750F471
:1014E00081E090E0978786871482158216821782A2
:1014F000158614861F910F9108950F931F93CF9314
:10150000DF93FC01A685B7858D01005C1F4FE801C4
:101510008881998101968F739927AD014E5B5F4F4A
:10152000EA012881398128173907D1F3E801288198
:101530003981A20FB31F6C93A685B785A05CBF4FFE
:1015400011969C938E93A689B7892C9181E090E0A7
:10155000078C02C0880F991F0A94E2F7822B8C93A4
:1015600081E081A30488F589E02D808180648083F7
:1015700081E090E0DF91CF911F910F910895FC01E0
:1015800081A1882329F0A489B5898C9186FFFBCF9E
:1015900011A20895FC01A485B585FD01E05CFF4F13
:1015A000208131813296808191812817390779F025
:1015B00080819181A80FB91F8C91208131812F5F8B
:1015C0003F4F2F7333273183208390E008958FEFAF
:1015D0009FEF0895DC011C96ED91FC911D97DF01B2
:1015E000A05CBF4F2D913C91119712968D919C91CB
:1015F00011972817390739F08D919C91E80FF91F41
:10160000808190E008958FEF9FEF0895FC0124857D
:101610003585F901E05CFF4F808191813296208110
:101620003181821B930B8F7399270895CF92DF929C
:10163000EF92FF920F931F93CF93DF936C01EB0117
:101640007B01E40EF51E00E010E0CE15DF0561F031
:101650006991D601ED91FC910190F081E02DC601D8
:101660000995080F191FF1CFC801DF91CF911F9184
:101670000F91FF90EF90DF90CF9008950895CF9352
:10168000DF93EC0180E69AEEA0E0B0E0888B998BC6
:10169000AA8BBB8B81E090E09D8B8C8BCE01089652
:1016A0000E94300A1C861D861E861F861F8A1E8A7F
:1016B000DF91CF910895009769F0FC01019000201F
:1016C000E9F73197AF01481B590BBC0180EB93E060
:1016D0000C94160B80E090E00895AF92BF92DF92D9
:1016E000EF92FF920F931F93CF93DF93EC01D62ECF
:1016F0008A0141155105A1F0FA0101900020E9F796
:10170000BF01641B750B80E090E00E9481137C0197
:10171000009741F0FC011082B8010E94501402C0F1
:10172000E12CF12CC7010E94A40F8C016EE773E03D
:101730008A819B810E9451016D2D8A819B810E942B
:101740002E01AA80BB80B701C5010E94510169E446
:1017500073E0C5010E945101DD8A8D2DDD0C990BCE
:10176000AA0BBB0BFC01E256F109E831F105D8F4F4
:10177000EC5CFF4F0C940F161E830D8314C018876A
:101780000F8311C01A8709870EC01C870B870BC0F7
:101790001E870D8708C0188B0F8705C01A8B098B11
:1017A00002C01C8B0B8BC701DF91CF911F910F9152
:1017B000FF90EF90DF90BF90AF900C94F81220E272
:1017C000FC0111922A95E9F70895E1EDF1E0949179
:1017D000EDEBF1E02491E9EAF1E0E491EE2309F484
:1017E0003CC0992339F1933091F038F49130A9F04D
:1017F000923001F594B59F7D12C0963091F09730EC
:10180000A1F09430B9F4909180009F7D03C0909135
:1018100080009F77909380000DC094B59F7794BD12
:1018200009C09091B0009F7703C09091B0009F7D58
:101830009093B000F0E0EE0FFF1FEE56FE4FA59123
:10184000B4919FB7F894811104C08C9120952823FE
:1018500002C0EC912E2B2C939FBF08951F920F92E4
:101860000FB60F9211242F933F938F939F93EF9373
:10187000FF93209144043091450480914604909157
:1018800047042817390731F48091C1008F7D809378
:10189000C10014C0E0914604F0914704EC5FFB4F97
:1018A0002081809146049091470401968F73992777
:1018B00090934704809346042093C600FF91EF91D4
:1018C0009F918F913F912F910F900FBE0F901F907E
:1018D00018951F920F920FB60F9211242F934F93CA
:1018E0005F938F939F93EF93FF938091C00082FD4E
:1018F0001CC02091C6008091880490918904409179
:101900008A0450918B0401968F73992748175907C1
:1019100071F0E0918804F0918904E85BFB4F20832B
:10192000909389048093880402C08091C600FF913F
:10193000EF919F918F915F914F912F910F900FBEDB
:101940000F901F9018951F920F920FB60F921124AF
:101950002F933F938F939F93AF93BF938091AC034B
:101960009091AD03A091AE03B091AF033091030409
:1019700023E0230F2D3720F40196A11DB11D05C0D2
:1019800026E8230F0296A11DB11D20930304809326
:10199000AC039093AD03A093AE03B093AF038091DB
:1019A000FF0390910004A0910104B09102040196FC
:1019B000A11DB11D8093FF0390930004A093010427
:1019C000B0930204BF91AF919F918F913F912F915E
:1019D0000F900FBE0F901F901895EF92FF920F93EC
:1019E0001F93CF93DF93CDB7DEB72A970FB6F89446
:1019F000DEBF0FBECDBF8C0187E480937C00809159
:101A00007A00806480937A0080917A0086FDFCCF12
:101A1000609178008091790070E0782B072E000C9F
:101A2000880B990B0E94D0142DEC3CEC4CEE50E44A
:101A30000E94801520E030EC4FE754E40E945C14D3
:101A4000F8016483758386839783E280F3808E0137
:101A50000F5F1F4F23E044E00E94840FB801C701CD
:101A60000E9451012A960FB6F894DEBF0FBECDBF7B
:101A7000DF91CF911F910F91FF90EF9008950F93F9
:101A80001F93CF93DF938C01085F1F4FFC012689C2
:101A9000378921303105E1F4EC01178A168A358B3C
:101AA000248B0E94ED0C20E030E040EC50E46C818F
:101AB0007D818E819F810E945714181684F4C8017D
:101AC0000E94300A1C861D861E861F861F8A1E8A5B
:101AD000C801DF91CF911F910F910C94300A67E8F4
:101AE00073E08A819B810E945101E9CF0F931F937C
:101AF000CF93DF93E0EBF3E01382128288EE93E062
:101B0000A0E0B0E084839583A683B78388E093E068
:101B10009183808388E494E09587848784E094E0CF
:101B20009787868785EC90E0918B808B84EC90E0A2
:101B3000938B828B80EC90E0958B848B81EC90E092
:101B4000978B868B82EC90E0918F808F86EC90E073
:101B5000938F828F84E0848F83E0858F87E0868FE8
:101B600085E0878F81E080A3EFEEF3E01482158299
:101B700016821782158614861086118612861386A1
:101B800010821182128213821786168683E090E0FB
:101B90000E9460128C01FC0110829093EE038093EE
:101BA000ED03E5EDF3E09383828380E293E091839C
:101BB00080831482158216821782148615861686F3
:101BC0001786158A148A108A118A128A138A108637
:101BD000118612861386178A168ACF010E943F0B40
:101BE00086E190E00E946012EC011B830A8388E189
:101BF00093E0998388831E821D8218861F821A862D
:101C000019861C861B861E861D86188A1F861A8AC0
:101C1000198A1C8A1B8A81E290E00E946012FC01F2
:101C200010A220E211922A95E9F79E8B8D8BD0931A
:101C3000D403C093D3031092D203DF91CF911F91AD
:101C40000F910895789484B5826084BD84B58160D5
:101C500084BD85B5826085BD85B5816085BD809177
:101C60006E00816080936E001092810080918100EF
:101C700082608093810080918100816080938100E7
:101C8000809180008160809380008091B1008460A9
:101C90008093B1008091B00081608093B00080910A
:101CA0007A00846080937A0080917A0082608093C9
:101CB0007A0080917A00816080937A0080917A0026
:101CC000806880937A001092C100E6ECF1E02491E4
:101CD000E2EBF1E084918823C1F090E0880F991F36
:101CE000FC01E852FE4FC591D491FC01EE56FE4F27
:101CF000A591B4919FB7F8948881E22FE0958E2347
:101D000088838C91E823EC939FBFE091C403F0910A
:101D1000C50381E090E09C010090D00302C0220F37
:101D2000331F0A94E2F72083E091C003F091C103CE
:101D30001082E091C203F091C3032FEC2083109234
:101D4000D103E091C603F091C70340819C0100904C
:101D5000CC0302C0220F331F0A94E2F7242B208306
:101D6000E091C603F091C70340819C010090CD0330
:101D700002C0220F331F0A94E2F7242B2083E09144
:101D8000C603F091C70340819C010090CE0302C0BE
:101D9000220F331F0A94E2F7242B2083E091C6031D
:101DA000F091C70320810090CF0302C0880F991FD4
:101DB0000A94E2F7809582238083E091ED03F0910D
:101DC000EE0381E0808382E993E00E945B0BEDEB00
:101DD000F1E02491E9EAF1E08491882399F090E020
:101DE000880F991FFC01E852FE4FA591B491FC01A8
:101DF000EE56FE4F859194918FB7F894EC91E22BBB
:101E0000EC938FBF84EF91E0A0E0B0E08093F70304
:101E10009093F803A093F903B093FA0381E090E064
:101E20009093FC038093FB0385ED93E00E94ED0CFF
:101E300080EB93E00E94BF0A8091D3039091D4037A
:101E40000E94C50165EA73E08091ED039091EE0375
:101E50000E94510184EFC82EDD24D394E12CF12C93
:101E6000C1E0D0E08091D203882311F081E001C06D
:101E700080E00E94E50B8091FD039091FE0381308C
:101E8000910511F51092FE031092FD039093FC034F
:101E90008093FB038091D203811104C081E0809381
:101EA000D20302C01092D2038FEE93E00E94300A58
:101EB0001092F3031092F4031092F5031092F603BC
:101EC0001092FE031092FD038FEE93E00E94300A01
:101ED00085ED93E00E943F0DC092F703D092F80386
:101EE000E092F903F092FA03D093FC03C093FB0352
:101EF0008091D3039091D403DC01ED91FC91028099
:101F0000F381E02D0995AECFEF920F931F93CF93FE
:101F1000DF93E80147FD02C034E001C034E1042E44
:101F2000000C550B57FF03C0519541955109E32E05
:101F3000022F242FAE010E94E70FCE01DF91CF9137
:101F40001F910F91EF900895FC0188279927E8943D
:101F500021912032E9F3293010F02E30C8F32B32D2
:101F600041F02D3239F4689404C00E94C50F820FED
:101F7000911D219120532A30C0F31EF49095819534
:101F80009F4F0895F8940C9415167AE0979F902D22
:101F9000879F802D910D11240895BB27FB015527A4
:101FA000AA27880F991FAA1FA41710F0A41B8395B6
:101FB0005051B9F7A05DAA3308F0A95DA19300972D
:101FC00079F7B111B1931192CB010C941912A9E0D8
:101FD000B0E0EDEEFFE00C942F126A01122FB02E4C
:101FE0002BE3201720F0FF24F394F00E02C02CE323
:101FF000F22E0F2D27E0AE014F5F5F4F0E9441117F
:10200000BC014981842F8970813031F0E1FC06C028
:10201000E0FE06C090E205C09DE203C09BE201C065
:1020200090E05E2D507143FF3CC0911102C083E0EF
:1020300001C084E0811718F4212F281B01C020E083
:1020400051110BC0F601822F30E2882319F0319331
:102050008150FBCFC20ED11C20E0992329F0D6017C
:102060009C93F60131966F01C6010396E2FE0AC009
:102070003EE4D6013C9341E411964C93119712969D
:102080003C9306C03EE6F601308341E6418332834D
:10209000FC01322F40E2332309F442C04193315016
:1020A000FACF42FF44C0911102C083E001C084E036
:1020B000811718F4212F281B01C020E051110BC0FB
:1020C000F601822F30E2882319F031938150FBCF43
:1020D000C20ED11C20E0992329F0D6019C93F60171
:1020E00031966F01C6010396E2FE0BC039E4D601BA
:1020F0003C933EE411963C93119736E412963C9340
:1021000007C039E6F60130833EE6318336E6328396
:10211000FC01322F40E2332319F041933150FBCFC1
:10212000FC01E20FF11D10828EEF9FEFA6C021E0AF
:1021300030E0911102C020E030E0161617061CF4C2
:10214000FB01319602C0E1E0F0E02E0F3F1FBB2003
:1021500021F0EB2DF0E0319602C0E0E0F0E02E0F30
:102160003F1FE12FF0E02E173F071CF4121B212F19
:1021700001C020E08E2D887159F4F601822F30E2E3
:10218000882319F031938150FBCFC20ED11C20E07F
:10219000992329F0D6019C93F60131966F015111D4
:1021A0000BC0F601822F90E3882319F091938150A0
:1021B000FBCFC20ED11C20E00F2D060F9A81342FC9
:1021C000307144FF03C0913309F40150101624F418
:1021D000093018F008E001C001E0AB0177FF02C050
:1021E00040E050E0FB01E41BF50BA1E0B0E0AC0FD8
:1021F000BD1FEA0FFB1F8EE2A82E4B01801A91082B
:102200000B2D10E01195019511094F3FBFEF5B07B2
:1022100021F4D601AC9211966D01641775072CF06C
:102220008416950614F4818101C080E34150510960
:102230003196D60111967D014017510724F0D60141
:102240008C936701E2CF6417750739F4963320F455
:10225000953319F4311101C081E3F6018083F70150
:10226000822F90E2882319F091938150FBCFF701E0
:10227000E20FF11D108280E090E02996ECE00C94D2
:102280004B12283008F027E03327DA01990F311D6F
:1022900087FD916000966105710539F432602E5F0B
:1022A0003D9330E32A95E1F708959F3F30F0803861
:1022B0007105610509F03C5F3C5F3D93913008F08A
:1022C0008068911DDF93CF931F930F93FF92EF923E
:1022D000192F987F9695E92F96959695E90FFF27E8
:1022E000EE50FF4F99273327EE24FF24A701E70183
:1022F00005900894079428F4360FE71EF81E491F2E
:10230000511D660F771F881F991F0694A1F705902E
:10231000079428F4E70EF81E491F561FC11D770FBA
:10232000881F991F661F0694A1F70590079428F44B
:10233000F80E491F561FC71FD11D880F991F661F12
:10234000771F0694A1F70590079420F4490F561FB4
:10235000C71FD81F990F661F771F881F0694A9F7FC
:1023600084911095177041F0D695C795579547956C
:10237000F794E7941A95C1F7E8E9F0E068941590AE
:10238000159135916591959105907FE27395E118CE
:10239000F10A430B560BC90BD009C0F7E10CF11E33
:1023A000431F561FC91FD01D7EF4703311F48A9548
:1023B000E6CFE894015030F0080F0AF40027021726
:1023C00008F4202F2395022F7A3328F079E37D93A8
:1023D0002A95E9F710C07D932A9589F6069497957A
:1023E0006795379517951794E118F10A430B560B2B
:1023F000C90BD00998F023957E9173957A3308F034
:1024000070E37C932013B8F77E9170617D9330F078
:10241000839571E37D9370E32A95E1F71124EF90A2
:10242000FF900F911F91CF91DF91992787FD909594
:102430000895DC01FC01672F71917723E1F7329752
:1024400004C07C916D9370836291AE17BF07C8F38F
:1024500008952F923F924F925F926F927F928F9248
:102460009F92AF92BF92CF92DF92EF92FF920F9323
:102470001F93CF93DF93CDB7DEB7CA1BDB0B0FB62D
:10248000F894DEBF0FBECDBF09942A8839884888EA
:102490005F846E847D848C849B84AA84B984C88480
:1024A000DF80EE80FD800C811B81AA81B981CE0F77
:1024B000D11D0FB6F894DEBF0FBECDBFED0108955C
:1024C0000F931F93CF93DF938230910510F482E036
:1024D00090E0E0918E04F0918F0420E030E0A0E0E5
:1024E000B0E0309719F14081518102811381481782
:1024F0005907C8F08417950769F4109731F01296C0
:102500000C93129713961C9327C000938E0410937C
:102510008F0422C02115310519F04217530718F412
:102520009A01BD01EF01DF01F801DBCF2115310573
:10253000F9F0281B390B2430310580F48A819B8106
:102540006115710521F0FB019383828304C0909390
:102550008F0480938E04FE01329644C0FE01E20F88
:10256000F31F8193919322503109398328833AC014
:1025700020918C0430918D04232B41F42091020191
:102580003091030130938D0420938C04209100013D
:10259000309101012115310541F42DB73EB740912D
:1025A000040150910501241B350BE0918C04F0913E
:1025B0008D04E217F307A0F42E1B3F0B28173907F1
:1025C00078F0AC014E5F5F4F2417350748F04E0F8F
:1025D0005F1F50938D0440938C048193919302C0AC
:1025E000E0E0F0E0CF01DF91CF911F910F910895CE
:1025F000CF93DF93009709F481C0FC0132971382D7
:102600001282A0918E04B0918F04109781F42081E2
:102610003181820F931F20918C0430918D042817F3
:10262000390751F5F0938D04E0938C0467C0ED01F8
:1026300020E030E0CE17DF0740F44A815B819E0145
:1026400041155105F1F0EA01F5CFD383C2834081F2
:102650005181840F951FC817D90759F48881998132
:10266000840F951F0296918380838A819B81938337
:1026700082832115310529F4F0938F04E0938E04B1
:102680003DC0E901FB83EA8349915991C40FD51FED
:10269000EC17FD0761F480819181840F951F0296EC
:1026A000E90199838883828193819B838A83E0E017
:1026B000F0E012968D919C911397009719F0FD010F
:1026C000DC01F7CF8D919C9111979D012E5F3F4FBB
:1026D000820F931F20918C0430918D0428173907A5
:1026E00069F4309729F410928F0410928E0402C07E
:1026F00013821282B0938D04A0938C04DF91CF914A
:102700000895A0E0B0E0E7E8F3E10C942D12EC01AD
:10271000009721F4CB010E946012B4C0FC01E60FC7
:10272000F71F9C0122503109E217F30708F4A8C0F3
:10273000D9010D911C91119706171707B0F00530BC
:10274000110508F49BC0C80104978617970708F481
:1027500095C002501109061B170B019311936D933D
:102760007C93CF010E94F81289C05B01A01AB10AC4
:102770004C01800E911EA0918E04B0918F04612CAB
:10278000712CE12CF12C109709F446C08D919C918D
:102790001197A815B905B1F56C0142E0C40ED11C22
:1027A000CA14DB0478F14C018A189B08640142E0EA
:1027B000C40ED11C1296BC9012971396AC91B5E042
:1027C000CB16D10440F0B282A38391828082D901DA
:1027D0006D937C9309C00E5F1F4F800F911FF9010D
:1027E00091838083EB2DFA2FE114F10431F0D701AE
:1027F0001396FC93EE93129741C0F0938F04E093ED
:102800008E043CC06816790608F43C017D011296DE
:102810000D90BC91A02DB7CF80918C0490918D0428
:1028200088169906E1F466167706C8F480910001CF
:1028300090910101009741F48DB79EB7409104013A
:1028400050910501841B950BE817F907C8F4F09324
:102850008D04E0938C04F901718360830FC0CB0178
:102860000E9460127C01009759F0A801BE010E94ED
:102870004714CE010E94F812C70104C0CE0102C065
:1028800080E090E0CDB7DEB7EEE00C944912FB019A
:10289000DC0102C001900D9241505040D8F70895DC
:1028A000FB01DC0101900D920020E1F708950E94E8
:1028B0000B1508F481E008950E9470140C944615DD
:1028C0000E943F1558F00E94381540F029F45F3FF0
:1028D00029F00C942F1551110C947A150C94351580
:1028E0000E94571568F39923B1F3552391F3951B73
:1028F000550BBB27AA2762177307840738F09F5F21
:102900005F4F220F331F441FAA1FA9F335D00E2E8D
:102910003AF0E0E832D091505040E695001CCAF7FA
:102920002BD0FE2F29D0660F771F881FBB1F2617BD
:1029300037074807AB07B0E809F0BB0B802DBF0194
:10294000FF2793585F4F3AF09E3F510578F00C9463
:102950002F150C947A155F3FE4F3983ED4F38695D7
:1029600077956795B795F7959F5FC9F7880F911D84
:102970009695879597F90895E1E0660F771F881F70
:10298000BB1F621773078407BA0720F0621B730B23
:10299000840BBA0BEE1F88F7E0950895E89409C000
:1029A00097FB3EF490958095709561957F4F8F4F82
:1029B0009F4F9923A9F0F92F96E9BB279395F69598
:1029C000879577956795B795F111F8CFFAF4BB0F16
:1029D00011F460FF1BC06F5F7F4F8F4F9F4F16C07A
:1029E000882311F096E911C0772321F09EE8872F04
:1029F000762F05C0662371F096E8862F70E060E0C0
:102A00002AF09A95660F771F881FDAF7880F969538
:102A1000879597F90895990F0008550FAA0BE0E8DC
:102A2000FEEF16161706E807F907C0F01216130690
:102A3000E407F50798F0621B730B840B950B39F4D0
:102A40000A2661F0232B242B252B21F408950A2636
:102A500009F4A140A6958FEF811D811D089597F976
:102A60009F6780E870E060E008959FEF80EC089534
:102A700000240A941616170618060906089500245D
:102A80000A9412161306140605060895092E0394D7
:102A9000000C11F4882352F0BB0F40F4BF2B11F44B
:102AA00060FF04C06F5F7F4F8F4F9F4F089557FDAA
:102AB0009058440F551F59F05F3F71F04795880FAC
:102AC00097FB991F61F09F3F79F087950895121643
:102AD00013061406551FF2CF4695F1DF08C01616EF
:102AE00017061806991FF1CF8695710561050894A0
:102AF0000895E894BB2766277727CB0197F90895B7
:102B00000E9493150C9446150E94381538F00E94C7
:102B10003F1520F0952311F00C942F150C943515CA
:102B200011240C947A150E94571570F3959FC1F3E8
:102B3000950F50E0551F629FF001729FBB27F00D6B
:102B4000B11D639FAA27F00DB11DAA1F649F6627C0
:102B5000B00DA11D661F829F2227B00DA11D621F0F
:102B6000739FB00DA11D621F839FA00D611D221FC9
:102B7000749F3327A00D611D231F849F600D211DAD
:102B8000822F762F6A2F11249F5750409AF0F1F030
:102B900088234AF0EE0FFF1FBB1F661F771F881F99
:102BA00091505040A9F79E3F510580F00C942F158D
:102BB0000C947A155F3FE4F3983ED4F386957795AD
:102BC0006795B795F795E7959F5FC1F7FE2B880F3F
:102BD000911D9695879597F90895A1E21A2EAA1B43
:102BE000BB1BFD010DC0AA1FBB1FEE1FFF1FA217BD
:102BF000B307E407F50720F0A21BB30BE40BF50BBA
:102C0000661F771F881F991F1A9469F76095709542
:102C1000809590959B01AC01BD01CF010895EE0F09
:0E2C2000FF1F0590F491E02D0994F894FFCF6A
:102C2E00000090042000A9A6A59A9996956A696657
:102C3E00655A595655AAA9A6A59A9996956A69668E
:102C4E00655A595655AAA9A6A59A9996956A69667E
:102C5E00655A595655AAA9A6A59A9996956A69666E
:102C6E00655A595655AAA9A6A59A9996956A69665E
:102C7E00655A595655AAA9A6A59A9996956A69664E
:102C8E00655A595655AAA9A6A59A9996956A69663E
:102C9E00655A595655AAA9A6A59A9996956A69662E
:102CAE00655A595655AAA9A6A59A9996956A69661E
:102CBE00655A595655AAA9A6A59A9996956A69660E
:102CCE00655A595655AAA9A6A59A9996956A6966FE
:102CDE00655A595655AAA9A6A59A9996956A6966EE
:102CEE00655A595655AAA9A6A59A9996956A6966DE
:102CFE00655A595655AAA9A6A59A9996956A6966CE
:102D0E00655A595655AAA9A6A59A9996956A6966BD
:102D1E00655A595655AAA9A6A59A9996956A6966AD
:102D2E00655A595655AAAAAAAAAAAAAAAAAAAAAA84
:102D3E00AAAAAAAAA9A9A9A9A9A9A9A9A9A9A9A9F1
:102D4E00A9A9A9A9A6A6A6A6A6A6A6A6A6A6A6A609
:102D5E00A6A6A6A6A5A5A5A5A5A5A5A5A5A5A5A511
:102D6E00A5A5A5A59A9A9A9A9A9A9A9A9A9A9A9A89
:102D7E009A9A9A9A999999999999999999999999B1
:102D8E0099999999969696969696969696969696C9
:102D9E0096969696959595959595959595959595D1
:102DAE00959595956A6A6A6A6A6A6A6A6A6A6A6AC9
:102DBE006A6A6A6A69696969696969696969696971
:102DCE006969696966666666666666666666666689
:102DDE006666666665656565656565656565656591
:102DEE00656565655A5A5A5A5A5A5A5A5A5A5A5A09
:102DFE005A5A5A5A59595959595959595959595931
:102E0E005959595956565656565656565656565648
:102E1E005656565655555555555555555555555550
:102E2E0055555555000000007D0A160B060BCA0AB3
:102E3E00EA0ABF0A000000001C011A02000000008E
:102E4E003F0B3F0D4D4449207374617475733A0006
:102E5E004720004D200053200058200059200055D7
:102E6E0020005620004220000D0A00556E6B6E6F3A
:102E7E00776E2063686172200020617420636F6C2E
:102E8E002000280029003A20636F6D6D616E64206A
:102E9E006E6F7420666F756E64210A000D00537597
:102EAE00626D69743A200076426174204C4F57214E
:102EBE000A00496E697469616C697A696E67202EC1
:0C2ECE002E2E200A00446F6E650A0000E2
:00000001FF
