:100000000C94DA000C9402010C9402010C9402018D
:100010000C9402010C9402010C9402010C94020154
:100020000C9402010C9402010C9402010C94E1075F
:100030000C9402010C9402010C9402010C94020134
:100040000C94290C0C9402010C94A20B0C94670BD9
:100050000C9402010C9402010C9402010C94020114
:100060000C9402010C94020100407A10F35A00A093
:10007000724E18090010A5D4E80000E87648170071
:1000800000E40B54020000CA9A3B000000E1F505B1
:10009000000080969800000040420F000000A086FB
:1000A00001000000102700000000E803000000002D
:1000B0006400000000000A000000000001000000D1
:1000C00000002C76D888DC674F0823DFC1DFAE59EB
:1000D000E1B1B796E5E3E453C63AE651997696E87E
:1000E000E6C28426EB898C9B62ED407C6FFCEFBC02
:1000F0009C9F40F2BAA56FA5F490055A2AF75C932D
:100100006B6CF9676DC11BFCE0E40D47FEF520E662
:10011000B500D0ED902E0300943577050080841E45
:10012000080000204E0A000000C80C333333330FA0
:10013000986E12831141EF8D2114893BE65516CF3D
:10014000FEE6DB18D1844B381BF77C1D901DA4BB49
:10015000E424203284725E228100C9F124ECA1E5FE
:100160003D27000000070002010000030406000014
:1001700000000000000000000000250028002B0007
:1001800000000000240027002A00040404040404E2
:100190000404020202020202030303030303010236
:1001A0000408102040800102040810200102040805
:1001B0001020120E11241FBECFEFD8E0DEBFCDBF3E
:1001C00013E0A0E0B1E0E2E8F9E202C005900D9290
:1001D000AC38B107D9F724E0ACE8B3E001C01D9218
:1001E000A83AB207E1F710E0CAEDD0E004C02197C9
:1001F000FE010E94B914C93DD107C9F70E94E50C60
:100200000C94420F0C94000008950F931F93CF930A
:10021000DF93EC01972F888181111DC0062F172FC6
:10022000F80121918F012223E9F0215030E0F901FA
:10023000EB5FFD4F6081F901EA5FFE4F80816983CA
:100240008A8380E993E00E9400096A8180E993E053
:100250000E940009E5CF862FDF91CF911F910F916A
:100260000C94D00ADF91CF911F910F9108954F9276
:100270005F926F927F928F929F92AF92BF92CF9236
:10028000DF92EF92FF920F931F93CF93DF93CDB73F
:10029000DEB7A1970FB6F894DEBF0FBECDBF7C01CD
:1002A000D7011296ED91FC9113978081882331F04C
:1002B00080E993E00E9489096C0109C080E993E01C
:1002C0000E94890997FD01966C01D594C794D701C6
:1002D0001296ED91FC9113978081882329F080E993
:1002E00093E00E944D0947C580E993E00E944D09C3
:1002F000182F80E993E00E944D091A3A91F58A3A45
:1003000009F43EC3893A09F43DC3863A09F43CC373
:10031000853A09F43BC38A3909F43AC3893909F4A7
:1003200039C3863909F438C3853909F437C38A36A5
:1003300009F436C3893609F435C3863609F434C363
:10034000853609F433C38A3509F432C3893509F493
:1003500031C3863509F430C3853509F02FC38FE0EA
:100360000AC5193A91F58A3A09F42AC3893A09F477
:1003700029C3863A09F428C3853A09F427C38A3980
:1003800009F426C3893909F425C3863909F424C33D
:10039000853909F423C38A3609F422C3893609F45E
:1003A00021C3863609F420C3853609F41FC38A3574
:1003B00009F41EC3893509F41DC3863509F41CC32D
:1003C000853509F01BC38FE1D6C4163A91F58A3AF8
:1003D00009F416C3893A09F415C3863A09F414C31B
:1003E000853A09F413C38A3909F412C3893909F427
:1003F00011C3863909F410C3853909F40FC38A364D
:1004000009F40EC3893609F40DC3863609F40CC30A
:10041000853609F40BC38A3509F40AC3893509F412
:1004200009C3863509F408C3853509F007C38FE28F
:10043000A2C4153A91F58A3A09F402C3893A09F43B
:1004400001C3863A09F400C3853A09F4FFC28A3928
:1004500009F4FEC2893909F4FDC2863909F4FCC2E7
:10046000853909F4FBC28A3609F4FAC2893609F4DF
:10047000F9C2863609F4F8C2853609F4F7C28A351E
:1004800009F4F6C2893509F4F5C2863509F4F4C2D7
:10049000853509F0F3C28FE36EC41A3991F58A3AB3
:1004A00009F4EEC2893A09F4EDC2863A09F4ECC2C5
:1004B000853A09F4EBC28A3909F4EAC2893909F4A8
:1004C000E9C2863909F4E8C2853909F4E7C28A36F7
:1004D00009F4E6C2893609F4E5C2863609F4E4C2B5
:1004E000853609F4E3C28A3509F4E2C2893509F494
:1004F000E1C2863509F4E0C2853509F0DFC28FE438
:100500003AC4193991F58A3A09F4DAC2893A09F4F8
:10051000D9C2863A09F4D8C2853A09F4D7C28A39D1
:1005200009F4D6C2893909F4D5C2863909F4D4C28E
:10053000853909F4D3C28A3609F4D2C2893609F45E
:10054000D1C2863609F4D0C2853609F4CFC28A35C5
:1005500009F4CEC2893509F4CDC2863509F4CCC27E
:10056000853509F0CBC28FE506C4163991F58A3A74
:1005700009F4C6C2893A09F4C5C2863A09F4C4C26C
:10058000853A09F4C3C28A3909F4C2C2893909F427
:10059000C1C2863909F4C0C2853909F4BFC28A369E
:1005A00009F4BEC2893609F4E6C3863609F4BAC234
:1005B000853609F4B9C28A3509F4B8C2893509F417
:1005C000B7C2863509F4B6C2853509F0B5C28FE6E3
:1005D000D2C3153991F58A3A09F4B0C2893A09F4BF
:1005E000AFC2863A09F4AEC2853A09F4ADC28A397F
:1005F00009F4ACC2893909F4ABC2863909F4AAC23C
:10060000853909F4A9C28A3609F4A8C2893609F4E1
:10061000A7C2863609F4A6C2853609F4A5C28A3572
:1006200009F4A4C2893509F4A3C2863509F4A2C22B
:10063000853509F0A1C28FE79EC31A3691F58A3A33
:1006400009F49CC2893A09F49BC2863A09F49AC219
:10065000853A09F499C28A3909F498C2893909F4AA
:1006600097C2863909F496C2853909F495C28A364B
:1006700009F494C2893609F493C2863609F492C209
:10068000853609F491C28A3509F490C2893509F496
:100690008FC2863509F48EC2853509F08DC28FE888
:1006A0006AC3193691F58A3A09F488C2893A09F47D
:1006B00087C2863A09F486C2853A09F485C28A3926
:1006C00009F484C2893909F483C2863909F453C311
:1006D000853909F47FC28A3609F47EC2893609F465
:1006E0007DC2863609F47CC2853609F47BC28A3520
:1006F00009F47AC2893509F479C2863509F478C2D9
:10070000853509F077C28FE936C3163691F58A3AF6
:1007100009F472C2893A09F471C2863A09F470C2C6
:10072000853A09F46FC28A3909F46EC2893909F42D
:100730006DC2863909F46CC2853909F46BC28A36F8
:1007400009F46AC2893609F469C2863609F468C2B6
:10075000853609F467C28A3509F466C2893509F419
:1007600065C2863509F464C2853509F063C28FEA33
:1007700002C3153691F58A3A09F45EC2893A09F442
:100780005DC2863A09F45CC2853A09F45BC28A39D3
:1007900009F45AC2893909F459C2863909F458C290
:1007A000853909F457C28A3609F456C2893609F4E4
:1007B00055C2863609F454C2853609F453C28A35C7
:1007C00009F452C2893509F451C2863509F450C280
:1007D000853509F04FC28FEBCEC21A3591F58A3AB2
:1007E00009F44AC2893A09F449C2863A09F448C26E
:1007F000853A09F447C28A3909F446C2893909F4AD
:1008000045C2863909F444C2853909F443C28A369F
:1008100009F442C2893609F441C2863609F440C25D
:10082000853609F43FC28A3509F43EC2893509F498
:100830003DC2863509F43CC2853509F03BC28FECD8
:100840009AC2193591F58A3A09F436C2893A09F4FF
:1008500035C2863A09F434C2853A09F433C28A397A
:1008600009F432C2893909F431C2863909F430C237
:10087000853909F42FC28A3609F42EC2893609F463
:100880002DC2863609F42CC2853609F42BC28A356E
:1008900009F42AC2893509F429C2863509F428C227
:1008A000853509F027C28FED66C2163591F58A3A73
:1008B00009F422C2893A09F421C2863A09F420C215
:1008C000853A09F41FC28A3909F41EC2893909F42C
:1008D0001DC2863909F41CC2853909F41BC28A3647
:1008E00009F41AC2893609F419C2863609F418C205
:1008F000853609F417C28A3509F416C2893509F418
:1009000015C2863509F414C2853509F013C28FEE7D
:1009100032C2153509F010C28A3A09F40FC2893A79
:1009200009F40EC2863A09F40DC2853A09F40CC2E4
:100930008A3909F40BC2893909F40AC2863909F4E3
:1009400009C2853909F408C28A3609F407C2893612
:1009500009F406C2863609F405C2853609F404C2D4
:100960008A3509F403C2893509F402C2863509F4CF
:1009700001C291E0853509F090E0892F8195FBC196
:1009800080E0F9C181E0F7C182E0F5C183E0F3C105
:1009900084E0F1C185E0EFC186E0EDC187E0EBC105
:1009A00088E0E9C189E0E7C18AE0E5C18BE0E3C105
:1009B0008CE0E1C18DE0DFC18EE0DDC180E0DBC114
:1009C00080E1D9C181E1D7C182E1D5C183E1D3C141
:1009D00084E1D1C185E1CFC186E1CDC187E1CBC141
:1009E00088E1C9C189E1C7C18AE1C5C18BE1C3C141
:1009F0008CE1C1C18DE1BFC18EE1BDC180E0BBC151
:100A000080E2B9C181E2B7C182E2B5C183E2B3C17C
:100A100084E2B1C185E2AFC186E2ADC187E2ABC17C
:100A200088E2A9C189E2A7C18AE2A5C18BE2A3C17C
:100A30008CE2A1C18DE29FC18EE29DC180E09BC18D
:100A400080E399C181E397C182E395C183E393C1B8
:100A500084E391C185E38FC186E38DC187E38BC1B8
:100A600088E389C189E387C18AE385C18BE383C1B8
:100A70008CE381C18DE37FC18EE37DC180E07BC1CA
:100A800080E479C181E477C182E475C183E473C1F4
:100A900084E471C185E46FC186E46DC187E46BC1F4
:100AA00088E469C189E467C18AE465C18BE463C1F4
:100AB0008CE461C18DE45FC18EE45DC180E05BC107
:100AC00080E559C181E557C182E555C183E553C130
:100AD00084E551C185E54FC186E54DC187E54BC130
:100AE00088E549C189E547C18AE545C18BE543C130
:100AF0008CE541C18DE53FC18EE53DC180E03BC144
:100B000080E639C181E637C182E635C183E633C16B
:100B100084E631C185E62FC186E62DC187E62BC16B
:100B200088E629C18AE627C18BE625C18CE623C168
:100B30008DE621C18EE61FC180E01DC180E71BC18B
:100B400081E719C182E717C183E715C184E713C1A3
:100B500085E711C186E70FC187E70DC188E70BC1A3
:100B600089E709C18AE707C18BE705C18CE703C1A3
:100B70008DE701C18EE7FFC080E0FDC080E8FBC0CB
:100B800081E8F9C082E8F7C083E8F5C084E8F3C0E3
:100B900085E8F1C086E8EFC087E8EDC088E8EBC0E3
:100BA00089E8E9C08AE8E7C08BE8E5C08CE8E3C0E3
:100BB0008DE8E1C08EE8DFC080E0DDC080E9DBC009
:100BC00081E9D9C082E9D7C083E9D5C084E9D3C01F
:100BD00085E9D1C087E9CFC088E9CDC089E9CBC01C
:100BE0008AE9C9C08BE9C7C08CE9C5C08DE9C3C01B
:100BF0008EE9C1C080E0BFC080EABDC081EABBC051
:100C000082EAB9C083EAB7C084EAB5C085EAB3C056
:100C100086EAB1C087EAAFC088EAADC089EAABC056
:100C20008AEAA9C08BEAA7C08CEAA5C08DEAA3C056
:100C30008EEAA1C080E09FC080EB9DC081EB9BC08D
:100C400082EB99C083EB97C084EB95C085EB93C092
:100C500086EB91C087EB8FC088EB8DC089EB8BC092
:100C60008AEB89C08BEB87C08CEB85C08DEB83C092
:100C70008EEB81C080E07FC080EC7DC081EC7BC0CA
:100C800082EC79C083EC77C084EC75C085EC73C0CE
:100C900086EC71C087EC6FC088EC6DC089EC6BC0CE
:100CA0008AEC69C08BEC67C08CEC65C08DEC63C0CE
:100CB0008EEC61C080E05FC080ED5DC081ED5BC007
:100CC00082ED59C083ED57C084ED55C085ED53C00A
:100CD00086ED51C087ED4FC088ED4DC089ED4BC00A
:100CE0008AED49C08BED47C08CED45C08DED43C00A
:100CF0008EED41C080E03FC080EE3DC081EE3BC044
:100D000082EE39C083EE37C084EE35C085EE33C045
:100D100086EE31C087EE2FC088EE2DC089EE2BC045
:100D20008AEE29C08BEE27C08CEE25C08DEE23C045
:100D30008EEE21C080E01FC080E01DC080EF1BC090
:100D400081EF19C082EF17C083EF15C084EF13C085
:100D500085EF11C086EF0FC087EF0DC088EF0BC085
:100D600089EF09C08AEF07C08BEF05C08CEF03C085
:100D70008DEF01C08EEF8F3709F494C08F3F09F4D7
:100D800003C18D3009F0C4C0F7018480958000E074
:100D900010E08BE693E00E94D00AD401ED91FC9123
:100DA000E00FF11F8081482E512C612C712C19A26B
:100DB0005E01B1E2AB0EB11CC301B2012AE030E02A
:100DC00040E050E00E949714842DEAE02E9F8019A5
:100DD0001124F1E0AF1AB1088A3014F4805D01C02B
:100DE000895CD5018C9329013A01232B242B252BD7
:100DF00019F7C5010E94D00A0F5F1F4F003211057D
:100E000041F669E573E0F701828193810E94050153
:100E1000D7011496ED91FC9115976081718112961E
:100E20008D919C9113970E9405016CE273E0F7018C
:100E3000828193810E940501D7011296AD90BC90EA
:100E400013971496ED91FC911597628170E080E004
:100E500090E00E947A138E010F5F1F4F20E041E067
:100E60000E94220FB801C5010E9405016EE273E0E5
:100E7000F701828193810E94050160E373E0D7014D
:100E800012968D919C9113970E940501D70114969B
:100E9000ED91FC91159712820190F081E02D118265
:100EA000108272C066E473E0F701828193810E9430
:100EB000050110E0D7011496ED91FC911597228160
:100EC00012968D919C911397121730F46BE673E094
:100ED0000E9405011F5FEECF66E473E00E940501EA
:100EE000D7011496ED91FC9115978281882311F01A
:100EF00081508283D7011496ED91FC911597608102
:100F0000718112968D919C9113970E9405013CC0AE
:100F100090EE980F9F35C0F5D7011496ED91FC9196
:100F200015979281903280F5A081B181A90FB11DF2
:100F30008C9392819F5F903208F09FE192830190A1
:100F4000F081E02DE90FF11D1082F701028113817C
:100F5000D8019C91911133C0815090E0FC01EB5F6E
:100F6000FD4F6081FC01EA5FFE4F8081F8016183E3
:100F7000828380E993E00E940009D80112966C9167
:100F800080E993E00E9400091C141D040CF488C938
:100F9000A1960FB6F894DEBF0FBECDBFDF91CF9103
:100FA0001F910F91FF90EF90DF90CF90BF90AF9087
:100FB0009F908F907F906F905F904F900895682FD3
:100FC000DFCF1F920F920FB60F9211242F933F93F2
:100FD0004F935F936F937F938F939F93AF93BF9341
:100FE000EF93FF93E091B203F091B30380894081C6
:100FF000518162817381082E000C990BAA0BBB0BE7
:10100000840F951FA61FB71F80839183A283B3838C
:1010100080819181A281B3818C3F9F4FAF4FBF4FA1
:1010200020F0808918160CF459C080819181A2812A
:10103000B3818C3F9F4FAF4FBF4F18F0808987FD22
:1010400052C0608171818281938126E030E040E06E
:1010500050E00E9497146330A1F028F4613049F009
:10106000623069F004C06430B1F06530D1F061E005
:1010700019C061E082E00E94DC0B60E007C061E023
:1010800001C060E082E00E94DC0B61E083E00E942E
:10109000DC0B60E00FC060E082E00E94DC0B61E0EE
:1010A00005C060E082E00E94DC0B60E083E00E940B
:1010B000DC0B61E084E00E94DC0BFF91EF91BF91BB
:1010C000AF919F918F917F916F915F914F913F91E0
:1010D0002F910F900FBE0F901F90189510821182C4
:1010E00012821382A2CF8BEF9FEFAFEFBFEF80830F
:1010F0009183A283B383A5CFEF92FF920F931F93A7
:10110000CF93DF93CDB7DEB72A970FB6F894DEBF43
:101110000FBECDBF7C01CB01BA018E010F5F1F4F07
:1011200023E044E00E94220FB801C7010E9405019C
:101130002A960FB6F894DEBF0FBECDBFDF91CF91D8
:101140001F910F91FF90EF9008950F931F93FC0153
:101150008FB7F89440918C0350918D0360918E036A
:1011600070918F038FBF848595850197C9F40081A5
:1011700011812281338184819581A681B781840F79
:10118000951FA61FB71F401751076207730720F06E
:10119000801B910BA20BB30B84839583A683B7832B
:1011A000408351836283738380859185A285B38553
:1011B0000097A105B10589F0448155816681778149
:1011C00084179507A607B70750F481E090E097874A
:1011D00086871482158216821782158614861F91BF
:1011E0000F910895CF93DF93EC010E94A5081C8214
:1011F0001D821E821F821F861E86DF91CF91089559
:101200000F931F93CF93DF93FC01A685B7858D01C4
:10121000005C1F4FE8018881998101968F7399279F
:10122000AD014E5B5F4FEA012881398128173907EC
:10123000D1F3E80128813981A20FB31F6C93A685F1
:10124000B785A05CBF4F11969C938E93A689B789F2
:101250002C9181E090E0078C02C0880F991F0A94BE
:10126000E2F7822B8C9381E081A30488F589E02D3D
:1012700080818064808381E090E0DF91CF911F9135
:101280000F910895FC0181A1882329F0A489B589D3
:101290008C9186FFFBCF11A20895FC01A485B58532
:1012A000FD01E05CFF4F2081318132968081918188
:1012B0002817390779F080819181A80FB91F8C9187
:1012C000208131812F5F3F4F2F733327318320835C
:1012D00090E008958FEF9FEF0895DC011C96ED914B
:1012E000FC911D97DF01A05CBF4F2D913C911197A0
:1012F00012968D919C9111972817390739F08D918D
:101300009C91E80FF91F808190E008958FEF9FEF87
:101310000895FC0124853585F901E05CFF4F80814B
:101320009181329620813181821B930B8F73992793
:101330000895CF92DF92EF92FF920F931F93CF9376
:10134000DF936C01EB017B01E40EF51E00E010E081
:10135000CE15DF0561F06991D601ED91FC91019008
:10136000F081E02DC6010995080F191FF1CFC801C2
:10137000DF91CF911F910F91FF90EF90DF90CF9071
:101380000895089540E65AEE60E070E0FC01408B5D
:10139000518B628B738B21E030E0358B248B089668
:1013A0000C94F2088F929F92AF92BF92CF92DF92ED
:1013B000EF92FF920F931F93CF93DF93CDB7DEB7DA
:1013C00064970FB6F894DEBF0FBECDBF8C01DC0171
:1013D0009496ED90FC909597F701868597858130DE
:1013E0009105D1F51786168695878487C090B2033C
:1013F000D090B303F60180819181A281B381F8017D
:1014000080A491A4A2A4B3A4BC01CD016819790958
:101410008A099B090E947A1320E030E046E154E4F7
:101420000E942A1420E030E040EC50E40E940613B1
:10143000D80114966D937D938D939C931797F60125
:1014400080819181A281B381F80180A791A7A2A791
:10145000B3A7C7010E94F208D8019696ED91FC91BE
:101460009797868597858130910509F07AC0178610
:1014700016869587848780918800909189001296BE
:10148000ED90FC90139761E673E0C7010E9405019F
:1014900040E050E86BE375E4C7010E947C0869E511
:1014A00073E0C7010E940501F801E280F38067E65E
:1014B00073E0C7010E94050140E050E060E572E47E
:1014C000C7010E947C0869E573E0C7010E9405011D
:1014D0006DE673E0D80112968D919C9113970E944E
:1014E0000501F8014481558166817781828193816C
:1014F0000E947C0869E573E0D80112968D919C9159
:1015000013970E94050163E773E0F80182819381DC
:101510000E940501E091B203F091B30360817181F3
:1015200082819381D8011296ED90FC9013972AE066
:10153000AE014F5F5F4F0E94450FBE016F5F7F4F4F
:10154000C7010E94050169E573E0F801828193817A
:101550000E940501D80196968D919C9197970E94C3
:10156000F208F80184A195A10E94A508D8019696D9
:101570008D919C9197970E94A50864960FB6F89458
:10158000DEBF0FBECDBFDF91CF911F910F91FF90B6
:10159000EF90DF90CF90BF90AF909F908F90089585
:1015A000009769F0FC0101900020E9F73197AF0145
:1015B000481B590BBC0180E993E00C94990980E029
:1015C00090E0089590E0FC01E256FE4F2491FC016A
:1015D000E657FE4F8491882399F090E0880F991F79
:1015E000FC01E058FE4FA591B491FC01EA58FE4F72
:1015F000859194918FB7F894EC91E22BEC938FBF87
:1016000008950F931F93CF93DF938C0182E00E9484
:10161000E20A83E00E94E20A84E00E94E20A109259
:10162000800084E390E09093890080938800EFE647
:10163000F0E08081826080838DE080938100109251
:10164000850010928400789480E190E00E94E0117F
:10165000EC011C821D821E821F82188219821A824E
:101660001B821F861E86D80195969C938E93949715
:1016700080E190E00E94E011FC0114821582168244
:101680001782108211821282138217861686D80161
:1016900097969C938E93969784E690E0A0E0B0E0B6
:1016A00088879987AA87BB8781E090E09D878C8790
:1016B00040E65AEE60E070E04087518762877387AA
:1016C00095878487DF91CF911F910F9108951F9285
:1016D0000F920FB60F9211242F933F938F939F93E6
:1016E000EF93FF93209128043091290480912A04DC
:1016F00090912B042817390731F48091C1008F7D18
:101700008093C10014C0E0912A04F0912B04E851A9
:10171000FC4F208180912A0490912B0401968F73B5
:10172000992790932B0480932A042093C600FF915D
:10173000EF919F918F913F912F910F900FBE0F903E
:101740001F9018951F920F920FB60F9211242F938E
:101750004F935F938F939F93EF93FF938091C0007C
:1017600082FD1CC02091C60080916C0490916D0494
:1017700040916E0450916F0401968F73992748171A
:10178000590771F0E0916C04F0916D04E45DFB4F3A
:10179000208390936D0480936C0402C08091C600F6
:1017A000FF91EF919F918F915F914F912F910F90AA
:1017B0000FBE0F901F90189590E0FC01EE59FE4F60
:1017C0002491FC01E256FE4F3491FC01E657FE4F96
:1017D000E491EE2309F43CC0222339F1233091F047
:1017E00038F42130A9F0223001F584B58F7D12C084
:1017F000263091F02730A1F02430B9F48091800098
:101800008F7D03C0809180008F77809380000DC012
:1018100084B58F7784BD09C08091B0008F7703C0F5
:101820008091B0008F7D8093B000F0E0EE0FFF1F3D
:10183000EA58FE4FA591B4919FB7F894611104C086
:101840008C913095382302C0EC913E2B3C939FBF86
:1018500008951F920F920FB60F9211242F933F936A
:101860008F939F93AF93BF9380918C0390918D033F
:10187000A0918E03B0918F033091E70323E0230FF3
:101880002D3720F40196A11DB11D05C026E8230FB8
:101890000296A11DB11D2093E70380938C039093C2
:1018A0008D03A0938E03B0938F038091E3039091F7
:1018B000E403A091E503B091E6030196A11DB11DDB
:1018C0008093E3039093E403A093E503B093E603CE
:1018D000BF91AF919F918F913F912F910F900FBE2C
:1018E0000F901F901895CF93DF93EC0180E48093C5
:1018F0007C0080917A00806480937A0080917A00E5
:1019000086FDFCCF609178008091790070E0782BA3
:10191000072E000C880B990B0E947A1320E030E010
:1019200040E851E40E942A1420E030EC4FE754E4F0
:101930000E9406136C837D838E839F8369E773E027
:101940008A819B810E9405014C815D816E817F812E
:101950008A819B810E947C0869E573E08A819B8172
:10196000DF91CF910C9405010F931F93CF93DF93D9
:101970008C01085F1F4FFC01268937892130310512
:10198000B1F4EC01178A168A358B248B0E94730CF4
:1019900026E636E646E451E46C817D818E819F81A6
:1019A0000E940113181654F4C8010E94F208C801DD
:1019B000DF91CF911F910F910C94A50860E873E01F
:1019C0008A819B810E940501EFCF789484B5826063
:1019D00084BD84B5816084BD85B5826085BD85B5D3
:1019E000816085BD80916E00816080936E00109251
:1019F00081008091810082608093810080918100CC
:101A0000816080938100809180008160809380005C
:101A10008091B10084608093B1008091B0008160BA
:101A20008093B00080917A00846080937A008091E6
:101A30007A00826080937A0080917A00816080933E
:101A40007A0080917A00806880937A001092C100B9
:101A5000E091A403F091A503C1E0D0E0CE01009095
:101A6000B00302C0880F991F0A94E2F78083E091C7
:101A7000A003F091A1031082E091A203F091A303CF
:101A80008FEC80831092B103E091A603F091A7033D
:101A90002081CE010090AC0302C0880F991F0A94E8
:101AA000E2F7822B8083E091A603F091A7032081C7
:101AB000CE010090AD0302C0880F991F0A94E2F78F
:101AC000822B8083E091A603F091A7032081CE01B1
:101AD0000090AE0302C0880F991F0A94E2F7822B90
:101AE0008083E091A603F091A70390819E0100906E
:101AF000AF0302C0220F331F0A94E2F7822F8095B2
:101B000089238083E091D103F091D20381E0808327
:101B100088E493E00E94D00A8DE00E94E20A84EFFC
:101B200091E0A0E0B0E08093DB039093DC03A0930E
:101B3000DD03B093DE03D093E003C093DF0389EBB2
:101B400093E00E94730C80E993E00E944209809127
:101B5000B7039091B803DC01ED91FC910190F08105
:101B6000E02D09956BE573E08091D1039091D2034C
:101B70000E94050184EFC82EDD24D394E12CF12CC2
:101B80008091B403882311F061E001C060E08DE032
:101B90000E94DC0B8091E1039091E203813091057A
:101BA000B1F41092E2031092E1039093E00380936A
:101BB000DF038091B403811104C081E08093B403FA
:101BC00002C01092B40383ED93E00E94F20883ED0B
:101BD00093E00E94A50889EB93E00E94B40CC092A8
:101BE000DB03D092DC03E092DD03F092DE03D093BE
:101BF000E003C093DF038091B7039091B803DC0149
:101C0000ED91FC910280F381E02D09958091B5035F
:101C10009091B603DC01ED91FC910280F381E02DFF
:101C20000995AECF0F931F93CF93DF931092930339
:101C30001092920388EE93E0A0E0B0E080939403CA
:101C400090939503A0939603B093970388E093E055
:101C500090939103809390038CE294E090939D0382
:101C600080939C0388EE93E090939F0380939E0360
:101C700085EC90E09093A1038093A00384EC90E026
:101C80009093A3038093A20380EC90E09093A5032C
:101C90008093A40381EC90E09093A7038093A60324
:101CA00082EC90E09093A9038093A80386EC90E0E7
:101CB0009093AB038093AA0384E08093AC0383E00A
:101CC0008093AD0387E08093AE0385E08093AF03FC
:101CD00081E08093B0031092D7031092D803109242
:101CE000D9031092DA031092E0031092DF031092EE
:101CF000DB031092DC031092DD031092DE031092DE
:101D0000D3031092D4031092D5031092D6031092ED
:101D1000E2031092E10383E090E00E94E011EC0105
:101D200018829093D2038093D1039093BC03809345
:101D3000BB0388E293E09093BA038093B9031092B7
:101D4000BD031092BE031092BF031092C003109205
:101D5000C5031092C6031092C7031092C8031092D5
:101D6000CE031092CD031092C9031092CA031092B1
:101D7000CB031092CC031092C1031092C2031092B5
:101D8000C3031092C4031092D0031092CF0389EBC7
:101D900093E00E94C20980E994E09093B30380939A
:101DA000B20380E090E021E0FC01EE0FFF1FEE0F98
:101DB000FF1FE057FB4F1082118212821382FC0139
:101DC000E057FB4F208B01968430910569F788E33B
:101DD00090E00E94E011FC01D383C28380E293E093
:101DE0009183808310A611A612A613A6F093B803C0
:101DF000E093B70384E090E00E94E0118C01FC01C5
:101E0000D383C28388E193E09183808383E090E071
:101E10000E94E01120E734E0FC013183208312822C
:101E20001092710410927004F801958384831093CA
:101E3000B6030093B5031092B403DF91CF911F91C5
:101E40000F910895EF920F931F93CF93DF93E801C3
:101E500047FD02C034E001C034E1042E000C550BF4
:101E600057FF03C0519541955109E32E022F242FAE
:101E7000AE010E94670FCE01DF91CF911F910F91AC
:101E8000EF900895F8940C94BF14BB27FA01A62F85
:101E90006217710581059105330B30FB66F0AA27A7
:101EA000660F771F881F991FAA1FA21710F0A21B89
:101EB00063953850A9F7A05DAA3308F0A95DA193F6
:101EC00036F7B111B1931082CA010C949911A9E0AF
:101ED000B0E0EDE6FFE00C94AF116A01122FB02ED6
:101EE0002BE3201720F0FF24F394F00E02C02CE324
:101EF000F22E0F2D27E0AE014F5F5F4F0E94C11001
:101F0000BC014981842F8970813031F0E1FC06C029
:101F1000E0FE06C090E205C09DE203C09BE201C066
:101F200090E05E2D507143FF3CC0911102C083E0F0
:101F300001C084E0811718F4212F281B01C020E084
:101F400051110BC0F601822F30E2882319F0319332
:101F50008150FBCFC20ED11C20E0992329F0D6017D
:101F60009C93F60131966F01C6010396E2FE0AC00A
:101F70003EE4D6013C9341E411964C93119712969E
:101F80003C9306C03EE6F601308341E6418332834E
:101F9000FC01322F40E2332309F442C04193315017
:101FA000FACF42FF44C0911102C083E001C084E037
:101FB000811718F4212F281B01C020E051110BC0FC
:101FC000F601822F30E2882319F031938150FBCF44
:101FD000C20ED11C20E0992329F0D6019C93F60172
:101FE00031966F01C6010396E2FE0BC039E4D601BB
:101FF0003C933EE411963C93119736E412963C9341
:1020000007C039E6F60130833EE6318336E6328397
:10201000FC01322F40E2332319F041933150FBCFC2
:10202000FC01E20FF11D10828EEF9FEFA6C021E0B0
:1020300030E0911102C020E030E0161617061CF4C3
:10204000FB01319602C0E1E0F0E02E0F3F1FBB2004
:1020500021F0EB2DF0E0319602C0E0E0F0E02E0F31
:102060003F1FE12FF0E02E173F071CF4121B212F1A
:1020700001C020E08E2D887159F4F601822F30E2E4
:10208000882319F031938150FBCFC20ED11C20E080
:10209000992329F0D6019C93F60131966F015111D5
:1020A0000BC0F601822F90E3882319F091938150A1
:1020B000FBCFC20ED11C20E00F2D060F9A81342FCA
:1020C000307144FF03C0913309F40150101624F419
:1020D000093018F008E001C001E0AB0177FF02C051
:1020E00040E050E0FB01E41BF50BA1E0B0E0AC0FD9
:1020F000BD1FEA0FFB1F8EE2A82E4B01801A91082C
:102100000B2D10E01195019511094F3FBFEF5B07B3
:1021100021F4D601AC9211966D01641775072CF06D
:102120008416950614F4818101C080E34150510961
:102130003196D60111967D014017510724F0D60142
:102140008C936701E2CF6417750739F4963320F456
:10215000953319F4311101C081E3F6018083F70151
:10216000822F90E2882319F091938150FBCFF701E1
:10217000E20FF11D108280E090E02996ECE00C94D3
:10218000CB11283008F027E03327DA01990F311DF1
:1021900087FD916000966105710539F432602E5F0C
:1021A0003D9330E32A95E1F708959F3F30F0803862
:1021B0007105610509F03C5F3C5F3D93913008F08B
:1021C0008068911DDF93CF931F930F93FF92EF923F
:1021D000192F987F9695E92F96959695E90FFF27E9
:1021E000EE53FF4F99273327EE24FF24A701E70181
:1021F00005900894079428F4360FE71EF81E491F2F
:10220000511D660F771F881F991F0694A1F705902F
:10221000079428F4E70EF81E491F561FC11D770FBB
:10222000881F991F661F0694A1F70590079428F44C
:10223000F80E491F561FC71FD11D880F991F661F13
:10224000771F0694A1F70590079420F4490F561FB5
:10225000C71FD81F990F661F771F881F0694A9F7FD
:1022600084911095177041F0D695C795579547956D
:10227000F794E7941A95C1F7E8E6F0E068941590B2
:10228000159135916591959105907FE27395E118CF
:10229000F10A430B560BC90BD009C0F7E10CF11E34
:1022A000431F561FC91FD01D7EF4703311F48A9549
:1022B000E6CFE894015030F0080F0AF40027021727
:1022C00008F4202F2395022F7A3328F079E37D93A9
:1022D0002A95E9F710C07D932A9589F6069497957B
:1022E0006795379517951794E118F10A430B560B2C
:1022F000C90BD00998F023957E9173957A3308F035
:1023000070E37C932013B8F77E9170617D9330F079
:10231000839571E37D9370E32A95E1F71124EF90A3
:10232000FF900F911F91CF91DF91992787FD909595
:102330000895DC01FC01672F71917723E1F7329753
:1023400004C07C916D9370836291AE17BF07C8F390
:1023500008952F923F924F925F926F927F928F9249
:102360009F92AF92BF92CF92DF92EF92FF920F9324
:102370001F93CF93DF93CDB7DEB7CA1BDB0B0FB62E
:10238000F894DEBF0FBECDBF09942A8839884888EB
:102390005F846E847D848C849B84AA84B984C88481
:1023A000DF80EE80FD800C811B81AA81B981CE0F78
:1023B000D11D0FB6F894DEBF0FBECDBFED0108955D
:1023C0000F931F93CF93DF938230910510F482E037
:1023D00090E0E091A604F091A70420E030E0A0E0B6
:1023E000B0E0309719F14081518102811381481783
:1023F0005907C8F08417950769F4109731F01296C1
:102400000C93129713961C9327C00093A604109365
:10241000A70422C02115310519F04217530718F4FB
:102420009A01BD01EF01DF01F801DBCF2115310574
:10243000F9F0281B390B2430310580F48A819B8107
:102440006115710521F0FB019383828304C0909391
:10245000A7048093A604FE01329644C0FE01E20F59
:10246000F31F8193919322503109398328833AC015
:102470002091A4043091A504232B41F42091020162
:10248000309103013093A5042093A404209100010E
:10249000309101012115310541F42DB73EB740912E
:1024A000040150910501241B350BE091A404F09127
:1024B000A504E217F307A0F42E1B3F0B28173907DA
:1024C00078F0AC014E5F5F4F2417350748F04E0F90
:1024D0005F1F5093A5044093A4048193919302C07D
:1024E000E0E0F0E0CF01DF91CF911F910F910895CF
:1024F000CF93DF93009709F481C0FC0132971382D8
:102500001282A091A604B091A704109781F42081B3
:102510003181820F931F2091A4043091A5042817C4
:10252000390751F5F093A504E093A40467C0ED01C9
:1025300020E030E0CE17DF0740F44A815B819E0146
:1025400041155105F1F0EA01F5CFD383C2834081F3
:102550005181840F951FC817D90759F48881998133
:10256000840F951F0296918380838A819B81938338
:1025700082832115310529F4F093A704E093A60482
:102580003DC0E901FB83EA8349915991C40FD51FEE
:10259000EC17FD0761F480819181840F951F0296ED
:1025A000E90199838883828193819B838A83E0E018
:1025B000F0E012968D919C911397009719F0FD0110
:1025C000DC01F7CF8D919C9111979D012E5F3F4FBC
:1025D000820F931F2091A4043091A5042817390776
:1025E00069F4309729F41092A7041092A60402C04F
:1025F00013821282B093A504A093A404DF91CF911B
:1026000008950E94B51308F481E008950E941A13FA
:102610000C94F0130E94E91358F00E94E21340F06A
:1026200029F45F3F29F00C94D91351110C94241410
:102630000C94DF130E94011468F39923B1F355231E
:1026400091F3951B550BBB27AA27621773078407C5
:1026500038F09F5F5F4F220F331F441FAA1FA9F35B
:1026600035D00E2E3AF0E0E832D091505040E69549
:10267000001CCAF72BD0FE2F29D0660F771F881FAA
:10268000BB1F261737074807AB07B0E809F0BB0B9D
:10269000802DBF01FF2793585F4F3AF09E3F5105B1
:1026A00078F00C94D9130C9424145F3FE4F3983E13
:1026B000D4F3869577956795B795F7959F5FC9F79A
:1026C000880F911D9695879597F90895E1E0660F1B
:1026D000771F881FBB1F621773078407BA0720F094
:1026E000621B730B840BBA0BEE1F88F7E0950895FD
:1026F000E89409C097FB3EF490958095709561959C
:102700007F4F8F4F9F4F9923A9F0F92F96E9BB2751
:102710009395F695879577956795B795F111F8CFCD
:10272000FAF4BB0F11F460FF1BC06F5F7F4F8F4F38
:102730009F4F16C0882311F096E911C0772321F02E
:102740009EE8872F762F05C0662371F096E8862FC6
:1027500070E060E02AF09A95660F771F881FDAF71D
:10276000880F9695879597F90895990F0008550F4A
:10277000AA0BE0E8FEEF16161706E807F907C0F007
:1027800012161306E407F50798F0621B730B840B0F
:10279000950B39F40A2661F0232B242B252B21F4E9
:1027A00008950A2609F4A140A6958FEF811D811D89
:1027B000089597F99F6780E870E060E008959FEFC3
:1027C00080EC089500240A941616170618060906C8
:1027D000089500240A941216130614060506089597
:1027E000092E0394000C11F4882352F0BB0F40F41F
:1027F000BF2B11F460FF04C06F5F7F4F8F4F9F4F5F
:10280000089557FD9058440F551F59F05F3F71F0E0
:102810004795880F97FB991F61F09F3F79F0879547
:102820000895121613061406551FF2CF4695F1DFD0
:1028300008C0161617061806991FF1CF8695710560
:10284000610508940895E894BB2766277727CB0194
:1028500097F908950E943D140C94F0130E94E2131E
:1028600038F00E94E91320F0952311F00C94D9134D
:102870000C94DF1311240C9424140E94011470F39F
:10288000959FC1F3950F50E0551F629FF001729F15
:10289000BB27F00DB11D639FAA27F00DB11DAA1F24
:1028A000649F6627B00DA11D661F829F2227B00D71
:1028B000A11D621F739FB00DA11D621F839FA00DFC
:1028C000611D221F749F3327A00D611D231F849F4C
:1028D000600D211D822F762F6A2F11249F575040A3
:1028E0009AF0F1F088234AF0EE0FFF1FBB1F661F1E
:1028F000771F881F91505040A9F79E3F510580F0E7
:102900000C94D9130C9424145F3FE4F3983ED4F351
:10291000869577956795B795F795E7959F5FC1F78A
:10292000FE2B880F911D9695879597F90895A1E242
:102930001A2EAA1BBB1BFD010DC0AA1FBB1FEE1F39
:10294000FF1FA217B307E407F50720F0A21BB30B84
:10295000E40BF50B661F771F881F991F1A9469F700
:1029600060957095809590959B01AC01BD01CF015C
:102970000895EE0FFF1F0590F491E02D0994F8944F
:02298000FFCF87
:102982000000A8042000A9A6A59A9996956A6966EE
:10299200655A595655AAA9A6A59A9996956A69663D
:1029A200655A595655AAA9A6A59A9996956A69662D
:1029B200655A595655AAA9A6A59A9996956A69661D
:1029C200655A595655AAA9A6A59A9996956A69660D
:1029D200655A595655AAA9A6A59A9996956A6966FD
:1029E200655A595655AAA9A6A59A9996956A6966ED
:1029F200655A595655AAA9A6A59A9996956A6966DD
:102A0200655A595655AAA9A6A59A9996956A6966CC
:102A1200655A595655AAA9A6A59A9996956A6966BC
:102A2200655A595655AAA9A6A59A9996956A6966AC
:102A3200655A595655AAA9A6A59A9996956A69669C
:102A4200655A595655AAA9A6A59A9996956A69668C
:102A5200655A595655AAA9A6A59A9996956A69667C
:102A6200655A595655AAA9A6A59A9996956A69666C
:102A7200655A595655AAA9A6A59A9996956A69665C
:102A8200655A595655AAAAAAAAAAAAAAAAAAAAAA33
:102A9200AAAAAAAAA9A9A9A9A9A9A9A9A9A9A9A9A0
:102AA200A9A9A9A9A6A6A6A6A6A6A6A6A6A6A6A6B8
:102AB200A6A6A6A6A5A5A5A5A5A5A5A5A5A5A5A5C0
:102AC200A5A5A5A59A9A9A9A9A9A9A9A9A9A9A9A38
:102AD2009A9A9A9A99999999999999999999999960
:102AE2009999999996969696969696969696969678
:102AF2009696969695959595959595959595959580
:102B0200959595956A6A6A6A6A6A6A6A6A6A6A6A77
:102B12006A6A6A6A6969696969696969696969691F
:102B22006969696966666666666666666666666637
:102B3200666666666565656565656565656565653F
:102B4200656565655A5A5A5A5A5A5A5A5A5A5A5AB7
:102B52005A5A5A5A595959595959595959595959DF
:102B620059595959565656565656565656565656F7
:102B720056565656555555555555555555555555FF
:102B820055555555000000000009990989094D095C
:102B92006D09420900000000040137010000000035
:102BA200010BD20900000000C209B40C2800290060
:102BB2003A20636F6D6D616E64206E6F7420666F74
:102BC200756E64210A000D00496E697469616C6951
:102BD2007A696E67202E2E2E200A00446F6E650AD7
:102BE200007370303A20007467303A2000737064CA
:102BF2003A2000506F733A2000764261743A200006
:0C2C020076426174204C4F57210A0000FC
:00000001FF
