:100000000C9409010C9431010C9431010C943101D0
:100010000C9431010C9431010C9431010C94310198
:100020000C9431010C9431010C9431010C94310188
:100030000C9431010C9431010C9431010C94310178
:100040000C9437100C9431010C94650C0C942A0C10
:100050000C9431010C9431010C9431010C94310158
:100060000C94030B0C943101500A520A520A520AA2
:10007000520A3B0A520A520A520A520A520A3E0ACB
:10008000520A520A520A520A520A410A520A4A0AA9
:100090004D0A520A440A470A084AD73B3BCE016E32
:1000A00084BCBFFDC12F3D6C74319ABD56833DDACF
:1000B0003D00C77F11BED9E4BB4C3E916BAAAABEDE
:1000C000000000803F0000407A10F35A00A0724EFA
:1000D00018090010A5D4E80000E87648170000E4ED
:1000E0000B54020000CA9A3B000000E1F505000035
:1000F00080969800000040420F000000A08601009A
:100100000000102700000000E80300000000640069
:10011000000000000A0000000000010000000000D4
:100120002C76D888DC674F0823DFC1DFAE59E1B1F8
:10013000B796E5E3E453C63AE651997696E8E6C207
:100140008426EB898C9B62ED407C6FFCEFBC9C9F0E
:1001500040F2BAA56FA5F490055A2AF75C936B6C30
:10016000F9676DC11BFCE0E40D47FEF520E6B50024
:10017000D0ED902E0300943577050080841E080092
:1001800000204E0A000000C80C333333330F986E42
:1001900012831141EF8D2114893BE65516CFFEE6FF
:1001A000DB18D1844B381BF77C1D901DA4BBE424C5
:1001B000203284725E228100C9F124ECA1E53D2742
:1001C00000000000240027002A0000000000250095
:1001D00028002B00040404040404040402020202A4
:1001E00002020303030303030102040810204080FA
:1001F000010204081020010204081020000000077A
:1002000000020100000304060000000000000000DE
:10021000EF1611241FBECFEFD8E0DEBFCDBF14E034
:10022000A0E0B1E0E8E4F5E402C005900D92A6314B
:10023000B107D9F725E0A6E1B4E001C01D92AD3DBC
:10024000B207E1F711E0C9E0D1E004C02197FE0157
:100250000E949C22C830D107C9F70E94DE170C9477
:10026000E71B0C940000FC0117A216A211A610A611
:1002700013A612A615A614A617A616A611AA10AAAA
:1002800013AA12AA15AA14AA17AA0895CF93DF9346
:10029000FC012081211117C0615058F0262F30E059
:1002A000F901EB5FFD4F6081F901EA5FFE4F2081AC
:1002B00002C02AEA6AEAEC0169832A838BE494E0AB
:1002C0000E9489096A818BE494E0DF91CF910C94BC
:1002D00089090F931F93CF93DF93EC01972F8881A8
:1002E00081111DC0062F172FF80121918F012223A4
:1002F000E9F0215030E0F901EB5FFD4F6081F90139
:10030000EA5FFE4F808169838A838BE494E00E94D8
:1003100089096A818BE494E00E948909E5CF862FE0
:10032000DF91CF911F910F910C94560ADF91CF91DD
:100330001F910F910895EF92FF920F931F93CF9308
:10034000DF93CDB7DEB72A970FB6F894DEBF0FBEA6
:10035000CDBF7C01072E000C880B990B0E94EC206E
:100360008E010F5F1F4F20E041E00E94A91BB801E2
:10037000C7010E9469012A960FB6F894DEBF0FBE2E
:10038000CDBFDF91CF911F910F91FF90EF90089516
:100390000F931F93CF93DF93EC018A010E946901B1
:1003A000B801CE010E949B016DEA73E0CE01DF919E
:1003B000CF911F910F910C9469010F931F93CF93CD
:1003C000DF93EC010A811B8164E473E0C8010E94A1
:1003D00069016DEA73E0C8010E9469014EA15FA145
:1003E00060E573E08A819B810E94C80148A559A5F8
:1003F00063E573E08A819B810E94C8014AA55BA5E1
:1004000066E573E08A819B810E94C8014CA55DA5C9
:1004100069E573E08A819B810E94C8014EA55FA5B2
:100420006CE573E08A819B810E94C80148A959A9A3
:100430006FE573E08A819B810E94C8014AA95BA98C
:1004400062E673E08A819B810E94C8014CA95DA984
:1004500065E673E08A819B81DF91CF911F910F91B7
:100460000C94C801EF92FF920F931F93CF93DF93E9
:10047000CDB7DEB72A970FB6F894DEBF0FBECDBF5B
:100480007C01CB01BA018E010F5F1F4F23E044E0D6
:100490000E94A91BB801C7010E9469012A960FB6E4
:1004A000F894DEBF0FBECDBFDF91CF911F910F91AA
:1004B000FF90EF900895CF92DF92EF92FF92CF934B
:1004C000DF93EC0169017A010E946901B701A6017D
:1004D000CE010E9432026DEA73E0CE01DF91CF912E
:1004E000FF90EF90DF90CF900C9469010F931F93D2
:1004F000FC018FB7F8944091CB055091CC056091E9
:10050000CD057091CE058FBF848595850197C9F47F
:10051000008111812281338184819581A681B781F7
:10052000840F951FA61FB71F401751076207730757
:1005300020F0801B910BA20BB30B84839583A683C1
:10054000B783408351836283738380859185A285BD
:10055000B3850097A105B10589F044815581668175
:10056000778184179507A607B70750F481E090E0DC
:1005700097878687148215821682178215861486BD
:100580001F910F910895CF92DF92EF92FF920F93F8
:100590001F93CF938C016C0184E0C80ED11CD8014D
:1005A0001296ED91FC9113978081882331F08BE4B2
:1005B00094E00E94120A7C0109C08BE494E00E943E
:1005C000120A97FD01967C01F594E794D8011296E2
:1005D000ED91FC9113978081882329F08BE494E0BE
:1005E0000E94D60947C58BE494E00E94D609C82F23
:1005F0008BE494E00E94D609CA3A91F58A3A09F44C
:100600003EC3893A09F43DC3863A09F43CC3853AAE
:1006100009F43BC38A3909F43AC3893909F439C367
:10062000863909F438C3853909F437C38A3609F4A1
:1006300036C3893609F435C3863609F434C38536A2
:1006400009F433C38A3509F432C3893509F431C357
:10065000863509F430C3853509F02FC38FE00AC50C
:10066000C93A91F58A3A09F42AC3893A09F429C3A7
:10067000863A09F428C3853A09F427C38A3909F46C
:1006800026C3893909F425C3863909F424C3853979
:1006900009F423C38A3609F422C3893609F421C335
:1006A000863609F420C3853609F41FC38A3509F458
:1006B0001EC3893509F41DC3863509F41CC385356D
:1006C00009F01BC38FE1D6C4C63A91F58A3A09F402
:1006D00016C3893A09F415C3863A09F414C3853A56
:1006E00009F413C38A3909F412C3893909F411C30F
:1006F000863909F410C3853909F40FC38A3609F421
:100700000EC3893609F40DC3863609F40CC3853649
:1007100009F40BC38A3509F40AC3893509F409C3FE
:10072000863509F408C3853509F007C38FE2A2C4F2
:10073000C53A91F58A3A09F402C3893A09F401C32A
:10074000863A09F400C3853A09F4FFC28A3909F4EC
:10075000FEC2893909F4FDC2863909F4FCC2853923
:1007600009F4FBC28A3609F4FAC2893609F4F9C2DF
:10077000863609F4F8C2853609F4F7C28A3509F4D9
:10078000F6C2893509F4F5C2863509F4F4C2853517
:1007900009F0F3C28FE36EC4CA3991F58A3A09F4BD
:1007A000EEC2893A09F4EDC2863A09F4ECC2853A00
:1007B00009F4EBC28A3909F4EAC2893909F4E9C2B9
:1007C000863909F4E8C2853909F4E7C28A3609F4A2
:1007D000E6C2893609F4E5C2863609F4E4C28536F4
:1007E00009F4E3C28A3509F4E2C2893509F4E1C2A9
:1007F000863509F4E0C2853509F0DFC28FE43AC4DA
:10080000C93991F58A3A09F4DAC2893A09F4D9C2A8
:10081000863A09F4D8C2853A09F4D7C28A3909F46C
:10082000D6C2893909F4D5C2863909F4D4C28539CA
:1008300009F4D3C28A3609F4D2C2893609F4D1C286
:10084000863609F4D0C2853609F4CFC28A3509F458
:10085000CEC2893509F4CDC2863509F4CCC28535BE
:1008600009F0CBC28FE506C4C63991F58A3A09F47E
:10087000C6C2893A09F4C5C2863A09F4C4C2853AA7
:1008800009F4C3C28A3909F4C2C2893909F4C1C260
:10089000863909F4C0C2853909F4BFC28A3609F421
:1008A000BEC2893609F4E6C3863609F4BAC2853673
:1008B00009F4B9C28A3509F4B8C2893509F4B7C256
:1008C000863509F4B6C2853509F0B5C28FE6D2C3C4
:1008D000C53991F58A3A09F4B0C2893A09F4AFC230
:1008E000863A09F4AEC2853A09F4ADC28A3909F4F0
:1008F000ACC2893909F4ABC2863909F4AAC2853978
:1009000009F4A9C28A3609F4A8C2893609F4A7C233
:10091000863609F4A6C2853609F4A5C28A3509F4DB
:10092000A4C2893509F4A3C2863509F4A2C285356B
:1009300009F0A1C28FE79EC3CA3691F58A3A09F43D
:100940009CC2893A09F49BC2863A09F49AC2853A54
:1009500009F499C28A3909F498C2893909F497C20D
:10096000863909F496C2853909F495C28A3609F4A4
:1009700094C2893609F493C2863609F492C2853648
:1009800009F491C28A3509F490C2893509F48FC2FD
:10099000863509F48EC2853509F08DC28FE86AC3A9
:1009A000C93691F58A3A09F488C2893A09F487C2AE
:1009B000863A09F486C2853A09F485C28A3909F46F
:1009C00084C2893909F483C2863909F453C385394D
:1009D00009F47FC28A3609F47EC2893609F47DC2E1
:1009E000863609F47CC2853609F47BC28A3509F45F
:1009F0007AC2893509F479C2863509F478C2853519
:100A000009F077C28FE936C3C63691F58A3A09F400
:100A100072C2893A09F471C2863A09F470C2853A01
:100A200009F46FC28A3909F46EC2893909F46DC2BA
:100A3000863909F46CC2853909F46BC28A3609F427
:100A40006AC2893609F469C2863609F468C28536F5
:100A500009F467C28A3509F466C2893509F465C2AA
:100A6000863509F464C2853509F063C28FEA02C392
:100A7000C53691F58A3A09F45EC2893A09F45DC235
:100A8000863A09F45CC2853A09F45BC28A3909F4F2
:100A90005AC2893909F459C2863909F458C28539CC
:100AA00009F457C28A3609F456C2893609F455C288
:100AB000863609F454C2853609F453C28A3509F4DE
:100AC00052C2893509F451C2863509F450C28535C0
:100AD00009F04FC28FEBCEC2CA3591F58A3A09F4BC
:100AE0004AC2893A09F449C2863A09F448C2853AA9
:100AF00009F447C28A3909F446C2893909F445C262
:100B0000863909F444C2853909F443C28A3609F4A6
:100B100042C2893609F441C2863609F440C285369C
:100B200009F43FC28A3509F43EC2893509F43DC251
:100B3000863509F43CC2853509F03BC28FEC9AC278
:100B4000C93591F58A3A09F436C2893A09F435C2B1
:100B5000863A09F434C2853A09F433C28A3909F471
:100B600032C2893909F431C2863909F430C2853973
:100B700009F42FC28A3609F42EC2893609F42DC22F
:100B8000863609F42CC2853609F42BC28A3509F45D
:100B90002AC2893509F429C2863509F428C2853567
:100BA00009F027C28FED66C2C63591F58A3A09F47D
:100BB00022C2893A09F421C2863A09F420C2853A50
:100BC00009F41FC28A3909F41EC2893909F41DC209
:100BD000863909F41CC2853909F41BC28A3609F426
:100BE0001AC2893609F419C2863609F418C2853644
:100BF00009F417C28A3509F416C2893509F415C2F9
:100C0000863509F414C2853509F013C28FEE32C25D
:100C1000C53509F010C28A3A09F40FC2893A09F4BD
:100C20000EC2863A09F40DC2853A09F40CC28A391B
:100C300009F40BC2893909F40AC2863909F409C2D8
:100C4000853909F408C28A3609F407C2893609F4DD
:100C500006C2863609F405C2853609F404C28A350F
:100C600009F403C2893509F402C2863509F401C2C8
:100C700091E0853509F090E0892F8195FBC180E0F6
:100C8000F9C181E0F7C182E0F5C183E0F3C184E0FE
:100C9000F1C185E0EFC186E0EDC187E0EBC188E0FE
:100CA000E9C189E0E7C18AE0E5C18BE0E3C18CE0FE
:100CB000E1C18DE0DFC18EE0DDC180E0DBC180E11C
:100CC000D9C181E1D7C182E1D5C183E1D3C184E13A
:100CD000D1C185E1CFC186E1CDC187E1CBC188E13A
:100CE000C9C189E1C7C18AE1C5C18BE1C3C18CE13A
:100CF000C1C18DE1BFC18EE1BDC180E0BBC180E259
:100D0000B9C181E2B7C182E2B5C183E2B3C184E275
:100D1000B1C185E2AFC186E2ADC187E2ABC188E275
:100D2000A9C189E2A7C18AE2A5C18BE2A3C18CE275
:100D3000A1C18DE29FC18EE29DC180E09BC180E395
:100D400099C181E397C182E395C183E393C184E3B1
:100D500091C185E38FC186E38DC187E38BC188E3B1
:100D600089C189E387C18AE385C18BE383C18CE3B1
:100D700081C18DE37FC18EE37DC180E07BC180E4D2
:100D800079C181E477C182E475C183E473C184E4ED
:100D900071C185E46FC186E46DC187E46BC188E4ED
:100DA00069C189E467C18AE465C18BE463C18CE4ED
:100DB00061C18DE45FC18EE45DC180E05BC180E50F
:100DC00059C181E557C182E555C183E553C184E529
:100DD00051C185E54FC186E54DC187E54BC188E529
:100DE00049C189E547C18AE545C18BE543C18CE529
:100DF00041C18DE53FC18EE53DC180E03BC180E64C
:100E000039C181E637C182E635C183E633C184E664
:100E100031C185E62FC186E62DC187E62BC188E664
:100E200029C18AE627C18BE625C18CE623C18DE660
:100E300021C18EE61FC180E01DC180E71BC181E793
:100E400019C182E717C183E715C184E713C185E79C
:100E500011C186E70FC187E70DC188E70BC189E79C
:100E600009C18AE707C18BE705C18CE703C18DE79C
:100E700001C18EE7FFC080E0FDC080E8FBC081E8D3
:100E8000F9C082E8F7C083E8F5C084E8F3C085E8DC
:100E9000F1C086E8EFC087E8EDC088E8EBC089E8DC
:100EA000E9C08AE8E7C08BE8E5C08CE8E3C08DE8DC
:100EB000E1C08EE8DFC080E0DDC080E9DBC081E911
:100EC000D9C082E9D7C083E9D5C084E9D3C085E918
:100ED000D1C087E9CFC088E9CDC089E9CBC08AE914
:100EE000C9C08BE9C7C08CE9C5C08DE9C3C08EE914
:100EF000C1C080E0BFC080EABDC081EABBC082EA59
:100F0000B9C083EAB7C084EAB5C085EAB3C086EA4F
:100F1000B1C087EAAFC088EAADC089EAABC08AEA4F
:100F2000A9C08BEAA7C08CEAA5C08DEAA3C08EEA4F
:100F3000A1C080E09FC080EB9DC081EB9BC082EB95
:100F400099C083EB97C084EB95C085EB93C086EB8B
:100F500091C087EB8FC088EB8DC089EB8BC08AEB8B
:100F600089C08BEB87C08CEB85C08DEB83C08EEB8B
:100F700081C080E07FC080EC7DC081EC7BC082ECD2
:100F800079C083EC77C084EC75C085EC73C086ECC7
:100F900071C087EC6FC088EC6DC089EC6BC08AECC7
:100FA00069C08BEC67C08CEC65C08DEC63C08EECC7
:100FB00061C080E05FC080ED5DC081ED5BC082ED0F
:100FC00059C083ED57C084ED55C085ED53C086ED03
:100FD00051C087ED4FC088ED4DC089ED4BC08AED03
:100FE00049C08BED47C08CED45C08DED43C08EED03
:100FF00041C080E03FC080EE3DC081EE3BC082EE4C
:1010000039C083EE37C084EE35C085EE33C086EE3E
:1010100031C087EE2FC088EE2DC089EE2BC08AEE3E
:1010200029C08BEE27C08CEE25C08DEE23C08EEE3E
:1010300021C080E01FC080E01DC080EF1BC081EF99
:1010400019C082EF17C083EF15C084EF13C085EF7E
:1010500011C086EF0FC087EF0DC088EF0BC089EF7E
:1010600009C08AEF07C08BEF05C08CEF03C08DEF7E
:1010700001C08EEFC82F8F3771F08F3F09F46AC01F
:101080008D30D1F5C8010E94AD0DF80114A2C60142
:101090000E9481105FC068E673E0D80112968D91BE
:1010A0009C9113970E946901C0E0F80124A18281FC
:1010B0009381C21730F466E673E00E946901CF5F46
:1010C000F4CF68E673E00E946901D80194968C9190
:1010D0009497882319F0815094968C93F80184A1F9
:1010E000E80FF11D1482B601D80112968D919C91E2
:1010F00013970E9469012EC080EE8C0F8F3550F53A
:10110000F80187A9882329F06C2F828193810E949E
:10111000460183ED8C0F8D3068F0D80194968C9148
:10112000823040F0C8010E94AD0DF80114A2C60142
:101130000E948110D80194968C91F801E80FF11D5E
:10114000C4838F5F803208F08FE1F80184A3E80F39
:10115000F11D14821E141F040CF421CACF911F919B
:101160000F91FF90EF90DF90CF90089585ED8093E1
:10117000BC008091BC0084FDFCCF10923A0408951D
:10118000613298F420913A04243089F46093DC04AD
:10119000282FACEBB4E0FC018E2F821B861718F4CD
:1011A00081918D93F9CF80E0089581E0089582E0E8
:1011B0000895CF92DF92EF92FF920F931F93CF93F8
:1011C000DF936C01EB017B01E40EF51E00E010E003
:1011D000CE15DF0561F06991D601ED91FC9101908A
:1011E000F081E02DC6010995080F191FF1CFC80144
:1011F000DF91CF911F910F91FF90EF90DF90CF90F3
:1012000008950895E091170480911604E81730F4CA
:10121000F0E0E85EFB4F808190E008958FEF9FEF54
:1012200008959091170480911604981750F4E92FAF
:10123000F0E0E85EFB4F208130E09F5F9093170461
:1012400002C02FEF3FEFC90108958091160490E08E
:1012500020911704821B91090895CF92DF92EF929B
:10126000FF920F931F93CF93DF937C01CB018A01F1
:1012700020913B04222389F0EB016B01C40ED51EA3
:10128000CC15DD0569F06991D701ED91FC910190D4
:10129000F081E02DC7010995F3CF642F0E94C008AB
:1012A000C801DF91CF911F910F91FF90EF90DF90D8
:1012B000CF900895CF93DF931F92CDB7DEB76983A8
:1012C00020913B042223D1F020913E04203240F0B3
:1012D00021E030E0FC013383228380E090E015C000
:1012E00080913C04E82FF0E0ED5DFA4F9981908306
:1012F0008F5F80933C0480933E0405C061E0CE0183
:1013000001960E94C00881E090E00F90DF91CF919C
:1013100008950F931F93CF93DF93FC01A685B785A4
:101320008D01005C1F4FE8018881998101968F73C0
:101330009927AD014E5B5F4FEA012881398128175B
:101340003907D1F3E80128813981A20FB31F6C93CB
:10135000A685B785A05CBF4F11969C938E93A689F6
:10136000B7892C9181E090E0078C02C0880F991F0B
:101370000A94E2F7822B8C9381E081A30488F5899B
:10138000E02D80818064808381E090E0DF91CF91C7
:101390001F910F910895FC0181A1882329F0A48950
:1013A000B5898C9186FFFBCF11A20895FC01A4851D
:1013B000B585FD01E05CFF4F20813181329680814F
:1013C00091812817390779F080819181A80FB91F81
:1013D0008C91208131812F5F3F4F2F7333273183D1
:1013E000208390E008958FEF9FEF0895DC011C9615
:1013F000ED91FC911D97DF01A05CBF4F2D913C91B9
:10140000119712968D919C9111972817390739F0F1
:101410008D919C91E80FF91F808190E008958FEFE6
:101420009FEF0895FC0124853585F901E05CFF4FAD
:1014300080819181329620813181821B930B8F7341
:101440009927089508951F93CF93DF93EC01162FEA
:10145000CA010E94C91B1EAB412F110F550B660B11
:10146000770BFA01E256F109E831F105D8F4EC5CAA
:10147000FF4F0C949C229FA38EA314C099A788A70A
:1014800011C09BA78AA70EC09DA78CA70BC09FA7C2
:101490008EA708C099AB88AB05C09BAB8AAB02C0D6
:1014A0009DAB8CABDF91CF911F910895009769F0B0
:1014B000FC0101900020E9F73197AF01481B590B5F
:1014C000BC018BE494E00C94D90880E090E008958E
:1014D000682F8FE394E00C945A09282F30913E0432
:1014E000313208F046C080913A048111FCCF9091CE
:1014F0003D0442E040933A04209339042FEF2093B7
:1015000022051092210530932005E3E2F5E0A0E0EA
:10151000B5E020E0321721F041914D932F5FFACFD3
:101520001092FF042091FF04990F922B9093FF04D7
:1015300090913804913041F4109238049091FF0456
:101540009093BB0095EC01C095EE9093BC009091F8
:101550003A049230E1F3909122059F3F79F0809117
:101560002205803241F080912205803331F084E001
:1015700005C081E003C082E001C083E010923C041A
:1015800010923E0410923B04089590913A049111F8
:10159000FCCF91E090933A04409339042FEF2093CD
:1015A000220510922105260F209320059093FF0419
:1015B0009091FF04880F892B8093FF048091380459
:1015C000813041F4109238048091FF048093BB0075
:1015D00085EC01C085EE8093BC0080913A04813097
:1015E000E1F380912105861710F460912105A0E0B8
:1015F000B5E0E8E1F4E080E0861721F09D91919359
:101600008F5FFACF08951F920F920FB60F92112499
:101610002F933F934F935F936F937F938F939F93FA
:10162000AF93BF93EF93FF938091B900887F80368B
:1016300009F49CC068F5883209F45BC090F48031ED
:1016400009F454C038F4882309F4EFC0883009F451
:101650004DC0EFC0883109F44CC0803209F45DC040
:10166000E8C0803409F468C048F4803309F455C0F8
:10167000883309F0DEC080932205D1C0803509F49B
:101680004FC0883509F45DC0883409F0D2C0CFC09E
:10169000883909F4C0C0A8F4883709F467C038F461
:1016A000883609F463C0803709F460C0C2C0883846
:1016B00009F4B1C0803909F45FC0803809F0B9C0BD
:1016C0005BC0803B09F481C038F4803A09F466C0FD
:1016D000883A09F47AC0ADC0803C09F4A0C0883CC7
:1016E00009F49DC0883B09F483C0A3C08091FF0426
:1016F00010C09091210580912005981770F5E09118
:10170000210581E08E0F80932105F0E0E050FB4F32
:1017100080818093BB0085EC7FC08093220587C0C9
:10172000E091210581E08E0F809321058091BB001F
:10173000F0E0E050FB4F80839091210580912005DF
:1017400067C0E091210581E08E0F80932105809193
:10175000BB00F0E0E050FB4F8083809139048111A1
:1017600066C081E08093380484EA5AC083E08093A5
:101770003A041092FE04CFCF8091FE04803208F02C
:101780004AC0E091FE0481E08E0F8093FE048091B8
:10179000BB00F0E0E252FB4F8083BDCF8091FE049E
:1017A000803230F4E091FE04F0E0E252FB4F108210
:1017B0000E94B6086091FE0470E08EED94E0E0E0D7
:1017C000F0E009951092FE042AC084E080933A0468
:1017D0001092DD041092DC04E0E0F0E009958091C5
:1017E000DC04811105C081E08093DC041092BC040C
:1017F000E091DD0481E08E0F8093DD04F0E0E4549D
:10180000FB4F80818093BB009091DD048091DC04CC
:10181000981708F480CF85E88093BC000AC085EC57
:101820008093BC0010923A0404C0109222050E94DA
:10183000B608FF91EF91BF91AF919F918F917F91EA
:101840006F915F914F913F912F910F900FBE0F902D
:101850001F9018951F920F920FB60F9211242F937D
:101860003F938F939F93EF93FF9320918305309144
:10187000840580918505909186052817390731F4F4
:101880008091C1008F7D8093C10014C0E0918505D7
:10189000F0918605ED5BFA4F20818091850590914E
:1018A000860501968F739927909386058093850509
:1018B0002093C600FF91EF919F918F913F912F91BF
:1018C0000F900FBE0F901F9018951F920F920FB69A
:1018D0000F9211242F934F935F938F939F93EF93C6
:1018E000FF938091C00082FD1CC02091C6008091B2
:1018F000C7059091C8054091C9055091CA05019648
:101900008F7399274817590771F0E091C705F09137
:10191000C805E957FA4F20839093C8058093C705FF
:1019200002C08091C600FF91EF919F918F915F91CE
:101930004F912F910F900FBE0F901F90189590E030
:10194000FC01E450FE4F2491FC01E851FE4F34911C
:10195000FC01EC52FE4FE491EE2309F43CC022233B
:1019600039F1233091F038F42130A9F0223001F51B
:1019700084B58F7D12C0263091F02730A1F024303D
:10198000B9F4809180008F7D03C0809180008F77B3
:10199000809380000DC084B58F7784BD09C080918D
:1019A000B0008F7703C08091B0008F7D8093B0002E
:1019B000F0E0EE0FFF1FE653FE4FA591B4919FB7E5
:1019C000F894611104C08C913095382302C0EC91D9
:1019D0003E2B3C939FBF0895CF93DF9390E0FC0193
:1019E000E851FE4F2491FC01EC52FE4F8491882374
:1019F00061F190E0880F991FFC01E054FE4FC59102
:101A0000D491FC01E653FE4FA591B491611109C038
:101A10009FB7F8948881209582238883EC912E23A8
:101A20000BC0623061F49FB7F8948881322F3095F3
:101A300083238883EC912E2B2C939FBF06C08FB7F6
:101A4000F894E8812E2B28838FBFDF91CF910895E2
:101A50001F93CF93DF93182FEB0161E00E94EC0CF2
:101A6000209711F460E004C0CF3FD10539F461E064
:101A7000812FDF91CF911F910C949F0CE12FF0E00B
:101A8000E450FE4FE491E330F9F048F4E130B9F06E
:101A9000E230A1F584B5806284BDC8BD34C0E630B3
:101AA000E9F0E73019F1E43049F580918000806277
:101AB00080938000D0938B00C0938A0024C084B5AB
:101AC000806884BDC7BD1FC08091800080688093FE
:101AD0008000D0938900C093880015C08091B00029
:101AE00080688093B000C093B3000DC08091B000B7
:101AF00080628093B000C093B40005C0C038D105A7
:101B00000CF0B5CFAFCFDF91CF911F910895CF9259
:101B1000DF92EF92FF92CF93DF936B017C010E94E3
:101B20001210EB01C114D104E104F10479F00E9418
:101B300012106C1B7D0B683E7340A0F381E0C81A45
:101B4000D108E108F108C851DC4FECCFDF91CF910B
:101B5000FF90EF90DF90CF9008957F928F929F92A9
:101B6000AF92BF92CF92DF92EF92FF920F931F93AB
:101B7000CF93DF93CDB7DEB7E6970FB6F894DEBF0D
:101B80000FBECDBF7C01FC0184A1882309F44AC1AA
:101B9000CE0101960E948110F70115A26701F4E0C1
:101BA000CF0ED11C80E090E060E000E04601772499
:101BB0007394F60111916F01112309F405C11635D3
:101BC00009F4A3C00CF51A3374F410330CF0BDC043
:101BD000103209F4F7C00CF4C1C023ED210F2230FC
:101BE00008F4B3C0BBC01D3409F43FC034F4123450
:101BF00009F49BC0173449F1B1C0133509F445C04D
:101C0000153509F472C0AAC01D3679F174F419357E
:101C100009F45BC024F4183509F447C09FC012369C
:101C200009F483C0173689F099C0163709F46DC0DE
:101C300034F4133751F1153709F457C08FC01837F2
:101C4000A1F1193709F441C089C0662331F0AE0112
:101C50004F5F5F4FC7010E94230ACE0101960E9489
:101C6000811080E090E067E6ADC0662331F0AE0100
:101C70004F5F5F4FC7010E94230ACE0101960E9469
:101C8000811080E090E06DE69DC0662331F0AE01EA
:101C90004F5F5F4FC7010E94230ACE0101960E9449
:101CA000811080E090E063E78DC0662331F0AE01E3
:101CB0004F5F5F4FC7010E94230ACE0101960E9429
:101CC000811080E090E068E77DC0662331F0AE01CE
:101CD0004F5F5F4FC7010E94230ACE0101960E9409
:101CE000811080E090E069E76DC0662331F0AE01BD
:101CF0004F5F5F4FC7010E94230ACE0101960E94E9
:101D0000811080E090E065E75DC0662331F0AE01B0
:101D10004F5F5F4FC7010E94230ACE0101960E94C8
:101D2000811080E090E066E74DC0662331F0AE019F
:101D30004F5F5F4FC7010E94230ACE0101960E94A8
:101D4000811080E090E062E63DC0E1E0F0E0EC0F61
:101D5000FD1FE80FF91F1083019634C0F70175A22B
:101D60006AE673E0828193810E946901612FF70125
:101D7000828193810E944601F701A280B380802F67
:101D800090E09EAB8DAB68E773E0C5010E946901EE
:101D90008DA99EA94AE0BE016F5D7F4F0E94F21B94
:101DA000BE016F5D7F4FC5010E9469016DEA73E05E
:101DB000C5010E946901CE0101960E94811080E058
:101DC00090E060E00F5FF5CE662331F0AE014F5F2B
:101DD0005F4FC7010E94230AF70185A1882361F1A3
:101DE000B401828193810E94690161E873E0F70187
:101DF000828193810E946901F70164A170E0828170
:101E000093810E949B0163E873E0F70182819381D3
:101E10000E94690165E873E0F701828193810E9465
:101E200069010AC06DEA73E0F701828193810E9423
:101E30006901C7010E94DD01E6960FB6F894DEBF86
:101E40000FBECDBFDF91CF911F910F91FF90EF900B
:101E5000DF90CF90BF90AF909F908F907F9008952C
:101E6000CF93DF93EC0187E480937C0080917A002C
:101E7000806480937A0080917A0086FDFCCF609127
:101E800078008091790070E0782B072E000C880B89
:101E9000990B0E94EC202DEC3CEC4CEE50E40E949F
:101EA000AC2120E030EC4FE754E40E9442206C83E8
:101EB0007D838E839F83DF91CF91089508950F9343
:101EC0001F93CF93DF938C01085F1F4FFC0126897E
:101ED00037892130310581F4EC01178A168A358B58
:101EE000248B0E94300FC8010E9476021C861D863A
:101EF0001E861F861F8A1E8AC801DF91CF911F91FF
:101F00000F910C947602CF93DF93EC0180E69AEE6A
:101F1000A0E0B0E0888B998BAA8BBB8B81E090E02E
:101F20009D8B8C8BCE0108960E9476021C861D86A6
:101F30001E861F861F8A1E8ADF91CF91089560E05A
:101F400070E089E00E94280D60E070E08AE00E9465
:101F5000280D60E082E00E949F0C60E084E00E9417
:101F60009F0C60E087E00E949F0C60E088E00C948A
:101F70009F0C8F929F92AF92BF92CF92DF92EF927F
:101F8000FF92CF93DF9360917A0470917B04C091AC
:101F90007C04D0917D046115710511F42097A1F1A5
:101FA000072E000C880B990B0E94EC206B017C0122
:101FB000BE01DD0F880B990B0E94EC204B015C01E8
:101FC00020E030E0A901C701B6010E949F21A701CE
:101FD000960187FD5058C501B4010E9442200E941D
:101FE000132020E030E044E353E40E94AC212BEDC9
:101FF0003FE049E450E40E94422020E030E044E326
:1020000052E40E94A61F03C060E070E0CB01DF91A4
:10201000CF91FF90EF90DF90CF90BF90AF909F90C7
:102020008F9008953FB7F8948091D5059091D6058B
:10203000A091D705B091D80526B5A89B05C02F3F24
:1020400019F00196A11DB11D3FBFBA2FA92F982FDE
:102050008827820F911DA11DB11DBC01CD0142E059
:10206000660F771F881F991F4A95D1F708951F9211
:102070000F920FB60F9211242F933F938F939F933C
:10208000AF93BF938091CB059091CC05A091CD05E6
:10209000B091CE053091D40523E0230F2D3720F4E5
:1020A0000196A11DB11D05C026E8230F0296A11DB2
:1020B000B11D2093D4058093CB059093CC05A093BC
:1020C000CD05B093CE058091D5059091D605A09110
:1020D000D705B091D8050196A11DB11D8093D505F6
:1020E0009093D605A093D705B093D805BF91AF9133
:1020F0009F918F913F912F910F900FBE0F901F9046
:10210000189520E2FC0111922A95E9F708950496AA
:102110000C9481102F923F924F925F926F927F9218
:102120008F929F92AF92BF92CF92DF92EF92FF92E7
:102130000F931F93CF93DF93CDB7DEB760970FB6A2
:10214000F894DEBF0FBECDBF988B8F878C01015AEC
:102150001F4FCF969C878B872F8538892D5B3F4FEC
:102160003E872D87F80180819181883C91050CF094
:10217000F7C0EF85F8898481F1E0F0933B04809308
:102180003D0410923C0410923E048BE390E00E94C8
:10219000680A80E00E946D0A41E066E0EF85F889F8
:1021A00084810E94C50A10921704809316048FE35D
:1021B00094E00E941109F82E8FE394E00E94110927
:1021C000FA82198229813A81822B932BBC01990FC3
:1021D000880B990B0E94EC2020E030E040E858E3A7
:1021E0000E94AC21EF85F889678370878187928789
:1021F0008FE394E00E941109F82E8FE394E00E948F
:102200001109FC821B822B813C81822B932BBC0108
:10221000990F880B990B0E94EC2020E030E040E8F9
:1022200058E30E94AC21EF85F8896387748785871E
:1022300096878FE394E00E941109F82E8FE394E0D3
:102240000E941109FE821D822D813E81822B932BDB
:10225000BC01990F880B990B0E94EC2020E030E024
:1022600040E858E30E94AC21EF85F8896787708BBE
:10227000818B928B83849484A584B684C780D08418
:10228000E184F2849B01AC010E94AC212B013C0152
:10229000A7019601C701B6010E94AC21A3019201DA
:1022A0000E94A71F0E941F229B01AC01C501B4011F
:1022B0000E9442200E94132020E030E044E353E4D7
:1022C0000E94AC212BED3FE049E450E40E94422003
:1022D0009B01AC01EB85FC856081718182819381DA
:1022E0000E94A71FEB85FC856083718382839383A3
:1022F000A5019401C501B4010E94AC21A301920182
:102300000E94A71F0E941F229B01AC01C701B601BA
:1023100090580E9442200E94132020E030E044E3C5
:1023200053E40E94AC212BED3FE049E450E40E94CD
:1023300042209B01AC01ED85FE8560817181828127
:1023400093810E94A71FED85FE8560837183828340
:102350009383F8018081918101969183808302CFDC
:10236000EF84F888FFE3EF0EF11C20E030E048E452
:1023700053E4F70160817181828193810E94422040
:10238000F7016083718382839383EF84F888F3E499
:10239000EF0EF11C20E030E048E453E4F7016081E7
:1023A0007181828193810E944220F7016083718351
:1023B00082839383F801118210822F853889295BEB
:1023C0003F4F69018F859889855B9F4F7C019924D8
:1023D0009394AF84B8889FE4A90EB11CF801808162
:1023E0009181883C91050CF0B9C0EF85F889848112
:1023F00090923B0480933D0410923C0410923E0462
:1024000083E490E00E94680A80E00E946D0A41E047
:1024100066E0EF85F88984810E94C50A109217044E
:10242000809316048FE394E00E941109882E8FE3B5
:1024300094E00E94110988861F822F813885822BA3
:10244000932BBC01990F880B990B0E94EC20EF8510
:10245000F889638B748B858B968B8FE394E00E9455
:102460001109882E8FE394E00E9411098A8619864B
:1024700029853A85822B932BBC01990F880B990BE8
:102480000E94EC20EF85F889678B708F818F928F87
:102490008FE394E00E941109882E8FE394E00E945C
:1024A0001109382C212C82299329BC01990F880B02
:1024B000990B0E94EC202B013C01EF85F889638F7A
:1024C000748F858F968F20E030E043E053E463897A
:1024D0007489858996890E944220F6012081318184
:1024E000428153810E94A71FF6016083718382831A
:1024F000938320E030E043E053E4EF85F889678977
:10250000708D818D928D0E944220F7012081318152
:10251000428153810E94A71FF701608371838283E8
:10252000938320E030E043E053E4C301B2010E9412
:1025300042209B01AC01F501608171818281938110
:102540000E94A71FF5016083718382839383F80142
:102550008081918101969183808340CF20E030E09B
:1025600048E453E4F60160817181828193810E9485
:102570004220F601608371838283938320E030E000
:1025800048E453E4F70160817181828193810E9464
:102590004220F70160837183828393830F851889BA
:1025A000015B1F4F20E030E048E453E4F801608114
:1025B0007181828193810E944220F801608371833E
:1025C000828393838F85988960960FB6F894DEBFD7
:1025D0000FBECDBFDF91CF911F910F91FF90EF9074
:1025E000DF90CF90BF90AF909F908F907F906F9033
:1025F0005F904F903F902F900C949F131F93CF9319
:10260000DF93EC0188E690E09D838C83FE01E15A24
:10261000FF4F118210821E821FA218A619A61AA6A9
:102620001BA61CA61DA61EA61FA618AA19AA1AAA92
:102630001F8E18A219A21AA21BA21CA21DA21EA2C2
:102640001FAA18AE19AE1AAE1BAA1CAA1DAA1EAA52
:102650001BAE1CAE1DAE1EAE1092170410921604D7
:1026600010923C0410923E0410923A0411E0109330
:1026700039041092380461E082E10E949F0C61E00D
:1026800083E10E949F0CE9EBF0E080818E7F8083E4
:1026900080818D7F808388E48093B80085E4809377
:1026A000BC008C8110933B0480933D0410923C0449
:1026B00010923E048BE690E00E94680A80E090E071
:1026C0000E94680A81E00E946D0A8C8110933B048D
:1026D00080933D0410923C0410923E048CE190E003
:1026E0000E94680A80E090E00E94680A81E00E94EF
:1026F0006D0A8C8110933B0480933D0410923C043E
:1027000010923E048BE190E00E94680A80E090E025
:102710000E94680A81E00E946D0A64E670E080E031
:1027200090E00E94870DCE010E948A1068EC70E054
:1027300080E090E0DF91CF911F910C94870DCF93B3
:10274000DF93EC01FC01FF962081318142815381AE
:1027500060ED73E08A819B810E945B02FE01ED5B6C
:10276000FF4F20813181428153816CED73E08A817A
:102770009B810E945B02FE01E95BFF4F208131815A
:102780004281538168EE73E08A819B810E945B02E3
:10279000FE01E55BFF4F208131814281538165EF6E
:1027A00073E08A819B810E945B02FE01E15BFF4F27
:1027B000208131814281538162E074E08A819B8172
:1027C000DF91CF910C945B024F925F926F927F9258
:1027D0008F929F92AF92BF92CF92DF92EF92FF9231
:1027E000CF93DF9300D000D000D0CDB7DEB79E836B
:1027F0008D837C012BE5E20EF11C6C0187E5C80E90
:10280000D11CF60180819181A281B381F70180837F
:102810009183A283B3832FB7F8946091CB05709115
:10282000CC058091CD059091CE052FBF0E94EA2066
:10283000D6016D937D938D939C931397CD80DE800D
:10284000B3E5CB0ED11CF701208131814281538148
:102850000E94A61F20E030E04AE754E40E94422094
:10286000D6016D937D938D939C931397ED81FE819B
:10287000848191E090933B0480933D0410923C044A
:1028800010923E0483E490E00E94680A80E00E9477
:102890006D0A41E066E0AD81BE8114968C910E9484
:1028A000C50A10921704809316048FE394E00E94E7
:1028B0001109F82E8FE394E00E94110960E070E0A6
:1028C0007F2D862B972BBC01990F880B990B0E94AB
:1028D000EC2020E030E043E053E40E944220ED8110
:1028E000FE81638B748B858B968B8FE394E00E94C3
:1028F0001109F82E8FE394E00E94110960E070E066
:102900007F2D862B972BBC01990F880B990B0E946A
:10291000EC2020E030E043E053E40E944220AD810F
:10292000BE8157966D937D938D939C935A978FE3B9
:1029300094E00E941109B82E8FE394E00E941109DF
:102940007C01ED81FE81E95BFF4F20813181428175
:102950005381ED81FE8163897489858996890E94FE
:10296000A61F2B013C01AD81BE8153966D937D93D3
:102970008D939C935697FD01E55BFF4F208131813C
:102980004281538157966D917D918D919C915A977B
:102990000E94A61F69837A838B839C83ED81FE81CD
:1029A000678B708F818F928F60E070E07B2D6E2936
:1029B0007F29072E000C880B990B0E94EC2020E049
:1029C00030E043E053E40E944220ED81FE81E15B70
:1029D000FF4F20813181428153810E94A61F4B010C
:1029E0005C01AD81BE815B966D937D938D939C93CD
:1029F0005E97F601C080D180E280F380A701960146
:102A0000C301B2010E94AC21AD81BE8197962D9188
:102A10003D914D915C919A970E94A71F2B013C011B
:102A2000A701960169817A818B819C810E94AC21EA
:102A3000ED81FE8123A534A545A556A50E94A71FBB
:102A400069837A838B839C83AD81BE8116968C913A
:102A5000A7019601811105C0C501B4010E94AC21F6
:102A60000CC0C501B4010E94AC21ED81FE8123ADF3
:102A700034AD45AD56AD0E94A71FAD81BE81DB963A
:102A80006D937D938D939C93DE975F962D913D91F1
:102A90004D915C919297C301B2010E94A61F4B0118
:102AA0005C0120E030E0A9010E949F21181624F06B
:102AB000B7FAB094B7F8B094ED81FE8123A134A1A8
:102AC00045A156A169817A818B819C810E94A61FB4
:102AD0006B017C0120E030E0A9010E949F211816C3
:102AE00024F0F7FAF094F7F8F09420E030E0A90130
:102AF000C301B2010E949F212DEC3CEC4CE45DE34C
:102B000018165CF4C501B4010E94AC219B01AC0114
:102B1000C301B2010E94A61F08C0C501B4010E94F2
:102B2000AC21A30192010E94A71FAD81BE8197969F
:102B30006D937D938D939C939A9720E030E0A9014B
:102B400069817A818B819C810E949F212DEC3CECD4
:102B50004CE45DE318166CF4C701B6010E94AC2189
:102B60009B01AC0169817A818B819C810E94A61FA7
:102B70000AC0C701B6010E94AC2129813A814B816C
:102B80005C810E94A71FED81FE8163A774A785A7C2
:102B900096A726960FB6F894DEBF0FBECDBFDF9185
:102BA000CF91FF90EF90DF90CF90BF90AF909F902C
:102BB0008F907F906F905F904F9008954F925F92AB
:102BC0006F927F928F929F92AF92BF92CF92DF923D
:102BD000EF92FF92CF93DF93EC018C8191E0909381
:102BE0003B0480933D0410923C0410923E048BE31E
:102BF00090E00E94680A80E00E946D0A41E066E071
:102C00008C810E94C50A10921704809316048FE3EA
:102C100094E00E941109F82E8FE394E00E941109BC
:102C200060E070E07F2D862B972BBC01990F880BFD
:102C3000990B0E94EC2020E030E040E858E30E942D
:102C4000AC216F83788789879A878FE394E00E940D
:102C50001109F82E8FE394E00E94110960E070E002
:102C60007F2D862B972BBC01990F880B990B0E9407
:102C7000EC2020E030E040E858E30E94AC216B8774
:102C80007C878D879E878FE394E00E941109F82E40
:102C90008FE394E00E94110960E070E07F2D862BA5
:102CA000972BBC01990F880B990B0E94EC2020E018
:102CB00030E040E858E30E94AC216F87788B898B25
:102CC0009A8B8B849C84AD84BE84CF80D884E98425
:102CD000FA849B01AC010E94AC212B013C01A701AD
:102CE0009601C701B6010E94AC21A30192010E9486
:102CF000A71F0E941F229B01AC01C501B4010E94C5
:102D000042200E94132020E030E044E353E40E947C
:102D1000AC212BED3FE049E450E40E9442206F8F4C
:102D200078A389A39AA3A5019401C501B4010E94C7
:102D3000AC21A30192010E94A71F0E941F229B01A8
:102D4000AC01C701B60190580E9442200E94132096
:102D500020E030E044E353E40E94AC212BED3FE05F
:102D600049E450E40E9442206BA37CA38DA39EA360
:102D7000CE010E94E4136FE074E08A819B810E947F
:102D800069014FA158A569A57AA58A819B810E94F6
:102D9000320261E174E08A819B810E9469014BA546
:102DA0005CA56DA57EA58A819B810E9432022BAD18
:102DB0003CAD4DAD5EAD63E174E08A819B81DF91F6
:102DC000CF91FF90EF90DF90CF90BF90AF909F900A
:102DD0008F907F906F905F904F900C945B020F9359
:102DE0001F93CF93DF93EFE3F4E01382128288EE18
:102DF00093E0A0E0B0E084839583A683B78328E0C6
:102E000033E031832083EBE4F4E013821282848385
:102E10009583A683B78388E193E09183808387E8D5
:102E200095E09587848783E495E09787868785EC8E
:102E300090E0918B808B84EC90E0938B828B80EC84
:102E400090E0958B848B81EC90E0978B868B82EC65
:102E500090E0918F808F86EC90E0938F828F84E05A
:102E6000848F83E0858F87E0868F85E0878F81E080
:102E700080A3ECEAF4E0148215821682178215868C
:102E80001486108611861286138610821182128291
:102E9000138217861686ECE9F4E0148215821682F6
:102EA0001782158614861086118612861386108264
:102EB0001182128213821786168683E090E00E94A8
:102EC000851E8C01FC01108290939B0480939A04D0
:102ED000E2E8F4E09383828380E493E0918380834B
:102EE0001482158216821782148615861686178616
:102EF000158A148A108A118A128A138A10861186FA
:102F000012861386178A168ACF010E94830F88E3E0
:102F100090E00E94851EEC011B830A8380E393E00E
:102F2000998388831CA2CE0104960E94811088E3B5
:102F300093E0998388831FA21EA219A618A61BA638
:102F40001AA61DA61CA61FA61EA619AA18AA1BAA69
:102F50001AAA1DAA1CAACE010E943301D093810493
:102F6000C0938004E0E7F4E01182108213821282A1
:102F70001582148217821682118610861386128695
:102F8000158614861786168610926F0481E690E0E7
:102F90000E94851E20919A0430919B04FC0133838A
:102FA000228328E233E03183208390936E04809360
:102FB0006D04DF91CF911F910F910895789484B59E
:102FC000826084BD84B5816084BD85B5826085BD25
:102FD00085B5816085BD80916E00816080936E00B3
:102FE00010928100809181008260809381008091A5
:102FF0008100816080938100809180008160809356
:1030000080008091B10084608093B1008091B00015
:1030100081608093B00080917A00846080937A0010
:1030200080917A00826080937A0080917A0081603A
:1030300080937A0080917A00806880937A00109261
:10304000C10060E085E10E94EC0C61E089E00E9433
:10305000EC0C61E08AE00E94EC0C61E082E00E94EE
:10306000EC0C61E084E00E94EC0C61E087E00E94DF
:10307000EC0C61E088E00E94EC0C0E949F0FE09154
:103080005F04F0916004C1E0D0E0CE0100906B04D9
:1030900002C0880F991F0A94E2F78083E0915B04D5
:1030A000F0915C041082E0915D04F0915E048FEC7D
:1030B000808310926C04E0916104F091620420819D
:1030C000CE010090670402C0880F991F0A94E2F7AE
:1030D000822B8083E0916104F09162042081CE0113
:1030E0000090680402C0880F991F0A94E2F7822BAF
:1030F0008083E0916104F09162042081CE01009010
:10310000690402C0880F991F0A94E2F7822B80831A
:10311000E0916104F091620490819E0100906A0444
:1031200002C0220F331F0A94E2F7822F8095892371
:103130008083E0919A04F0919B0481E080838CE984
:1031400093E00E94560A61E08DE00E94EC0C84EF4F
:1031500091E0A0E0B0E08093A4049093A504A09334
:10316000A604B093A704D093A904C093A80482E84E
:1031700094E00E94300F80916D0490916E04DC0108
:10318000ED91FC910190F081E02D099582E390E0B2
:10319000A0E0B0E08093B4049093B504A093B6048B
:1031A000B093B704D093B904C093B8041092CF057C
:1031B0001092D0051092D1051092D2058BE494E0C4
:1031C0000E94CB0980918004909181040E94DD01CE
:1031D000E0918004F091810417AA60EB73E0809184
:1031E0009A0490919B040E9469018AEF482E512C09
:1031F000612C712C2224239433243A9480916F04FF
:10320000882311F061E001C060E08DE00E949F0C16
:103210008091AA049091AB048130910511F5109230
:10322000AB041092AA049093A9048093A8048091FF
:103230006F04811104C081E080936F0402C010927A
:103240006F048CE994E00E9476021092A004109220
:10325000A1041092A2041092A3041092AB04109245
:10326000AA048CE994E00E94760282E894E00E942D
:103270005F0F8091D305813079F44092A40450927D
:10328000A5046092A6047092A70481E090E0909358
:10329000A9048093A80412C084EF91E0A0E0B0E0FC
:1032A0008093A4049093A504A093A604B093A704CC
:1032B000A1E0B0E0B093A904A093A8048091800499
:1032C00090918104DC01ED91FC910280F381E02D6D
:1032D0000995C0918004D091810480E1FE01B696E9
:1032E000A0E7B4E001900D928A95E1F78EA98236AD
:1032F000F9F467EB73E080919A0490919B040E942B
:10330000690182E894E00E94300F40918604509158
:10331000870460918804709189048091840490915D
:1033200085040E943202E0918004F091810416AA83
:1033300080917204909173040A9789F480916D04CE
:1033400090916E04DC01ED91FC910280F381E02DFF
:103350000995E0918004F091810411A610A6809156
:103360007204909173048336910531F569EB73E033
:1033700080919A0490919B040E94690161EC73E032
:1033800080919A0490919B040E94690165EC73E01E
:1033900080919A0490919B040E9469016CEC73E007
:1033A00080919A0490919B040E946901E0918004AD
:1033B000F091810411A610A680917204909173047B
:1033C0008436910561F480916D0490916E040E94A1
:1033D0009F13E0918004F091810411A610A68091C2
:1033E0007204909173048536910561F480916D04A7
:1033F00090916E040E948A10E0918004F091810403
:1034000011A610A68091BA049091BB048130910559
:1034100041F51092BB041092BA049093B9048093C2
:10342000B80480916D0490916E040E94E4130E9490
:10343000B90F6093CF057093D0058093D105909319
:10344000D2058CEA94E00E9476021092B0041092A9
:10345000B1041092B2041092B3041092BB04109203
:10346000BA048CEA94E00E94760280917A049091EA
:103470007B04892B59F480917C0490917D04892BE5
:1034800029F41092D3050E949F0F03C081E080931E
:10349000D305C090CF05D090D005E090D105F09035
:1034A000D2050E94B90F9B01AC01C701B6010E9471
:1034B000A61FE0916D04F0916E0423AD34AD45ADCF
:1034C00056AD0E94A61F20E030E040EA50E40E9482
:1034D000AC216B017C0120E030E0A9010E949F211A
:1034E000C0917A04D0917B0400917C0410917D04FA
:1034F00018166CF520E030E040E05FE3C701B6014C
:103500000E94A71F0E94B420161617061806190657
:1035100014F49B0104C022273327261B370BC21B40
:10352000D30BD0937B04C0937A04161617061806A3
:10353000190614F4AB0104C044275527461B570B4A
:10354000400F511F50937D0440937C0483C020E0C2
:1035500030E0A901C701B6010E949F2120E030E0C0
:1035600040E05FE387FD12C0C701B6010E94A71FBC
:103570004B015C010E94B4201616170618061906A6
:1035800094F4C501B4010E94B42014C0C701B6016F
:103590000E94A61F4B015C010E94B420161617065C
:1035A000180619063CF0C501B4010E94B4207195BB
:1035B000619571096C0F7D1F70937B0460937A0491
:1035C00020E030E0A901C701B6010E949F2120E060
:1035D00030E040E05FE387FD16C0C701B6010E94FE
:1035E000A71F0E94B4201616170618061906FCF429
:1035F00020E030E040E05FE3C701B6010E94A71F72
:103600000E94B42021C0C701B6010E94A61F0E94DB
:10361000B4201616170618061906B4F020E030E09C
:1036200040E05FE3C701B6010E94A61F08C020E08A
:1036300030E040E05FE3C701B6010E94A71F0E948F
:10364000B420719561957109061B170B10937D04C9
:1036500000937C0480917A0490917B048F3F9105C4
:1036600039F034F08FEF90E090937B0480937A04EC
:1036700080917C0490917D048F3F910539F034F066
:10368000AFEFB0E0B0937D04A0937C0480917A0406
:1036900090917B0481309F4F24F430927B042092E0
:1036A0007A0480917C0490917D0481309F4F24F4B2
:1036B00030927D0420927C0480917A0490917B0466
:1036C000181619066CF461E082E00E949F0C60E01D
:1036D00084E00E949F0C60917A0470917B040FC07B
:1036E00060E082E00E949F0C61E084E00E949F0CF9
:1036F00060917A0470917B0471956195710989E0FC
:103700000E94280D80917C0490917D041816190662
:103710006CF461E087E00E949F0C60E088E00E940A
:103720009F0C60917C0470917D040FC060E087E085
:103730000E949F0C61E088E00E949F0C60917C04D5
:1037400070917D047195619571098AE00E94280D40
:1037500055CDEF920F931F93CF93DF93E80147FD71
:1037600002C034E001C034E1042E000C550B57FFB9
:1037700003C0519541955109E32E022F242FAE012C
:103780000E940C1CCE01DF91CF911F910F91EF9001
:103790000895FC0188279927E89421912032E9F3C4
:1037A000293010F02E30C8F32B3241F02D3239F48D
:1037B000689404C00E94EA1B820F911D219120533E
:1037C0002A30C0F31EF4909581959F4F0895F89488
:1037D0000C94A2227AE0979F902D879F802D910DC7
:1037E00011240895BB27FB015527AA27880F991F8D
:1037F000AA1FA41710F0A41B83955051B9F7A05D20
:10380000AA3308F0A95DA193009779F7B111B1939C
:103810001192CB010C943E1EA9E0B0E0E2E1FCE184
:103820000C94541E6A01122FB02E2BE3201720F0A7
:10383000FF24F394F00E02C02CE3F22E0F2D27E0AC
:10384000AE014F5F5F4F0E94661DBC014981842F0E
:103850008970813031F0E1FC06C0E0FE06C090E2E4
:1038600005C09DE203C09BE201C090E05E2D507157
:1038700043FF3CC0911102C083E001C084E0811786
:1038800018F4212F281B01C020E051110BC0F601B4
:10389000822F30E2882319F031938150FBCFC20E82
:1038A000D11C20E0992329F0D6019C93F601319692
:1038B0006F01C6010396E2FE0AC03EE4D6013C93C6
:1038C00041E411964C93119712963C9306C03EE644
:1038D000F601308341E641833283FC01322F40E21E
:1038E000332309F442C041933150FACF42FF44C020
:1038F000911102C083E001C084E0811718F4212FE8
:10390000281B01C020E051110BC0F601822F30E2CC
:10391000882319F031938150FBCFC20ED11C20E0D7
:10392000992329F0D6019C93F60131966F01C601C7
:103930000396E2FE0BC039E4D6013C933EE41196B7
:103940003C93119736E412963C9307C039E6F60192
:1039500030833EE6318336E63283FC01322F40E28B
:10396000332319F041933150FBCFFC01E20FF11DDD
:1039700010828EEF9FEFA6C021E030E0911102C0CF
:1039800020E030E0161617061CF4FB01319602C049
:10399000E1E0F0E02E0F3F1FBB2021F0EB2DF0E027
:1039A000319602C0E0E0F0E02E0F3F1FE12FF0E083
:1039B0002E173F071CF4121B212F01C020E08E2D73
:1039C000887159F4F601822F30E2882319F031937F
:1039D0008150FBCFC20ED11C20E0992329F0D601E3
:1039E0009C93F60131966F0151110BC0F601822FA5
:1039F00090E3882319F091938150FBCFC20ED11C24
:103A000020E00F2D060F9A81342F307144FF03C040
:103A1000913309F40150101624F4093018F008E02D
:103A200001C001E0AB0177FF02C040E050E0FB01C4
:103A3000E41BF50BA1E0B0E0AC0FBD1FEA0FFB1FCC
:103A40008EE2A82E4B01801A91080B2D10E01195E3
:103A5000019511094F3FBFEF5B0721F4D601AC92EE
:103A600011966D01641775072CF08416950614F4F1
:103A7000818101C080E3415051093196D6011196F0
:103A80007D014017510724F0D6018C936701E2CFE6
:103A90006417750739F4963320F4953319F431110E
:103AA00001C081E3F6018083F701822F90E2882331
:103AB00019F091938150FBCFF701E20FF11D1082B5
:103AC00080E090E02996ECE00C94701E283008F01D
:103AD00027E03327DA01990F311D87FD91600096A9
:103AE0006105710539F432602E5F3D9330E32A950C
:103AF000E1F708959F3F30F080387105610509F0C6
:103B00003C5F3C5F3D93913008F08068911DDF93EE
:103B1000CF931F930F93FF92EF92192F987F969553
:103B2000E92F96959695E90FFF27E05EFE4F9927BE
:103B30003327EE24FF24A701E7010590089407949A
:103B400028F4360FE71EF81E491F511D660F771F18
:103B5000881F991F0694A1F70590079428F4E70E93
:103B6000F81E491F561FC11D770F881F991F661F1A
:103B70000694A1F70590079428F4F80E491F561FE4
:103B8000C71FD11D880F991F661F771F0694A1F7C5
:103B90000590079420F4490F561FC71FD81F990F8F
:103BA000661F771F881F0694A9F7849110951770D8
:103BB00041F0D695C79557954795F794E7941A9590
:103BC000C1F7E6ECF0E06894159015913591659198
:103BD000959105907FE27395E118F10A430B560B1E
:103BE000C90BD009C0F7E10CF11E431F561FC91FB6
:103BF000D01D7EF4703311F48A95E6CFE89401501D
:103C000030F0080F0AF40027021708F4202F23953C
:103C1000022F7A3328F079E37D932A95E9F710C0D3
:103C20007D932A9589F6069497956795379517950C
:103C30001794E118F10A430B560BC90BD00998F001
:103C400023957E9173957A3308F070E37C9320136B
:103C5000B8F77E9170617D9330F0839571E37D9329
:103C600070E32A95E1F71124EF90FF900F911F91D7
:103C7000CF91DF91992787FD90950895DC01FC0194
:103C8000672F71917723E1F7329704C07C916D9390
:103C900070836291AE17BF07C8F308952F923F92C9
:103CA0004F925F926F927F928F929F92AF92BF924C
:103CB000CF92DF92EF92FF920F931F93CF93DF93F8
:103CC000CDB7DEB7CA1BDB0B0FB6F894DEBF0FBE55
:103CD000CDBF09942A88398848885F846E847D84A2
:103CE0008C849B84AA84B984C884DF80EE80FD80A4
:103CF0000C811B81AA81B981CE0FD11D0FB6F8941A
:103D0000DEBF0FBECDBFED0108950F931F93CF937C
:103D1000DF938230910510F482E090E0E091DB05C2
:103D2000F091DC0520E030E0A0E0B0E0309719F140
:103D3000408151810281138148175907C8F08417C7
:103D4000950769F4109731F012960C931297139619
:103D50001C9327C00093DB051093DC0522C02115BE
:103D6000310519F04217530718F49A01BD01EF010C
:103D7000DF01F801DBCF21153105F9F0281B390BE4
:103D80002430310580F48A819B816115710521F011
:103D9000FB019383828304C09093DC058093DB0551
:103DA000FE01329644C0FE01E20FF31F819391930E
:103DB00022503109398328833AC02091D9053091A6
:103DC000DA05232B41F42091020130910301309355
:103DD000DA052093D90520910001309101012115C8
:103DE000310541F42DB73EB74091040150910501D2
:103DF000241B350BE091D905F091DA05E217F307A2
:103E0000A0F42E1B3F0B2817390778F0AC014E5F4A
:103E10005F4F2417350748F04E0F5F1F5093DA05A8
:103E20004093D9058193919302C0E0E0F0E0CF0187
:103E3000DF91CF911F910F910895CF93DF9300975A
:103E400009F481C0FC01329713821282A091DB0534
:103E5000B091DC05109781F420813181820F931F8E
:103E60002091D9053091DA052817390751F5F093DB
:103E7000DA05E093D90567C0ED0120E030E0CE1708
:103E8000DF0740F44A815B819E0141155105F1F045
:103E9000EA01F5CFD383C28340815181840F951FFE
:103EA000C817D90759F488819981840F951F029604
:103EB000918380838A819B8193838283211531053D
:103EC00029F4F093DC05E093DB053DC0E901FB83B9
:103ED000EA8349915991C40FD51FEC17FD0761F48E
:103EE00080819181840F951F0296E90199838883CF
:103EF000828193819B838A83E0E0F0E012968D912A
:103F00009C911397009719F0FD01DC01F7CF8D917B
:103F10009C9111979D012E5F3F4F820F931F20911F
:103F2000D9053091DA052817390769F4309729F453
:103F30001092DC051092DB0502C013821282B0934E
:103F4000DA05A093D905DF91CF9108955058BB278A
:103F5000AA270E94BE1F0C9465210E94572138F0A9
:103F60000E945E2120F039F49F3F19F426F40C944E
:103F70002D210EF4E095E7FB0C942721E92F0E94F8
:103F8000762158F3BA17620773078407950720F064
:103F900079F4A6F50C9498210EF4E0950B2EBA2F27
:103FA000A02D0B01B90190010C01CA01A00111243F
:103FB000FF27591B99F0593F50F4503E68F11A16EB
:103FC000F040A22F232F342F4427585FF3CF46957C
:103FD00037952795A795F0405395C9F77EF41F169E
:103FE000BA0B620B730B840BBAF09150A1F0FF0F68
:103FF000BB1F661F771F881FC2F70EC0BA0F621F54
:10400000731F841F48F4879577956795B795F79543
:104010009E3F08F0B0CF9395880F08F09927EE0FD8
:10402000979587950895DF93DD27B92FBF7740E8EF
:104030005FE31616170648075B0718F4D92F0E948E
:10404000A4219F938F937F936F930E945F22E8E94F
:10405000F0E00E9430210E9465212F913F914F9105
:104060005F910E94BF21DD2351F09058A2EA2AED12
:104070003FE049EC5FE3D0785D270E94BE1FDF91EF
:104080000C9465210E9456200C9465210E945E21AB
:1040900058F00E94572140F029F45F3F29F00C941A
:1040A000272151110C9499210C942D210E947621E5
:1040B00068F39923B1F3552391F3951B550BBB2757
:1040C000AA2762177307840738F09F5F5F4F220F9C
:1040D000331F441FAA1FA9F335D00E2E3AF0E0E893
:1040E00032D091505040E695001CCAF72BD0FE2FDD
:1040F00029D0660F771F881FBB1F26173707480771
:10410000AB07B0E809F0BB0B802DBF01FF27935828
:104110005F4F3AF09E3F510578F00C9427210C94A4
:1041200099215F3FE4F3983ED4F3869577956795A0
:10413000B795F7959F5FC9F7880F911D969587955D
:1041400097F90895E1E0660F771F881FBB1F62177C
:1041500073078407BA0720F0621B730B840BBA0B3A
:10416000EE1F88F7E09508950E94BB206894B11176
:104170000C94992108950E947E2188F09F5798F011
:10418000B92F9927B751B0F0E1F0660F771F881F5C
:10419000991F1AF0BA95C9F714C0B13091F00E9476
:1041A0009821B1E008950C949821672F782F8827E3
:1041B000B85F39F0B93FCCF3869577956795B3959D
:1041C000D9F73EF490958095709561957F4F8F4F0C
:1041D0009F4F0895E89409C097FB3EF49095809511
:1041E000709561957F4F8F4F9F4F9923A9F0F92FBD
:1041F00096E9BB279395F695879577956795B7953B
:10420000F111F8CFFAF4BB0F11F460FF1BC06F5F20
:104210007F4F8F4F9F4F16C0882311F096E911C032
:10422000772321F09EE8872F762F05C0662371F053
:1042300096E8862F70E060E02AF09A95660F771F67
:10424000881FDAF7880F9695879597F9089597F95B
:104250009F6780E870E060E008959FEF80EC08952C
:10426000DF93CF931F930F93FF92EF92DF927B0127
:104270008C01689406C0DA2EEF010E94BF21FE0176
:10428000E894A5912591359145915591A6F3EF01BB
:104290000E94BE1FFE019701A801DA9469F7DF9022
:1042A000EF90FF900F911F91CF91DF91089500241F
:1042B0000A941616170618060906089500240A948B
:1042C00012161306140605060895092E0394000C11
:1042D00011F4882352F0BB0F40F4BF2B11F460FFA0
:1042E00004C06F5F7F4F8F4F9F4F089557FD9058C9
:1042F000440F551F59F05F3F71F04795880F97FBAA
:10430000991F61F09F3F79F0879508951216130663
:104310001406551FF2CF4695F1DF08C01616170692
:104320001806991FF1CF86957105610508940895C7
:10433000E894BB2766277727CB0197F908950E9459
:10434000632208F48FEF08959B01AC0160E070E0F8
:1043500080E89FE30C9442200E94BF210C946521C9
:104360000E94572138F00E945E2120F0952311F021
:104370000C9427210C942D2111240C9499210E9436
:10438000762170F3959FC1F3950F50E0551F629F02
:10439000F001729FBB27F00DB11D639FAA27F00D9E
:1043A000B11DAA1F649F6627B00DA11D661F829FC5
:1043B0002227B00DA11D621F739FB00DA11D621FAA
:1043C000839FA00D611D221F749F3327A00D611DC7
:1043D000231F849F600D211D822F762F6A2F1124A9
:1043E0009F5750409AF0F1F088234AF0EE0FFF1FDC
:1043F000BB1F661F771F881F91505040A9F79E3F33
:10440000510580F00C9427210C9499215F3FE4F32F
:10441000983ED4F3869577956795B795F795E79588
:104420009F5FC1F7FE2B880F911D9695879597F991
:10443000089519F416F40C942D210C9487220E94EF
:104440007E21B8F39923C9F3B6F39F57550B87FF25
:104450000E9495220024A0E640EA900180585695DB
:10446000979528F4805C660F771F881F20F0261729
:104470003707480730F4621B730B840B202931295E
:104480004A2BA69517940794202531254A2758F7DB
:10449000660F771F881F20F026173707480730F46C
:1044A000620B730B840B200D311D411DA09581F70C
:1044B000B901842F9158880F9695879508959B018F
:1044C000AC010C94AC21990F0008550FAA0BE0E841
:1044D000FEEF16161706E807F907C0F012161306C6
:1044E000E407F50798F0621B730B840B950B39F406
:1044F0000A2661F0232B242B252B21F408950A266C
:1045000009F4A140A6958FEF811D811D08959F3F5D
:1045100031F0915020F4879577956795B795880F7E
:10452000911D9695879597F9089591505040660F83
:10453000771F881FD2F70895EE0FFF1F0590F491A3
:08454000E02D0994F894FFCF6F
:104548000000DD052000A9A6A59A9996956A6966D6
:10455800655A595655AAA9A6A59A9996956A69665B
:10456800655A595655AAA9A6A59A9996956A69664B
:10457800655A595655AAA9A6A59A9996956A69663B
:10458800655A595655AAA9A6A59A9996956A69662B
:10459800655A595655AAA9A6A59A9996956A69661B
:1045A800655A595655AAA9A6A59A9996956A69660B
:1045B800655A595655AAA9A6A59A9996956A6966FB
:1045C800655A595655AAA9A6A59A9996956A6966EB
:1045D800655A595655AAA9A6A59A9996956A6966DB
:1045E800655A595655AAA9A6A59A9996956A6966CB
:1045F800655A595655AAA9A6A59A9996956A6966BB
:10460800655A595655AAA9A6A59A9996956A6966AA
:10461800655A595655AAA9A6A59A9996956A69669A
:10462800655A595655AAA9A6A59A9996956A69668A
:10463800655A595655AAA9A6A59A9996956A69667A
:10464800655A595655AAAAAAAAAAAAAAAAAAAAAA51
:10465800AAAAAAAAA9A9A9A9A9A9A9A9A9A9A9A9BE
:10466800A9A9A9A9A6A6A6A6A6A6A6A6A6A6A6A6D6
:10467800A6A6A6A6A5A5A5A5A5A5A5A5A5A5A5A5DE
:10468800A5A5A5A59A9A9A9A9A9A9A9A9A9A9A9A56
:104698009A9A9A9A9999999999999999999999997E
:1046A8009999999996969696969696969696969696
:1046B800969696969595959595959595959595959E
:1046C800959595956A6A6A6A6A6A6A6A6A6A6A6A96
:1046D8006A6A6A6A6969696969696969696969693E
:1046E8006969696966666666666666666666666656
:1046F800666666666565656565656565656565655E
:10470800656565655A5A5A5A5A5A5A5A5A5A5A5AD5
:104718005A5A5A5A595959595959595959595959FD
:104728005959595956565656565656565656565615
:10473800565656565555555555555555555555551D
:1047480055555555000000005A092D09250911092C
:1047580002090109000000008909D908120AD609CE
:10476800F609CB0900000000FE12DE15000000006B
:1047780087105E0F000000003301C3020000000034
:10478800830F5F0F4D4449207374617475733A0049
:104798004720004D20005320005820005920005584
:1047A80020005620004220000D00556E6B6E6F777A
:1047B8006E2063686172200020617420636F6C2032
:1047C80000280029003A20636F6D6D616E64206EC9
:1047D8006F7420666F756E64210D0A00496E6974E6
:1047E80069616C697A696E67202E2E2E200D0A0089
:1047F800446F6E650D0A0042007C534552564F3A8D
:1048080000300D0A007C4759524F3A00310D0A001A
:104818007C4163634572726F72583A007C416363EE
:104828004572726F72593A007C4779726F4572729D
:104838006F72583A007C4779726F4572726F72597D
:104848003A007C4779726F4572726F725A3A004E1D
:06485800004F00500000BB
:00000001FF
